{
	"data": {
		"bytecode": {
			"linkReferences": {},
			"object": "60806040525f600955348015610013575f80fd5b506040518060400160405280600b81526020017f47617468626f6f6b4e46540000000000000000000000000000000000000000008152506040518060400160405280600581526020017f47424f4f4b000000000000000000000000000000000000000000000000000000815250815f908161008e91906103c6565b50806001908161009e91906103c6565b5050506100bd6100b26100c260201b60201c565b6100c960201b60201c565b610495565b5f33905090565b5f60065f9054906101000a900473ffffffffffffffffffffffffffffffffffffffff1690508160065f6101000a81548173ffffffffffffffffffffffffffffffffffffffff021916908373ffffffffffffffffffffffffffffffffffffffff1602179055508173ffffffffffffffffffffffffffffffffffffffff168173ffffffffffffffffffffffffffffffffffffffff167f8be0079c531659141344cd1fd0a4f28419497f9722a3daafe3b4186f6b6457e060405160405180910390a35050565b5f81519050919050565b7f4e487b71000000000000000000000000000000000000000000000000000000005f52604160045260245ffd5b7f4e487b71000000000000000000000000000000000000000000000000000000005f52602260045260245ffd5b5f600282049050600182168061020757607f821691505b60208210810361021a576102196101c3565b5b50919050565b5f819050815f5260205f209050919050565b5f6020601f8301049050919050565b5f82821b905092915050565b5f6008830261027c7fffffffffffffffffffffffffffffffffffffffffffffffffffffffffffffffff82610241565b6102868683610241565b95508019841693508086168417925050509392505050565b5f819050919050565b5f819050919050565b5f6102ca6102c56102c08461029e565b6102a7565b61029e565b9050919050565b5f819050919050565b6102e3836102b0565b6102f76102ef826102d1565b84845461024d565b825550505050565b5f90565b61030b6102ff565b6103168184846102da565b505050565b5b818110156103395761032e5f82610303565b60018101905061031c565b5050565b601f82111561037e5761034f81610220565b61035884610232565b81016020851015610367578190505b61037b61037385610232565b83018261031b565b50505b505050565b5f82821c905092915050565b5f61039e5f1984600802610383565b1980831691505092915050565b5f6103b6838361038f565b9150826002028217905092915050565b6103cf8261018c565b67ffffffffffffffff8111156103e8576103e7610196565b5b6103f282546101f0565b6103fd82828561033d565b5f60209050601f83116001811461042e575f841561041c578287015190505b61042685826103ab565b86555061048d565b601f19841661043c86610220565b5f5b828110156104635784890151825560018201915060208501945060208101905061043e565b86831015610480578489015161047c601f89168261038f565b8355505b6001600288020188555050505b505050505050565b614819806104a25f395ff3fe6080604052600436106101c1575f3560e01c806370a08231116100f6578063a22cb46511610094578063e985e9c511610063578063e985e9c514610668578063f2fde38b146106a4578063f7e2aaab146106cc578063f8ea289d146106f4576101c1565b8063a22cb465146105a0578063b88d4fde146105c8578063c87b56dd146105f0578063d7fdf87b1461062c576101c1565b806387a07c58116100d057806387a07c58146104e75780638da5cb5b1461050f57806395d89b4114610539578063a15d6dff14610563576101c1565b806370a0823114610459578063715018a61461049557806376d3f0b0146104ab576101c1565b80633de5d0de116101635780634e10a9101161013d5780634e10a9101461039557806351ed8288146103bd5780636352211e146103d95780636874404614610415576101c1565b80633de5d0de146102f557806342842e0e1461033157806345f7b48f14610359576101c1565b8063095ea7b31161019f578063095ea7b31461026757806323b872dd1461028f57806331da524f146102b75780633ccfd60b146102df576101c1565b806301ffc9a7146101c557806306fdde0314610201578063081812fc1461022b575b5f80fd5b3480156101d0575f80fd5b506101eb60048036038101906101e69190612ceb565b610710565b6040516101f89190612d30565b60405180910390f35b34801561020c575f80fd5b506102156107f1565b6040516102229190612db9565b60405180910390f35b348015610236575f80fd5b50610251600480360381019061024c9190612e0c565b610880565b60405161025e9190612e76565b60405180910390f35b348015610272575f80fd5b5061028d60048036038101906102889190612eb9565b610901565b005b34801561029a575f80fd5b506102b560048036038101906102b09190612ef7565b610a17565b005b3480156102c2575f80fd5b506102dd60048036038101906102d89190612f47565b610a77565b005b3480156102ea575f80fd5b506102f3610bf2565b005b348015610300575f80fd5b5061031b60048036038101906103169190612e0c565b610d02565b6040516103289190612f94565b60405180910390f35b34801561033c575f80fd5b5061035760048036038101906103529190612ef7565b610d1f565b005b348015610364575f80fd5b5061037f600480360381019061037a9190612e0c565b610d3e565b60405161038c9190612f94565b60405180910390f35b3480156103a0575f80fd5b506103bb60048036038101906103b69190612e0c565b610d5b565b005b6103d760048036038101906103d29190612e0c565b610e8c565b005b3480156103e4575f80fd5b506103ff60048036038101906103fa9190612e0c565b61122c565b60405161040c9190612e76565b60405180910390f35b348015610420575f80fd5b5061043b60048036038101906104369190612e0c565b6112d8565b60405161045099989796959493929190612fad565b60405180910390f35b348015610464575f80fd5b5061047f600480360381019061047a9190613046565b61144d565b60405161048c9190612f94565b60405180910390f35b3480156104a0575f80fd5b506104a9611501565b005b3480156104b6575f80fd5b506104d160048036038101906104cc9190612f47565b611588565b6040516104de9190612f94565b60405180910390f35b3480156104f2575f80fd5b5061050d6004803603810190610508919061319d565b6115e1565b005b34801561051a575f80fd5b5061052361184d565b6040516105309190612e76565b60405180910390f35b348015610544575f80fd5b5061054d611875565b60405161055a9190612db9565b60405180910390f35b34801561056e575f80fd5b5061058960048036038101906105849190612e0c565b611905565b604051610597929190613286565b60405180910390f35b3480156105ab575f80fd5b506105c660048036038101906105c191906132d7565b611948565b005b3480156105d3575f80fd5b506105ee60048036038101906105e991906133b3565b611ac3565b005b3480156105fb575f80fd5b5061061660048036038101906106119190612e0c565b611b25565b6040516106239190612db9565b60405180910390f35b348015610637575f80fd5b50610652600480360381019061064d9190613433565b611bc9565b60405161065f9190612e76565b60405180910390f35b348015610673575f80fd5b5061068e60048036038101906106899190613471565b611c11565b60405161069b9190612d30565b60405180910390f35b3480156106af575f80fd5b506106ca60048036038101906106c59190613046565b611c9f565b005b3480156106d7575f80fd5b506106f260048036038101906106ed9190613433565b611d95565b005b61070e60048036038101906107099190612f47565b611f16565b005b5f7f80ac58cd000000000000000000000000000000000000000000000000000000007bffffffffffffffffffffffffffffffffffffffffffffffffffffffff1916827bffffffffffffffffffffffffffffffffffffffffffffffffffffffff191614806107da57507f5b5e139f000000000000000000000000000000000000000000000000000000007bffffffffffffffffffffffffffffffffffffffffffffffffffffffff1916827bffffffffffffffffffffffffffffffffffffffffffffffffffffffff1916145b806107ea57506107e982612229565b5b9050919050565b60605f80546107ff906134dc565b80601f016020809104026020016040519081016040528092919081815260200182805461082b906134dc565b80156108765780601f1061084d57610100808354040283529160200191610876565b820191905f5260205f20905b81548152906001019060200180831161085957829003601f168201915b5050505050905090565b5f61088a82612292565b6108c9576040517f08c379a00000000000000000000000000000000000000000000000000000000081526004016108c09061357c565b60405180910390fd5b60045f8381526020019081526020015f205f9054906101000a900473ffffffffffffffffffffffffffffffffffffffff169050919050565b5f61090b8261122c565b90508073ffffffffffffffffffffffffffffffffffffffff168373ffffffffffffffffffffffffffffffffffffffff160361097b576040517f08c379a00000000000000000000000000000000000000000000000000000000081526004016109729061360a565b60405180910390fd5b8073ffffffffffffffffffffffffffffffffffffffff1661099a6122fa565b73ffffffffffffffffffffffffffffffffffffffff1614806109c957506109c8816109c36122fa565b611c11565b5b610a08576040517f08c379a00000000000000000000000000000000000000000000000000000000081526004016109ff90613698565b60405180910390fd5b610a128383612301565b505050565b610a28610a226122fa565b826123b7565b610a67576040517f08c379a0000000000000000000000000000000000000000000000000000000008152600401610a5e90613726565b60405180910390fd5b610a7283838361244b565b505050565b610a8133836123b7565b610ac0576040517f08c379a0000000000000000000000000000000000000000000000000000000008152600401610ab79061378e565b60405180910390fd5b610acb33828461244b565b60075f8381526020019081526020015f206009015f3373ffffffffffffffffffffffffffffffffffffffff1673ffffffffffffffffffffffffffffffffffffffff1681526020019081526020015f205f815480929190610b2a906137d9565b919050555060075f8381526020019081526020015f206009015f8273ffffffffffffffffffffffffffffffffffffffff1673ffffffffffffffffffffffffffffffffffffffff1681526020019081526020015f205f815480929190610b8e90613800565b91905055508073ffffffffffffffffffffffffffffffffffffffff163373ffffffffffffffffffffffffffffffffffffffff16837f0f400230f2e1ee2b2f1c36df34259812aa6c9840577049f10f6427ef18496b6660405160405180910390a45050565b610bfa6122fa565b73ffffffffffffffffffffffffffffffffffffffff16610c1861184d565b73ffffffffffffffffffffffffffffffffffffffff1614610c6e576040517f08c379a0000000000000000000000000000000000000000000000000000000008152600401610c6590613891565b60405180910390fd5b5f4790505f8111610cb4576040517f08c379a0000000000000000000000000000000000000000000000000000000008152600401610cab906138f9565b60405180910390fd5b610cbc61184d565b73ffffffffffffffffffffffffffffffffffffffff166108fc8290811502906040515f60405180830381858888f19350505050158015610cfe573d5f803e3d5ffd5b5050565b5f60075f8381526020019081526020015f20600801549050919050565b610d3983838360405180602001604052805f815250611ac3565b505050565b5f60085f8381526020019081526020015f20805490509050919050565b610d6533826123b7565b610da4576040517f08c379a0000000000000000000000000000000000000000000000000000000008152600401610d9b9061378e565b60405180910390fd5b5f60075f8381526020019081526020015f206009015f3373ffffffffffffffffffffffffffffffffffffffff1673ffffffffffffffffffffffffffffffffffffffff1681526020019081526020015f205411610e35576040517f08c379a0000000000000000000000000000000000000000000000000000000008152600401610e2c90613961565b60405180910390fd5b5f60075f8381526020019081526020015f20600a015f3373ffffffffffffffffffffffffffffffffffffffff1673ffffffffffffffffffffffffffffffffffffffff1681526020019081526020015f208190555050565b5f60075f8381526020019081526020015f2090505f816005015411610ee6576040517f08c379a0000000000000000000000000000000000000000000000000000000008152600401610edd906139c9565b60405180910390fd5b8060050154341015610f2d576040517f08c379a0000000000000000000000000000000000000000000000000000000008152600401610f2490613a57565b60405180910390fd5b5f816004015411610f73576040517f08c379a0000000000000000000000000000000000000000000000000000000008152600401610f6a90613abf565b60405180910390fd5b5f82600954610f829190613add565b905060095f815480929190610f9690613800565b9190505550610fa5338261269b565b816009015f3373ffffffffffffffffffffffffffffffffffffffff1673ffffffffffffffffffffffffffffffffffffffff1681526020019081526020015f205f815480929190610ff490613800565b9190505550816008015f81548092919061100d90613800565b9190505550816004015f815480929190611026906137d9565b91905055505f6064836006015484600501546110429190613b10565b61104c9190613b7e565b9050826003015f9054906101000a900473ffffffffffffffffffffffffffffffffffffffff1673ffffffffffffffffffffffffffffffffffffffff166108fc8290811502906040515f60405180830381858888f193505050501580156110b4573d5f803e3d5ffd5b505f60085f8681526020019081526020015f2080549050148061116d57503373ffffffffffffffffffffffffffffffffffffffff1660085f8681526020019081526020015f20600160085f8881526020019081526020015f208054905061111b9190613bae565b8154811061112c5761112b613be1565b5b905f5260205f20015f9054906101000a900473ffffffffffffffffffffffffffffffffffffffff1673ffffffffffffffffffffffffffffffffffffffff1614155b156111e25760085f8581526020019081526020015f2033908060018154018082558091505060019003905f5260205f20015f9091909190916101000a81548173ffffffffffffffffffffffffffffffffffffffff021916908373ffffffffffffffffffffffffffffffffffffffff1602179055505b3373ffffffffffffffffffffffffffffffffffffffff16847fedd9780c911d132891b0d6c68f69e6d9086a0ddc83a683a5e62b5aed36e93eb660405160405180910390a350505050565b5f8060025f8481526020019081526020015f205f9054906101000a900473ffffffffffffffffffffffffffffffffffffffff1690505f73ffffffffffffffffffffffffffffffffffffffff168173ffffffffffffffffffffffffffffffffffffffff16036112cf576040517f08c379a00000000000000000000000000000000000000000000000000000000081526004016112c690613c7e565b60405180910390fd5b80915050919050565b6007602052805f5260405f205f91509050805f0154908060010180546112fd906134dc565b80601f0160208091040260200160405190810160405280929190818152602001828054611329906134dc565b80156113745780601f1061134b57610100808354040283529160200191611374565b820191905f5260205f20905b81548152906001019060200180831161135757829003601f168201915b505050505090806002018054611389906134dc565b80601f01602080910402602001604051908101604052809291908181526020018280546113b5906134dc565b80156114005780601f106113d757610100808354040283529160200191611400565b820191905f5260205f20905b8154815290600101906020018083116113e357829003601f168201915b505050505090806003015f9054906101000a900473ffffffffffffffffffffffffffffffffffffffff16908060040154908060050154908060060154908060070154908060080154905089565b5f8073ffffffffffffffffffffffffffffffffffffffff168273ffffffffffffffffffffffffffffffffffffffff16036114bc576040517f08c379a00000000000000000000000000000000000000000000000000000000081526004016114b390613d0c565b60405180910390fd5b60035f8373ffffffffffffffffffffffffffffffffffffffff1673ffffffffffffffffffffffffffffffffffffffff1681526020019081526020015f20549050919050565b6115096122fa565b73ffffffffffffffffffffffffffffffffffffffff1661152761184d565b73ffffffffffffffffffffffffffffffffffffffff161461157d576040517f08c379a000000000000000000000000000000000000000000000000000000000815260040161157490613891565b60405180910390fd5b6115865f61285f565b565b5f60075f8481526020019081526020015f20600a015f8373ffffffffffffffffffffffffffffffffffffffff1673ffffffffffffffffffffffffffffffffffffffff1681526020019081526020015f2054905092915050565b6115e96122fa565b73ffffffffffffffffffffffffffffffffffffffff1661160761184d565b73ffffffffffffffffffffffffffffffffffffffff161461165d576040517f08c379a000000000000000000000000000000000000000000000000000000000815260040161165490613891565b60405180910390fd5b5f60075f8a81526020019081526020015f205f0154146116b2576040517f08c379a00000000000000000000000000000000000000000000000000000000081526004016116a990613d74565b60405180910390fd5b60648211156116f6576040517f08c379a00000000000000000000000000000000000000000000000000000000081526004016116ed90613e02565b60405180910390fd5b606481111561173a576040517f08c379a000000000000000000000000000000000000000000000000000000000815260040161173190613e90565b60405180910390fd5b5f60075f8a81526020019081526020015f20905088815f018190555087816001019081611767919061404b565b5086816002019081611779919061404b565b5085816003015f6101000a81548173ffffffffffffffffffffffffffffffffffffffff021916908373ffffffffffffffffffffffffffffffffffffffff1602179055508481600401819055508381600501819055508281600601819055508181600701819055505f81600801819055508573ffffffffffffffffffffffffffffffffffffffff16897f1893284802f0a61fe7d064a2606acba9d2858b651d18a6da71f5b94dd9558fbd8a8a8989898960405161183a9695949392919061411a565b60405180910390a3505050505050505050565b5f60065f9054906101000a900473ffffffffffffffffffffffffffffffffffffffff16905090565b606060018054611884906134dc565b80601f01602080910402602001604051908101604052809291908181526020018280546118b0906134dc565b80156118fb5780601f106118d2576101008083540402835291602001916118fb565b820191905f5260205f20905b8154815290600101906020018083116118de57829003601f168201915b5050505050905090565b5f805f60075f8581526020019081526020015f2090505f816008015490505f826008015483600401546119389190613add565b9050818194509450505050915091565b6119506122fa565b73ffffffffffffffffffffffffffffffffffffffff168273ffffffffffffffffffffffffffffffffffffffff16036119bd576040517f08c379a00000000000000000000000000000000000000000000000000000000081526004016119b4906141d1565b60405180910390fd5b8060055f6119c96122fa565b73ffffffffffffffffffffffffffffffffffffffff1673ffffffffffffffffffffffffffffffffffffffff1681526020019081526020015f205f8473ffffffffffffffffffffffffffffffffffffffff1673ffffffffffffffffffffffffffffffffffffffff1681526020019081526020015f205f6101000a81548160ff0219169083151502179055508173ffffffffffffffffffffffffffffffffffffffff16611a726122fa565b73ffffffffffffffffffffffffffffffffffffffff167f17307eab39ab6107e8899845ad3d59bd9653f200f220920489ca2b5937696c3183604051611ab79190612d30565b60405180910390a35050565b611ad4611ace6122fa565b836123b7565b611b13576040517f08c379a0000000000000000000000000000000000000000000000000000000008152600401611b0a90613726565b60405180910390fd5b611b1f84848484612922565b50505050565b6060611b3082612292565b611b6f576040517f08c379a0000000000000000000000000000000000000000000000000000000008152600401611b669061425f565b60405180910390fd5b5f611b7861297e565b90505f815111611b965760405180602001604052805f815250611bc1565b80611ba084612994565b604051602001611bb19291906142b7565b6040516020818303038152906040525b915050919050565b6008602052815f5260405f208181548110611be2575f80fd5b905f5260205f20015f915091509054906101000a900473ffffffffffffffffffffffffffffffffffffffff1681565b5f60055f8473ffffffffffffffffffffffffffffffffffffffff1673ffffffffffffffffffffffffffffffffffffffff1681526020019081526020015f205f8373ffffffffffffffffffffffffffffffffffffffff1673ffffffffffffffffffffffffffffffffffffffff1681526020019081526020015f205f9054906101000a900460ff16905092915050565b611ca76122fa565b73ffffffffffffffffffffffffffffffffffffffff16611cc561184d565b73ffffffffffffffffffffffffffffffffffffffff1614611d1b576040517f08c379a0000000000000000000000000000000000000000000000000000000008152600401611d1290613891565b60405180910390fd5b5f73ffffffffffffffffffffffffffffffffffffffff168173ffffffffffffffffffffffffffffffffffffffff1603611d89576040517f08c379a0000000000000000000000000000000000000000000000000000000008152600401611d809061434a565b60405180910390fd5b611d928161285f565b50565b611d9f33836123b7565b611dde576040517f08c379a0000000000000000000000000000000000000000000000000000000008152600401611dd59061378e565b60405180910390fd5b5f60075f8481526020019081526020015f206009015f3373ffffffffffffffffffffffffffffffffffffffff1673ffffffffffffffffffffffffffffffffffffffff1681526020019081526020015f205411611e6f576040517f08c379a0000000000000000000000000000000000000000000000000000000008152600401611e6690613961565b60405180910390fd5b8060075f8481526020019081526020015f20600a015f3373ffffffffffffffffffffffffffffffffffffffff1673ffffffffffffffffffffffffffffffffffffffff1681526020019081526020015f20819055503373ffffffffffffffffffffffffffffffffffffffff16827fae66d491143d256b997cd8ac2fe7e7fc34f1759ae05540d15956a07c5a4c793c83604051611f0a9190612f94565b60405180910390a35050565b5f60075f8481526020019081526020015f20600a015f8373ffffffffffffffffffffffffffffffffffffffff1673ffffffffffffffffffffffffffffffffffffffff1681526020019081526020015f205490505f8111611fab576040517f08c379a0000000000000000000000000000000000000000000000000000000008152600401611fa2906143b2565b60405180910390fd5b80341015611fee576040517f08c379a0000000000000000000000000000000000000000000000000000000008152600401611fe590614440565b60405180910390fd5b611ff982338561244b565b60075f8481526020019081526020015f206009015f8373ffffffffffffffffffffffffffffffffffffffff1673ffffffffffffffffffffffffffffffffffffffff1681526020019081526020015f205f815480929190612058906137d9565b919050555060075f8481526020019081526020015f206009015f3373ffffffffffffffffffffffffffffffffffffffff1673ffffffffffffffffffffffffffffffffffffffff1681526020019081526020015f205f8154809291906120bc90613800565b91905055505f606460075f8681526020019081526020015f2060070154836120e49190613b10565b6120ee9190613b7e565b905060075f8581526020019081526020015f206003015f9054906101000a900473ffffffffffffffffffffffffffffffffffffffff1673ffffffffffffffffffffffffffffffffffffffff166108fc8290811502906040515f60405180830381858888f19350505050158015612166573d5f803e3d5ffd5b508273ffffffffffffffffffffffffffffffffffffffff166108fc823461218d9190613bae565b90811502906040515f60405180830381858888f193505050501580156121b5573d5f803e3d5ffd5b5060075f8581526020019081526020015f206008015f8154809291906121da90613800565b91905055503373ffffffffffffffffffffffffffffffffffffffff16847fedd9780c911d132891b0d6c68f69e6d9086a0ddc83a683a5e62b5aed36e93eb660405160405180910390a350505050565b5f7f01ffc9a7000000000000000000000000000000000000000000000000000000007bffffffffffffffffffffffffffffffffffffffffffffffffffffffff1916827bffffffffffffffffffffffffffffffffffffffffffffffffffffffff1916149050919050565b5f8073ffffffffffffffffffffffffffffffffffffffff1660025f8481526020019081526020015f205f9054906101000a900473ffffffffffffffffffffffffffffffffffffffff1673ffffffffffffffffffffffffffffffffffffffff1614159050919050565b5f33905090565b8160045f8381526020019081526020015f205f6101000a81548173ffffffffffffffffffffffffffffffffffffffff021916908373ffffffffffffffffffffffffffffffffffffffff160217905550808273ffffffffffffffffffffffffffffffffffffffff166123718361122c565b73ffffffffffffffffffffffffffffffffffffffff167f8c5be1e5ebec7d5bd14f71427d1e84f3dd0314c0f7b2291e5b200ac8c7c3b92560405160405180910390a45050565b5f806123c28361122c565b90508073ffffffffffffffffffffffffffffffffffffffff168473ffffffffffffffffffffffffffffffffffffffff16148061240457506124038185611c11565b5b8061244257508373ffffffffffffffffffffffffffffffffffffffff1661242a84610880565b73ffffffffffffffffffffffffffffffffffffffff16145b91505092915050565b8273ffffffffffffffffffffffffffffffffffffffff1661246b8261122c565b73ffffffffffffffffffffffffffffffffffffffff16146124c1576040517f08c379a00000000000000000000000000000000000000000000000000000000081526004016124b8906144ce565b60405180910390fd5b5f73ffffffffffffffffffffffffffffffffffffffff168273ffffffffffffffffffffffffffffffffffffffff160361252f576040517f08c379a00000000000000000000000000000000000000000000000000000000081526004016125269061455c565b60405180910390fd5b61253a838383612aed565b6125445f82612301565b600160035f8573ffffffffffffffffffffffffffffffffffffffff1673ffffffffffffffffffffffffffffffffffffffff1681526020019081526020015f205f8282546125919190613bae565b92505081905550600160035f8473ffffffffffffffffffffffffffffffffffffffff1673ffffffffffffffffffffffffffffffffffffffff1681526020019081526020015f205f8282546125e59190613add565b925050819055508160025f8381526020019081526020015f205f6101000a81548173ffffffffffffffffffffffffffffffffffffffff021916908373ffffffffffffffffffffffffffffffffffffffff160217905550808273ffffffffffffffffffffffffffffffffffffffff168473ffffffffffffffffffffffffffffffffffffffff167fddf252ad1be2c89b69c2b068fc378daa952ba7f163c4a11628f55a4df523b3ef60405160405180910390a4505050565b5f73ffffffffffffffffffffffffffffffffffffffff168273ffffffffffffffffffffffffffffffffffffffff1603612709576040517f08c379a0000000000000000000000000000000000000000000000000000000008152600401612700906145c4565b60405180910390fd5b61271281612292565b15612752576040517f08c379a00000000000000000000000000000000000000000000000000000000081526004016127499061462c565b60405180910390fd5b61275d5f8383612aed565b600160035f8473ffffffffffffffffffffffffffffffffffffffff1673ffffffffffffffffffffffffffffffffffffffff1681526020019081526020015f205f8282546127aa9190613add565b925050819055508160025f8381526020019081526020015f205f6101000a81548173ffffffffffffffffffffffffffffffffffffffff021916908373ffffffffffffffffffffffffffffffffffffffff160217905550808273ffffffffffffffffffffffffffffffffffffffff165f73ffffffffffffffffffffffffffffffffffffffff167fddf252ad1be2c89b69c2b068fc378daa952ba7f163c4a11628f55a4df523b3ef60405160405180910390a45050565b5f60065f9054906101000a900473ffffffffffffffffffffffffffffffffffffffff1690508160065f6101000a81548173ffffffffffffffffffffffffffffffffffffffff021916908373ffffffffffffffffffffffffffffffffffffffff1602179055508173ffffffffffffffffffffffffffffffffffffffff168173ffffffffffffffffffffffffffffffffffffffff167f8be0079c531659141344cd1fd0a4f28419497f9722a3daafe3b4186f6b6457e060405160405180910390a35050565b61292d84848461244b565b61293984848484612af2565b612978576040517f08c379a000000000000000000000000000000000000000000000000000000000815260040161296f906146ba565b60405180910390fd5b50505050565b606060405180602001604052805f815250905090565b60605f82036129da576040518060400160405280600181526020017f30000000000000000000000000000000000000000000000000000000000000008152509050612ae8565b5f8290505f5b5f8214612a095780806129f290613800565b915050600a82612a029190613b7e565b91506129e0565b5f8167ffffffffffffffff811115612a2457612a23613079565b5b6040519080825280601f01601f191660200182016040528015612a565781602001600182028036833780820191505090505b5090505b5f8514612ae157600182612a6e9190613bae565b9150600a85612a7d91906146d8565b6030612a899190613add565b60f81b818381518110612a9f57612a9e613be1565b5b60200101907effffffffffffffffffffffffffffffffffffffffffffffffffffffffffffff191690815f1a905350600a85612ada9190613b7e565b9450612a5a565b8093505050505b919050565b505050565b5f612b128473ffffffffffffffffffffffffffffffffffffffff16612c74565b15612c67578373ffffffffffffffffffffffffffffffffffffffff1663150b7a02612b3b6122fa565b8786866040518563ffffffff1660e01b8152600401612b5d949392919061475a565b6020604051808303815f875af1925050508015612b9857506040513d601f19601f82011682018060405250810190612b9591906147b8565b60015b612c17573d805f8114612bc6576040519150601f19603f3d011682016040523d82523d5f602084013e612bcb565b606091505b505f815103612c0f576040517f08c379a0000000000000000000000000000000000000000000000000000000008152600401612c06906146ba565b60405180910390fd5b805181602001fd5b63150b7a0260e01b7bffffffffffffffffffffffffffffffffffffffffffffffffffffffff1916817bffffffffffffffffffffffffffffffffffffffffffffffffffffffff191614915050612c6c565b600190505b949350505050565b5f80823b90505f8111915050919050565b5f604051905090565b5f80fd5b5f80fd5b5f7fffffffff0000000000000000000000000000000000000000000000000000000082169050919050565b612cca81612c96565b8114612cd4575f80fd5b50565b5f81359050612ce581612cc1565b92915050565b5f60208284031215612d0057612cff612c8e565b5b5f612d0d84828501612cd7565b91505092915050565b5f8115159050919050565b612d2a81612d16565b82525050565b5f602082019050612d435f830184612d21565b92915050565b5f81519050919050565b5f82825260208201905092915050565b8281835e5f83830152505050565b5f601f19601f8301169050919050565b5f612d8b82612d49565b612d958185612d53565b9350612da5818560208601612d63565b612dae81612d71565b840191505092915050565b5f6020820190508181035f830152612dd18184612d81565b905092915050565b5f819050919050565b612deb81612dd9565b8114612df5575f80fd5b50565b5f81359050612e0681612de2565b92915050565b5f60208284031215612e2157612e20612c8e565b5b5f612e2e84828501612df8565b91505092915050565b5f73ffffffffffffffffffffffffffffffffffffffff82169050919050565b5f612e6082612e37565b9050919050565b612e7081612e56565b82525050565b5f602082019050612e895f830184612e67565b92915050565b612e9881612e56565b8114612ea2575f80fd5b50565b5f81359050612eb381612e8f565b92915050565b5f8060408385031215612ecf57612ece612c8e565b5b5f612edc85828601612ea5565b9250506020612eed85828601612df8565b9150509250929050565b5f805f60608486031215612f0e57612f0d612c8e565b5b5f612f1b86828701612ea5565b9350506020612f2c86828701612ea5565b9250506040612f3d86828701612df8565b9150509250925092565b5f8060408385031215612f5d57612f5c612c8e565b5b5f612f6a85828601612df8565b9250506020612f7b85828601612ea5565b9150509250929050565b612f8e81612dd9565b82525050565b5f602082019050612fa75f830184612f85565b92915050565b5f61012082019050612fc15f83018c612f85565b8181036020830152612fd3818b612d81565b90508181036040830152612fe7818a612d81565b9050612ff66060830189612e67565b6130036080830188612f85565b61301060a0830187612f85565b61301d60c0830186612f85565b61302a60e0830185612f85565b613038610100830184612f85565b9a9950505050505050505050565b5f6020828403121561305b5761305a612c8e565b5b5f61306884828501612ea5565b91505092915050565b5f80fd5b5f80fd5b7f4e487b71000000000000000000000000000000000000000000000000000000005f52604160045260245ffd5b6130af82612d71565b810181811067ffffffffffffffff821117156130ce576130cd613079565b5b80604052505050565b5f6130e0612c85565b90506130ec82826130a6565b919050565b5f67ffffffffffffffff82111561310b5761310a613079565b5b61311482612d71565b9050602081019050919050565b828183375f83830152505050565b5f61314161313c846130f1565b6130d7565b90508281526020810184848401111561315d5761315c613075565b5b613168848285613121565b509392505050565b5f82601f83011261318457613183613071565b5b813561319484826020860161312f565b91505092915050565b5f805f805f805f80610100898b0312156131ba576131b9612c8e565b5b5f6131c78b828c01612df8565b985050602089013567ffffffffffffffff8111156131e8576131e7612c92565b5b6131f48b828c01613170565b975050604089013567ffffffffffffffff81111561321557613214612c92565b5b6132218b828c01613170565b96505060606132328b828c01612ea5565b95505060806132438b828c01612df8565b94505060a06132548b828c01612df8565b93505060c06132658b828c01612df8565b92505060e06132768b828c01612df8565b9150509295985092959890939650565b5f6040820190506132995f830185612f85565b6132a66020830184612f85565b9392505050565b6132b681612d16565b81146132c0575f80fd5b50565b5f813590506132d1816132ad565b92915050565b5f80604083850312156132ed576132ec612c8e565b5b5f6132fa85828601612ea5565b925050602061330b858286016132c3565b9150509250929050565b5f67ffffffffffffffff82111561332f5761332e613079565b5b61333882612d71565b9050602081019050919050565b5f61335761335284613315565b6130d7565b90508281526020810184848401111561337357613372613075565b5b61337e848285613121565b509392505050565b5f82601f83011261339a57613399613071565b5b81356133aa848260208601613345565b91505092915050565b5f805f80608085870312156133cb576133ca612c8e565b5b5f6133d887828801612ea5565b94505060206133e987828801612ea5565b93505060406133fa87828801612df8565b925050606085013567ffffffffffffffff81111561341b5761341a612c92565b5b61342787828801613386565b91505092959194509250565b5f806040838503121561344957613448612c8e565b5b5f61345685828601612df8565b925050602061346785828601612df8565b9150509250929050565b5f806040838503121561348757613486612c8e565b5b5f61349485828601612ea5565b92505060206134a585828601612ea5565b9150509250929050565b7f4e487b71000000000000000000000000000000000000000000000000000000005f52602260045260245ffd5b5f60028204905060018216806134f357607f821691505b602082108103613506576135056134af565b5b50919050565b7f4552433732313a20617070726f76656420717565727920666f72206e6f6e65785f8201527f697374656e7420746f6b656e0000000000000000000000000000000000000000602082015250565b5f613566602c83612d53565b91506135718261350c565b604082019050919050565b5f6020820190508181035f8301526135938161355a565b9050919050565b7f4552433732313a20617070726f76616c20746f2063757272656e74206f776e655f8201527f7200000000000000000000000000000000000000000000000000000000000000602082015250565b5f6135f4602183612d53565b91506135ff8261359a565b604082019050919050565b5f6020820190508181035f830152613621816135e8565b9050919050565b7f4552433732313a20617070726f76652063616c6c6572206973206e6f74206f775f8201527f6e6572206e6f7220617070726f76656420666f7220616c6c0000000000000000602082015250565b5f613682603883612d53565b915061368d82613628565b604082019050919050565b5f6020820190508181035f8301526136af81613676565b9050919050565b7f4552433732313a207472616e736665722063616c6c6572206973206e6f74206f5f8201527f776e6572206e6f7220617070726f766564000000000000000000000000000000602082015250565b5f613710603183612d53565b915061371b826136b6565b604082019050919050565b5f6020820190508181035f83015261373d81613704565b9050919050565b7f4e6f7420746865206f776e6572206f7220617070726f766564000000000000005f82015250565b5f613778601983612d53565b915061378382613744565b602082019050919050565b5f6020820190508181035f8301526137a58161376c565b9050919050565b7f4e487b71000000000000000000000000000000000000000000000000000000005f52601160045260245ffd5b5f6137e382612dd9565b91505f82036137f5576137f46137ac565b5b600182039050919050565b5f61380a82612dd9565b91507fffffffffffffffffffffffffffffffffffffffffffffffffffffffffffffffff820361383c5761383b6137ac565b5b600182019050919050565b7f4f776e61626c653a2063616c6c6572206973206e6f7420746865206f776e65725f82015250565b5f61387b602083612d53565b915061388682613847565b602082019050919050565b5f6020820190508181035f8301526138a88161386f565b9050919050565b7f4e6f2066756e647320746f2077697468647261770000000000000000000000005f82015250565b5f6138e3601483612d53565b91506138ee826138af565b602082019050919050565b5f6020820190508181035f830152613910816138d7565b9050919050565b7f596f7520646f6e2774206f776e2074686973204e4654000000000000000000005f82015250565b5f61394b601683612d53565b915061395682613917565b602082019050919050565b5f6020820190508181035f8301526139788161393f565b9050919050565b7f5072696365206e6f742073657420666f722074686973204e46540000000000005f82015250565b5f6139b3601a83612d53565b91506139be8261397f565b602082019050919050565b5f6020820190508181035f8301526139e0816139a7565b9050919050565b7f496e73756666696369656e742066756e647320746f2062757920746865204e465f8201527f5400000000000000000000000000000000000000000000000000000000000000602082015250565b5f613a41602183612d53565b9150613a4c826139e7565b604082019050919050565b5f6020820190508181035f830152613a6e81613a35565b9050919050565b7f4e6f20737570706c7920617661696c61626c65000000000000000000000000005f82015250565b5f613aa9601383612d53565b9150613ab482613a75565b602082019050919050565b5f6020820190508181035f830152613ad681613a9d565b9050919050565b5f613ae782612dd9565b9150613af283612dd9565b9250828201905080821115613b0a57613b096137ac565b5b92915050565b5f613b1a82612dd9565b9150613b2583612dd9565b9250828202613b3381612dd9565b91508282048414831517613b4a57613b496137ac565b5b5092915050565b7f4e487b71000000000000000000000000000000000000000000000000000000005f52601260045260245ffd5b5f613b8882612dd9565b9150613b9383612dd9565b925082613ba357613ba2613b51565b5b828204905092915050565b5f613bb882612dd9565b9150613bc383612dd9565b9250828203905081811115613bdb57613bda6137ac565b5b92915050565b7f4e487b71000000000000000000000000000000000000000000000000000000005f52603260045260245ffd5b7f4552433732313a206f776e657220717565727920666f72206e6f6e65786973745f8201527f656e7420746f6b656e0000000000000000000000000000000000000000000000602082015250565b5f613c68602983612d53565b9150613c7382613c0e565b604082019050919050565b5f6020820190508181035f830152613c9581613c5c565b9050919050565b7f4552433732313a2062616c616e636520717565727920666f7220746865207a655f8201527f726f206164647265737300000000000000000000000000000000000000000000602082015250565b5f613cf6602a83612d53565b9150613d0182613c9c565b604082019050919050565b5f6020820190508181035f830152613d2381613cea565b9050919050565b7f426f6f6b20494420616c726561647920657869737473000000000000000000005f82015250565b5f613d5e601683612d53565b9150613d6982613d2a565b602082019050919050565b5f6020820190508181035f830152613d8b81613d52565b9050919050565b7f496e697469616c20726f79616c7479206d757374206265206265747765656e205f8201527f3020616e64203130300000000000000000000000000000000000000000000000602082015250565b5f613dec602983612d53565b9150613df782613d92565b604082019050919050565b5f6020820190508181035f830152613e1981613de0565b9050919050565b7f526573616c6520726f79616c7479206d757374206265206265747765656e20305f8201527f20616e6420313030000000000000000000000000000000000000000000000000602082015250565b5f613e7a602883612d53565b9150613e8582613e20565b604082019050919050565b5f6020820190508181035f830152613ea781613e6e565b9050919050565b5f819050815f5260205f209050919050565b5f6020601f8301049050919050565b5f82821b905092915050565b5f60088302613f0a7fffffffffffffffffffffffffffffffffffffffffffffffffffffffffffffffff82613ecf565b613f148683613ecf565b95508019841693508086168417925050509392505050565b5f819050919050565b5f613f4f613f4a613f4584612dd9565b613f2c565b612dd9565b9050919050565b5f819050919050565b613f6883613f35565b613f7c613f7482613f56565b848454613edb565b825550505050565b5f90565b613f90613f84565b613f9b818484613f5f565b505050565b5b81811015613fbe57613fb35f82613f88565b600181019050613fa1565b5050565b601f82111561400357613fd481613eae565b613fdd84613ec0565b81016020851015613fec578190505b614000613ff885613ec0565b830182613fa0565b50505b505050565b5f82821c905092915050565b5f6140235f1984600802614008565b1980831691505092915050565b5f61403b8383614014565b9150826002028217905092915050565b61405482612d49565b67ffffffffffffffff81111561406d5761406c613079565b5b61407782546134dc565b614082828285613fc2565b5f60209050601f8311600181146140b3575f84156140a1578287015190505b6140ab8582614030565b865550614112565b601f1984166140c186613eae565b5f5b828110156140e8578489015182556001820191506020850194506020810190506140c3565b868310156141055784890151614101601f891682614014565b8355505b6001600288020188555050505b505050505050565b5f60c0820190508181035f8301526141328189612d81565b905081810360208301526141468188612d81565b90506141556040830187612f85565b6141626060830186612f85565b61416f6080830185612f85565b61417c60a0830184612f85565b979650505050505050565b7f4552433732313a20617070726f766520746f2063616c6c6572000000000000005f82015250565b5f6141bb601983612d53565b91506141c682614187565b602082019050919050565b5f6020820190508181035f8301526141e8816141af565b9050919050565b7f4552433732314d657461646174613a2055524920717565727920666f72206e6f5f8201527f6e6578697374656e7420746f6b656e0000000000000000000000000000000000602082015250565b5f614249602f83612d53565b9150614254826141ef565b604082019050919050565b5f6020820190508181035f8301526142768161423d565b9050919050565b5f81905092915050565b5f61429182612d49565b61429b818561427d565b93506142ab818560208601612d63565b80840191505092915050565b5f6142c28285614287565b91506142ce8284614287565b91508190509392505050565b7f4f776e61626c653a206e6577206f776e657220697320746865207a65726f20615f8201527f6464726573730000000000000000000000000000000000000000000000000000602082015250565b5f614334602683612d53565b915061433f826142da565b604082019050919050565b5f6020820190508181035f83015261436181614328565b9050919050565b7f54686973204e4654206973206e6f7420666f722073616c6500000000000000005f82015250565b5f61439c601883612d53565b91506143a782614368565b602082019050919050565b5f6020820190508181035f8301526143c981614390565b9050919050565b7f496e73756666696369656e742066756e647320746f20627579207468652072655f8201527f73616c65204e4654000000000000000000000000000000000000000000000000602082015250565b5f61442a602883612d53565b9150614435826143d0565b604082019050919050565b5f6020820190508181035f8301526144578161441e565b9050919050565b7f4552433732313a207472616e73666572206f6620746f6b656e207468617420695f8201527f73206e6f74206f776e0000000000000000000000000000000000000000000000602082015250565b5f6144b8602983612d53565b91506144c38261445e565b604082019050919050565b5f6020820190508181035f8301526144e5816144ac565b9050919050565b7f4552433732313a207472616e7366657220746f20746865207a65726f206164645f8201527f7265737300000000000000000000000000000000000000000000000000000000602082015250565b5f614546602483612d53565b9150614551826144ec565b604082019050919050565b5f6020820190508181035f8301526145738161453a565b9050919050565b7f4552433732313a206d696e7420746f20746865207a65726f20616464726573735f82015250565b5f6145ae602083612d53565b91506145b98261457a565b602082019050919050565b5f6020820190508181035f8301526145db816145a2565b9050919050565b7f4552433732313a20746f6b656e20616c7265616479206d696e746564000000005f82015250565b5f614616601c83612d53565b9150614621826145e2565b602082019050919050565b5f6020820190508181035f8301526146438161460a565b9050919050565b7f4552433732313a207472616e7366657220746f206e6f6e2045524337323152655f8201527f63656976657220696d706c656d656e7465720000000000000000000000000000602082015250565b5f6146a4603283612d53565b91506146af8261464a565b604082019050919050565b5f6020820190508181035f8301526146d181614698565b9050919050565b5f6146e282612dd9565b91506146ed83612dd9565b9250826146fd576146fc613b51565b5b828206905092915050565b5f81519050919050565b5f82825260208201905092915050565b5f61472c82614708565b6147368185614712565b9350614746818560208601612d63565b61474f81612d71565b840191505092915050565b5f60808201905061476d5f830187612e67565b61477a6020830186612e67565b6147876040830185612f85565b81810360608301526147998184614722565b905095945050505050565b5f815190506147b281612cc1565b92915050565b5f602082840312156147cd576147cc612c8e565b5b5f6147da848285016147a4565b9150509291505056fea2646970667358221220f4facc2cbf947c14c6a2566a402ed9d9414035a4ad7829992433f9a2ca510e9764736f6c634300081a0033",
			"opcodes": "PUSH1 0x80 PUSH1 0x40 MSTORE PUSH0 PUSH1 0x9 SSTORE CALLVALUE DUP1 ISZERO PUSH2 0x13 JUMPI PUSH0 DUP1 REVERT JUMPDEST POP PUSH1 0x40 MLOAD DUP1 PUSH1 0x40 ADD PUSH1 0x40 MSTORE DUP1 PUSH1 0xB DUP2 MSTORE PUSH1 0x20 ADD PUSH32 0x47617468626F6F6B4E4654000000000000000000000000000000000000000000 DUP2 MSTORE POP PUSH1 0x40 MLOAD DUP1 PUSH1 0x40 ADD PUSH1 0x40 MSTORE DUP1 PUSH1 0x5 DUP2 MSTORE PUSH1 0x20 ADD PUSH32 0x47424F4F4B000000000000000000000000000000000000000000000000000000 DUP2 MSTORE POP DUP2 PUSH0 SWAP1 DUP2 PUSH2 0x8E SWAP2 SWAP1 PUSH2 0x3C6 JUMP JUMPDEST POP DUP1 PUSH1 0x1 SWAP1 DUP2 PUSH2 0x9E SWAP2 SWAP1 PUSH2 0x3C6 JUMP JUMPDEST POP POP POP PUSH2 0xBD PUSH2 0xB2 PUSH2 0xC2 PUSH1 0x20 SHL PUSH1 0x20 SHR JUMP JUMPDEST PUSH2 0xC9 PUSH1 0x20 SHL PUSH1 0x20 SHR JUMP JUMPDEST PUSH2 0x495 JUMP JUMPDEST PUSH0 CALLER SWAP1 POP SWAP1 JUMP JUMPDEST PUSH0 PUSH1 0x6 PUSH0 SWAP1 SLOAD SWAP1 PUSH2 0x100 EXP SWAP1 DIV PUSH20 0xFFFFFFFFFFFFFFFFFFFFFFFFFFFFFFFFFFFFFFFF AND SWAP1 POP DUP2 PUSH1 0x6 PUSH0 PUSH2 0x100 EXP DUP2 SLOAD DUP2 PUSH20 0xFFFFFFFFFFFFFFFFFFFFFFFFFFFFFFFFFFFFFFFF MUL NOT AND SWAP1 DUP4 PUSH20 0xFFFFFFFFFFFFFFFFFFFFFFFFFFFFFFFFFFFFFFFF AND MUL OR SWAP1 SSTORE POP DUP2 PUSH20 0xFFFFFFFFFFFFFFFFFFFFFFFFFFFFFFFFFFFFFFFF AND DUP2 PUSH20 0xFFFFFFFFFFFFFFFFFFFFFFFFFFFFFFFFFFFFFFFF AND PUSH32 0x8BE0079C531659141344CD1FD0A4F28419497F9722A3DAAFE3B4186F6B6457E0 PUSH1 0x40 MLOAD PUSH1 0x40 MLOAD DUP1 SWAP2 SUB SWAP1 LOG3 POP POP JUMP JUMPDEST PUSH0 DUP2 MLOAD SWAP1 POP SWAP2 SWAP1 POP JUMP JUMPDEST PUSH32 0x4E487B7100000000000000000000000000000000000000000000000000000000 PUSH0 MSTORE PUSH1 0x41 PUSH1 0x4 MSTORE PUSH1 0x24 PUSH0 REVERT JUMPDEST PUSH32 0x4E487B7100000000000000000000000000000000000000000000000000000000 PUSH0 MSTORE PUSH1 0x22 PUSH1 0x4 MSTORE PUSH1 0x24 PUSH0 REVERT JUMPDEST PUSH0 PUSH1 0x2 DUP3 DIV SWAP1 POP PUSH1 0x1 DUP3 AND DUP1 PUSH2 0x207 JUMPI PUSH1 0x7F DUP3 AND SWAP2 POP JUMPDEST PUSH1 0x20 DUP3 LT DUP2 SUB PUSH2 0x21A JUMPI PUSH2 0x219 PUSH2 0x1C3 JUMP JUMPDEST JUMPDEST POP SWAP2 SWAP1 POP JUMP JUMPDEST PUSH0 DUP2 SWAP1 POP DUP2 PUSH0 MSTORE PUSH1 0x20 PUSH0 KECCAK256 SWAP1 POP SWAP2 SWAP1 POP JUMP JUMPDEST PUSH0 PUSH1 0x20 PUSH1 0x1F DUP4 ADD DIV SWAP1 POP SWAP2 SWAP1 POP JUMP JUMPDEST PUSH0 DUP3 DUP3 SHL SWAP1 POP SWAP3 SWAP2 POP POP JUMP JUMPDEST PUSH0 PUSH1 0x8 DUP4 MUL PUSH2 0x27C PUSH32 0xFFFFFFFFFFFFFFFFFFFFFFFFFFFFFFFFFFFFFFFFFFFFFFFFFFFFFFFFFFFFFFFF DUP3 PUSH2 0x241 JUMP JUMPDEST PUSH2 0x286 DUP7 DUP4 PUSH2 0x241 JUMP JUMPDEST SWAP6 POP DUP1 NOT DUP5 AND SWAP4 POP DUP1 DUP7 AND DUP5 OR SWAP3 POP POP POP SWAP4 SWAP3 POP POP POP JUMP JUMPDEST PUSH0 DUP2 SWAP1 POP SWAP2 SWAP1 POP JUMP JUMPDEST PUSH0 DUP2 SWAP1 POP SWAP2 SWAP1 POP JUMP JUMPDEST PUSH0 PUSH2 0x2CA PUSH2 0x2C5 PUSH2 0x2C0 DUP5 PUSH2 0x29E JUMP JUMPDEST PUSH2 0x2A7 JUMP JUMPDEST PUSH2 0x29E JUMP JUMPDEST SWAP1 POP SWAP2 SWAP1 POP JUMP JUMPDEST PUSH0 DUP2 SWAP1 POP SWAP2 SWAP1 POP JUMP JUMPDEST PUSH2 0x2E3 DUP4 PUSH2 0x2B0 JUMP JUMPDEST PUSH2 0x2F7 PUSH2 0x2EF DUP3 PUSH2 0x2D1 JUMP JUMPDEST DUP5 DUP5 SLOAD PUSH2 0x24D JUMP JUMPDEST DUP3 SSTORE POP POP POP POP JUMP JUMPDEST PUSH0 SWAP1 JUMP JUMPDEST PUSH2 0x30B PUSH2 0x2FF JUMP JUMPDEST PUSH2 0x316 DUP2 DUP5 DUP5 PUSH2 0x2DA JUMP JUMPDEST POP POP POP JUMP JUMPDEST JUMPDEST DUP2 DUP2 LT ISZERO PUSH2 0x339 JUMPI PUSH2 0x32E PUSH0 DUP3 PUSH2 0x303 JUMP JUMPDEST PUSH1 0x1 DUP2 ADD SWAP1 POP PUSH2 0x31C JUMP JUMPDEST POP POP JUMP JUMPDEST PUSH1 0x1F DUP3 GT ISZERO PUSH2 0x37E JUMPI PUSH2 0x34F DUP2 PUSH2 0x220 JUMP JUMPDEST PUSH2 0x358 DUP5 PUSH2 0x232 JUMP JUMPDEST DUP2 ADD PUSH1 0x20 DUP6 LT ISZERO PUSH2 0x367 JUMPI DUP2 SWAP1 POP JUMPDEST PUSH2 0x37B PUSH2 0x373 DUP6 PUSH2 0x232 JUMP JUMPDEST DUP4 ADD DUP3 PUSH2 0x31B JUMP JUMPDEST POP POP JUMPDEST POP POP POP JUMP JUMPDEST PUSH0 DUP3 DUP3 SHR SWAP1 POP SWAP3 SWAP2 POP POP JUMP JUMPDEST PUSH0 PUSH2 0x39E PUSH0 NOT DUP5 PUSH1 0x8 MUL PUSH2 0x383 JUMP JUMPDEST NOT DUP1 DUP4 AND SWAP2 POP POP SWAP3 SWAP2 POP POP JUMP JUMPDEST PUSH0 PUSH2 0x3B6 DUP4 DUP4 PUSH2 0x38F JUMP JUMPDEST SWAP2 POP DUP3 PUSH1 0x2 MUL DUP3 OR SWAP1 POP SWAP3 SWAP2 POP POP JUMP JUMPDEST PUSH2 0x3CF DUP3 PUSH2 0x18C JUMP JUMPDEST PUSH8 0xFFFFFFFFFFFFFFFF DUP2 GT ISZERO PUSH2 0x3E8 JUMPI PUSH2 0x3E7 PUSH2 0x196 JUMP JUMPDEST JUMPDEST PUSH2 0x3F2 DUP3 SLOAD PUSH2 0x1F0 JUMP JUMPDEST PUSH2 0x3FD DUP3 DUP3 DUP6 PUSH2 0x33D JUMP JUMPDEST PUSH0 PUSH1 0x20 SWAP1 POP PUSH1 0x1F DUP4 GT PUSH1 0x1 DUP2 EQ PUSH2 0x42E JUMPI PUSH0 DUP5 ISZERO PUSH2 0x41C JUMPI DUP3 DUP8 ADD MLOAD SWAP1 POP JUMPDEST PUSH2 0x426 DUP6 DUP3 PUSH2 0x3AB JUMP JUMPDEST DUP7 SSTORE POP PUSH2 0x48D JUMP JUMPDEST PUSH1 0x1F NOT DUP5 AND PUSH2 0x43C DUP7 PUSH2 0x220 JUMP JUMPDEST PUSH0 JUMPDEST DUP3 DUP2 LT ISZERO PUSH2 0x463 JUMPI DUP5 DUP10 ADD MLOAD DUP3 SSTORE PUSH1 0x1 DUP3 ADD SWAP2 POP PUSH1 0x20 DUP6 ADD SWAP5 POP PUSH1 0x20 DUP2 ADD SWAP1 POP PUSH2 0x43E JUMP JUMPDEST DUP7 DUP4 LT ISZERO PUSH2 0x480 JUMPI DUP5 DUP10 ADD MLOAD PUSH2 0x47C PUSH1 0x1F DUP10 AND DUP3 PUSH2 0x38F JUMP JUMPDEST DUP4 SSTORE POP JUMPDEST PUSH1 0x1 PUSH1 0x2 DUP9 MUL ADD DUP9 SSTORE POP POP POP JUMPDEST POP POP POP POP POP POP JUMP JUMPDEST PUSH2 0x4819 DUP1 PUSH2 0x4A2 PUSH0 CODECOPY PUSH0 RETURN INVALID PUSH1 0x80 PUSH1 0x40 MSTORE PUSH1 0x4 CALLDATASIZE LT PUSH2 0x1C1 JUMPI PUSH0 CALLDATALOAD PUSH1 0xE0 SHR DUP1 PUSH4 0x70A08231 GT PUSH2 0xF6 JUMPI DUP1 PUSH4 0xA22CB465 GT PUSH2 0x94 JUMPI DUP1 PUSH4 0xE985E9C5 GT PUSH2 0x63 JUMPI DUP1 PUSH4 0xE985E9C5 EQ PUSH2 0x668 JUMPI DUP1 PUSH4 0xF2FDE38B EQ PUSH2 0x6A4 JUMPI DUP1 PUSH4 0xF7E2AAAB EQ PUSH2 0x6CC JUMPI DUP1 PUSH4 0xF8EA289D EQ PUSH2 0x6F4 JUMPI PUSH2 0x1C1 JUMP JUMPDEST DUP1 PUSH4 0xA22CB465 EQ PUSH2 0x5A0 JUMPI DUP1 PUSH4 0xB88D4FDE EQ PUSH2 0x5C8 JUMPI DUP1 PUSH4 0xC87B56DD EQ PUSH2 0x5F0 JUMPI DUP1 PUSH4 0xD7FDF87B EQ PUSH2 0x62C JUMPI PUSH2 0x1C1 JUMP JUMPDEST DUP1 PUSH4 0x87A07C58 GT PUSH2 0xD0 JUMPI DUP1 PUSH4 0x87A07C58 EQ PUSH2 0x4E7 JUMPI DUP1 PUSH4 0x8DA5CB5B EQ PUSH2 0x50F JUMPI DUP1 PUSH4 0x95D89B41 EQ PUSH2 0x539 JUMPI DUP1 PUSH4 0xA15D6DFF EQ PUSH2 0x563 JUMPI PUSH2 0x1C1 JUMP JUMPDEST DUP1 PUSH4 0x70A08231 EQ PUSH2 0x459 JUMPI DUP1 PUSH4 0x715018A6 EQ PUSH2 0x495 JUMPI DUP1 PUSH4 0x76D3F0B0 EQ PUSH2 0x4AB JUMPI PUSH2 0x1C1 JUMP JUMPDEST DUP1 PUSH4 0x3DE5D0DE GT PUSH2 0x163 JUMPI DUP1 PUSH4 0x4E10A910 GT PUSH2 0x13D JUMPI DUP1 PUSH4 0x4E10A910 EQ PUSH2 0x395 JUMPI DUP1 PUSH4 0x51ED8288 EQ PUSH2 0x3BD JUMPI DUP1 PUSH4 0x6352211E EQ PUSH2 0x3D9 JUMPI DUP1 PUSH4 0x68744046 EQ PUSH2 0x415 JUMPI PUSH2 0x1C1 JUMP JUMPDEST DUP1 PUSH4 0x3DE5D0DE EQ PUSH2 0x2F5 JUMPI DUP1 PUSH4 0x42842E0E EQ PUSH2 0x331 JUMPI DUP1 PUSH4 0x45F7B48F EQ PUSH2 0x359 JUMPI PUSH2 0x1C1 JUMP JUMPDEST DUP1 PUSH4 0x95EA7B3 GT PUSH2 0x19F JUMPI DUP1 PUSH4 0x95EA7B3 EQ PUSH2 0x267 JUMPI DUP1 PUSH4 0x23B872DD EQ PUSH2 0x28F JUMPI DUP1 PUSH4 0x31DA524F EQ PUSH2 0x2B7 JUMPI DUP1 PUSH4 0x3CCFD60B EQ PUSH2 0x2DF JUMPI PUSH2 0x1C1 JUMP JUMPDEST DUP1 PUSH4 0x1FFC9A7 EQ PUSH2 0x1C5 JUMPI DUP1 PUSH4 0x6FDDE03 EQ PUSH2 0x201 JUMPI DUP1 PUSH4 0x81812FC EQ PUSH2 0x22B JUMPI JUMPDEST PUSH0 DUP1 REVERT JUMPDEST CALLVALUE DUP1 ISZERO PUSH2 0x1D0 JUMPI PUSH0 DUP1 REVERT JUMPDEST POP PUSH2 0x1EB PUSH1 0x4 DUP1 CALLDATASIZE SUB DUP2 ADD SWAP1 PUSH2 0x1E6 SWAP2 SWAP1 PUSH2 0x2CEB JUMP JUMPDEST PUSH2 0x710 JUMP JUMPDEST PUSH1 0x40 MLOAD PUSH2 0x1F8 SWAP2 SWAP1 PUSH2 0x2D30 JUMP JUMPDEST PUSH1 0x40 MLOAD DUP1 SWAP2 SUB SWAP1 RETURN JUMPDEST CALLVALUE DUP1 ISZERO PUSH2 0x20C JUMPI PUSH0 DUP1 REVERT JUMPDEST POP PUSH2 0x215 PUSH2 0x7F1 JUMP JUMPDEST PUSH1 0x40 MLOAD PUSH2 0x222 SWAP2 SWAP1 PUSH2 0x2DB9 JUMP JUMPDEST PUSH1 0x40 MLOAD DUP1 SWAP2 SUB SWAP1 RETURN JUMPDEST CALLVALUE DUP1 ISZERO PUSH2 0x236 JUMPI PUSH0 DUP1 REVERT JUMPDEST POP PUSH2 0x251 PUSH1 0x4 DUP1 CALLDATASIZE SUB DUP2 ADD SWAP1 PUSH2 0x24C SWAP2 SWAP1 PUSH2 0x2E0C JUMP JUMPDEST PUSH2 0x880 JUMP JUMPDEST PUSH1 0x40 MLOAD PUSH2 0x25E SWAP2 SWAP1 PUSH2 0x2E76 JUMP JUMPDEST PUSH1 0x40 MLOAD DUP1 SWAP2 SUB SWAP1 RETURN JUMPDEST CALLVALUE DUP1 ISZERO PUSH2 0x272 JUMPI PUSH0 DUP1 REVERT JUMPDEST POP PUSH2 0x28D PUSH1 0x4 DUP1 CALLDATASIZE SUB DUP2 ADD SWAP1 PUSH2 0x288 SWAP2 SWAP1 PUSH2 0x2EB9 JUMP JUMPDEST PUSH2 0x901 JUMP JUMPDEST STOP JUMPDEST CALLVALUE DUP1 ISZERO PUSH2 0x29A JUMPI PUSH0 DUP1 REVERT JUMPDEST POP PUSH2 0x2B5 PUSH1 0x4 DUP1 CALLDATASIZE SUB DUP2 ADD SWAP1 PUSH2 0x2B0 SWAP2 SWAP1 PUSH2 0x2EF7 JUMP JUMPDEST PUSH2 0xA17 JUMP JUMPDEST STOP JUMPDEST CALLVALUE DUP1 ISZERO PUSH2 0x2C2 JUMPI PUSH0 DUP1 REVERT JUMPDEST POP PUSH2 0x2DD PUSH1 0x4 DUP1 CALLDATASIZE SUB DUP2 ADD SWAP1 PUSH2 0x2D8 SWAP2 SWAP1 PUSH2 0x2F47 JUMP JUMPDEST PUSH2 0xA77 JUMP JUMPDEST STOP JUMPDEST CALLVALUE DUP1 ISZERO PUSH2 0x2EA JUMPI PUSH0 DUP1 REVERT JUMPDEST POP PUSH2 0x2F3 PUSH2 0xBF2 JUMP JUMPDEST STOP JUMPDEST CALLVALUE DUP1 ISZERO PUSH2 0x300 JUMPI PUSH0 DUP1 REVERT JUMPDEST POP PUSH2 0x31B PUSH1 0x4 DUP1 CALLDATASIZE SUB DUP2 ADD SWAP1 PUSH2 0x316 SWAP2 SWAP1 PUSH2 0x2E0C JUMP JUMPDEST PUSH2 0xD02 JUMP JUMPDEST PUSH1 0x40 MLOAD PUSH2 0x328 SWAP2 SWAP1 PUSH2 0x2F94 JUMP JUMPDEST PUSH1 0x40 MLOAD DUP1 SWAP2 SUB SWAP1 RETURN JUMPDEST CALLVALUE DUP1 ISZERO PUSH2 0x33C JUMPI PUSH0 DUP1 REVERT JUMPDEST POP PUSH2 0x357 PUSH1 0x4 DUP1 CALLDATASIZE SUB DUP2 ADD SWAP1 PUSH2 0x352 SWAP2 SWAP1 PUSH2 0x2EF7 JUMP JUMPDEST PUSH2 0xD1F JUMP JUMPDEST STOP JUMPDEST CALLVALUE DUP1 ISZERO PUSH2 0x364 JUMPI PUSH0 DUP1 REVERT JUMPDEST POP PUSH2 0x37F PUSH1 0x4 DUP1 CALLDATASIZE SUB DUP2 ADD SWAP1 PUSH2 0x37A SWAP2 SWAP1 PUSH2 0x2E0C JUMP JUMPDEST PUSH2 0xD3E JUMP JUMPDEST PUSH1 0x40 MLOAD PUSH2 0x38C SWAP2 SWAP1 PUSH2 0x2F94 JUMP JUMPDEST PUSH1 0x40 MLOAD DUP1 SWAP2 SUB SWAP1 RETURN JUMPDEST CALLVALUE DUP1 ISZERO PUSH2 0x3A0 JUMPI PUSH0 DUP1 REVERT JUMPDEST POP PUSH2 0x3BB PUSH1 0x4 DUP1 CALLDATASIZE SUB DUP2 ADD SWAP1 PUSH2 0x3B6 SWAP2 SWAP1 PUSH2 0x2E0C JUMP JUMPDEST PUSH2 0xD5B JUMP JUMPDEST STOP JUMPDEST PUSH2 0x3D7 PUSH1 0x4 DUP1 CALLDATASIZE SUB DUP2 ADD SWAP1 PUSH2 0x3D2 SWAP2 SWAP1 PUSH2 0x2E0C JUMP JUMPDEST PUSH2 0xE8C JUMP JUMPDEST STOP JUMPDEST CALLVALUE DUP1 ISZERO PUSH2 0x3E4 JUMPI PUSH0 DUP1 REVERT JUMPDEST POP PUSH2 0x3FF PUSH1 0x4 DUP1 CALLDATASIZE SUB DUP2 ADD SWAP1 PUSH2 0x3FA SWAP2 SWAP1 PUSH2 0x2E0C JUMP JUMPDEST PUSH2 0x122C JUMP JUMPDEST PUSH1 0x40 MLOAD PUSH2 0x40C SWAP2 SWAP1 PUSH2 0x2E76 JUMP JUMPDEST PUSH1 0x40 MLOAD DUP1 SWAP2 SUB SWAP1 RETURN JUMPDEST CALLVALUE DUP1 ISZERO PUSH2 0x420 JUMPI PUSH0 DUP1 REVERT JUMPDEST POP PUSH2 0x43B PUSH1 0x4 DUP1 CALLDATASIZE SUB DUP2 ADD SWAP1 PUSH2 0x436 SWAP2 SWAP1 PUSH2 0x2E0C JUMP JUMPDEST PUSH2 0x12D8 JUMP JUMPDEST PUSH1 0x40 MLOAD PUSH2 0x450 SWAP10 SWAP9 SWAP8 SWAP7 SWAP6 SWAP5 SWAP4 SWAP3 SWAP2 SWAP1 PUSH2 0x2FAD JUMP JUMPDEST PUSH1 0x40 MLOAD DUP1 SWAP2 SUB SWAP1 RETURN JUMPDEST CALLVALUE DUP1 ISZERO PUSH2 0x464 JUMPI PUSH0 DUP1 REVERT JUMPDEST POP PUSH2 0x47F PUSH1 0x4 DUP1 CALLDATASIZE SUB DUP2 ADD SWAP1 PUSH2 0x47A SWAP2 SWAP1 PUSH2 0x3046 JUMP JUMPDEST PUSH2 0x144D JUMP JUMPDEST PUSH1 0x40 MLOAD PUSH2 0x48C SWAP2 SWAP1 PUSH2 0x2F94 JUMP JUMPDEST PUSH1 0x40 MLOAD DUP1 SWAP2 SUB SWAP1 RETURN JUMPDEST CALLVALUE DUP1 ISZERO PUSH2 0x4A0 JUMPI PUSH0 DUP1 REVERT JUMPDEST POP PUSH2 0x4A9 PUSH2 0x1501 JUMP JUMPDEST STOP JUMPDEST CALLVALUE DUP1 ISZERO PUSH2 0x4B6 JUMPI PUSH0 DUP1 REVERT JUMPDEST POP PUSH2 0x4D1 PUSH1 0x4 DUP1 CALLDATASIZE SUB DUP2 ADD SWAP1 PUSH2 0x4CC SWAP2 SWAP1 PUSH2 0x2F47 JUMP JUMPDEST PUSH2 0x1588 JUMP JUMPDEST PUSH1 0x40 MLOAD PUSH2 0x4DE SWAP2 SWAP1 PUSH2 0x2F94 JUMP JUMPDEST PUSH1 0x40 MLOAD DUP1 SWAP2 SUB SWAP1 RETURN JUMPDEST CALLVALUE DUP1 ISZERO PUSH2 0x4F2 JUMPI PUSH0 DUP1 REVERT JUMPDEST POP PUSH2 0x50D PUSH1 0x4 DUP1 CALLDATASIZE SUB DUP2 ADD SWAP1 PUSH2 0x508 SWAP2 SWAP1 PUSH2 0x319D JUMP JUMPDEST PUSH2 0x15E1 JUMP JUMPDEST STOP JUMPDEST CALLVALUE DUP1 ISZERO PUSH2 0x51A JUMPI PUSH0 DUP1 REVERT JUMPDEST POP PUSH2 0x523 PUSH2 0x184D JUMP JUMPDEST PUSH1 0x40 MLOAD PUSH2 0x530 SWAP2 SWAP1 PUSH2 0x2E76 JUMP JUMPDEST PUSH1 0x40 MLOAD DUP1 SWAP2 SUB SWAP1 RETURN JUMPDEST CALLVALUE DUP1 ISZERO PUSH2 0x544 JUMPI PUSH0 DUP1 REVERT JUMPDEST POP PUSH2 0x54D PUSH2 0x1875 JUMP JUMPDEST PUSH1 0x40 MLOAD PUSH2 0x55A SWAP2 SWAP1 PUSH2 0x2DB9 JUMP JUMPDEST PUSH1 0x40 MLOAD DUP1 SWAP2 SUB SWAP1 RETURN JUMPDEST CALLVALUE DUP1 ISZERO PUSH2 0x56E JUMPI PUSH0 DUP1 REVERT JUMPDEST POP PUSH2 0x589 PUSH1 0x4 DUP1 CALLDATASIZE SUB DUP2 ADD SWAP1 PUSH2 0x584 SWAP2 SWAP1 PUSH2 0x2E0C JUMP JUMPDEST PUSH2 0x1905 JUMP JUMPDEST PUSH1 0x40 MLOAD PUSH2 0x597 SWAP3 SWAP2 SWAP1 PUSH2 0x3286 JUMP JUMPDEST PUSH1 0x40 MLOAD DUP1 SWAP2 SUB SWAP1 RETURN JUMPDEST CALLVALUE DUP1 ISZERO PUSH2 0x5AB JUMPI PUSH0 DUP1 REVERT JUMPDEST POP PUSH2 0x5C6 PUSH1 0x4 DUP1 CALLDATASIZE SUB DUP2 ADD SWAP1 PUSH2 0x5C1 SWAP2 SWAP1 PUSH2 0x32D7 JUMP JUMPDEST PUSH2 0x1948 JUMP JUMPDEST STOP JUMPDEST CALLVALUE DUP1 ISZERO PUSH2 0x5D3 JUMPI PUSH0 DUP1 REVERT JUMPDEST POP PUSH2 0x5EE PUSH1 0x4 DUP1 CALLDATASIZE SUB DUP2 ADD SWAP1 PUSH2 0x5E9 SWAP2 SWAP1 PUSH2 0x33B3 JUMP JUMPDEST PUSH2 0x1AC3 JUMP JUMPDEST STOP JUMPDEST CALLVALUE DUP1 ISZERO PUSH2 0x5FB JUMPI PUSH0 DUP1 REVERT JUMPDEST POP PUSH2 0x616 PUSH1 0x4 DUP1 CALLDATASIZE SUB DUP2 ADD SWAP1 PUSH2 0x611 SWAP2 SWAP1 PUSH2 0x2E0C JUMP JUMPDEST PUSH2 0x1B25 JUMP JUMPDEST PUSH1 0x40 MLOAD PUSH2 0x623 SWAP2 SWAP1 PUSH2 0x2DB9 JUMP JUMPDEST PUSH1 0x40 MLOAD DUP1 SWAP2 SUB SWAP1 RETURN JUMPDEST CALLVALUE DUP1 ISZERO PUSH2 0x637 JUMPI PUSH0 DUP1 REVERT JUMPDEST POP PUSH2 0x652 PUSH1 0x4 DUP1 CALLDATASIZE SUB DUP2 ADD SWAP1 PUSH2 0x64D SWAP2 SWAP1 PUSH2 0x3433 JUMP JUMPDEST PUSH2 0x1BC9 JUMP JUMPDEST PUSH1 0x40 MLOAD PUSH2 0x65F SWAP2 SWAP1 PUSH2 0x2E76 JUMP JUMPDEST PUSH1 0x40 MLOAD DUP1 SWAP2 SUB SWAP1 RETURN JUMPDEST CALLVALUE DUP1 ISZERO PUSH2 0x673 JUMPI PUSH0 DUP1 REVERT JUMPDEST POP PUSH2 0x68E PUSH1 0x4 DUP1 CALLDATASIZE SUB DUP2 ADD SWAP1 PUSH2 0x689 SWAP2 SWAP1 PUSH2 0x3471 JUMP JUMPDEST PUSH2 0x1C11 JUMP JUMPDEST PUSH1 0x40 MLOAD PUSH2 0x69B SWAP2 SWAP1 PUSH2 0x2D30 JUMP JUMPDEST PUSH1 0x40 MLOAD DUP1 SWAP2 SUB SWAP1 RETURN JUMPDEST CALLVALUE DUP1 ISZERO PUSH2 0x6AF JUMPI PUSH0 DUP1 REVERT JUMPDEST POP PUSH2 0x6CA PUSH1 0x4 DUP1 CALLDATASIZE SUB DUP2 ADD SWAP1 PUSH2 0x6C5 SWAP2 SWAP1 PUSH2 0x3046 JUMP JUMPDEST PUSH2 0x1C9F JUMP JUMPDEST STOP JUMPDEST CALLVALUE DUP1 ISZERO PUSH2 0x6D7 JUMPI PUSH0 DUP1 REVERT JUMPDEST POP PUSH2 0x6F2 PUSH1 0x4 DUP1 CALLDATASIZE SUB DUP2 ADD SWAP1 PUSH2 0x6ED SWAP2 SWAP1 PUSH2 0x3433 JUMP JUMPDEST PUSH2 0x1D95 JUMP JUMPDEST STOP JUMPDEST PUSH2 0x70E PUSH1 0x4 DUP1 CALLDATASIZE SUB DUP2 ADD SWAP1 PUSH2 0x709 SWAP2 SWAP1 PUSH2 0x2F47 JUMP JUMPDEST PUSH2 0x1F16 JUMP JUMPDEST STOP JUMPDEST PUSH0 PUSH32 0x80AC58CD00000000000000000000000000000000000000000000000000000000 PUSH28 0xFFFFFFFFFFFFFFFFFFFFFFFFFFFFFFFFFFFFFFFFFFFFFFFFFFFFFFFF NOT AND DUP3 PUSH28 0xFFFFFFFFFFFFFFFFFFFFFFFFFFFFFFFFFFFFFFFFFFFFFFFFFFFFFFFF NOT AND EQ DUP1 PUSH2 0x7DA JUMPI POP PUSH32 0x5B5E139F00000000000000000000000000000000000000000000000000000000 PUSH28 0xFFFFFFFFFFFFFFFFFFFFFFFFFFFFFFFFFFFFFFFFFFFFFFFFFFFFFFFF NOT AND DUP3 PUSH28 0xFFFFFFFFFFFFFFFFFFFFFFFFFFFFFFFFFFFFFFFFFFFFFFFFFFFFFFFF NOT AND EQ JUMPDEST DUP1 PUSH2 0x7EA JUMPI POP PUSH2 0x7E9 DUP3 PUSH2 0x2229 JUMP JUMPDEST JUMPDEST SWAP1 POP SWAP2 SWAP1 POP JUMP JUMPDEST PUSH1 0x60 PUSH0 DUP1 SLOAD PUSH2 0x7FF SWAP1 PUSH2 0x34DC JUMP JUMPDEST DUP1 PUSH1 0x1F ADD PUSH1 0x20 DUP1 SWAP2 DIV MUL PUSH1 0x20 ADD PUSH1 0x40 MLOAD SWAP1 DUP2 ADD PUSH1 0x40 MSTORE DUP1 SWAP3 SWAP2 SWAP1 DUP2 DUP2 MSTORE PUSH1 0x20 ADD DUP3 DUP1 SLOAD PUSH2 0x82B SWAP1 PUSH2 0x34DC JUMP JUMPDEST DUP1 ISZERO PUSH2 0x876 JUMPI DUP1 PUSH1 0x1F LT PUSH2 0x84D JUMPI PUSH2 0x100 DUP1 DUP4 SLOAD DIV MUL DUP4 MSTORE SWAP2 PUSH1 0x20 ADD SWAP2 PUSH2 0x876 JUMP JUMPDEST DUP3 ADD SWAP2 SWAP1 PUSH0 MSTORE PUSH1 0x20 PUSH0 KECCAK256 SWAP1 JUMPDEST DUP2 SLOAD DUP2 MSTORE SWAP1 PUSH1 0x1 ADD SWAP1 PUSH1 0x20 ADD DUP1 DUP4 GT PUSH2 0x859 JUMPI DUP3 SWAP1 SUB PUSH1 0x1F AND DUP3 ADD SWAP2 JUMPDEST POP POP POP POP POP SWAP1 POP SWAP1 JUMP JUMPDEST PUSH0 PUSH2 0x88A DUP3 PUSH2 0x2292 JUMP JUMPDEST PUSH2 0x8C9 JUMPI PUSH1 0x40 MLOAD PUSH32 0x8C379A000000000000000000000000000000000000000000000000000000000 DUP2 MSTORE PUSH1 0x4 ADD PUSH2 0x8C0 SWAP1 PUSH2 0x357C JUMP JUMPDEST PUSH1 0x40 MLOAD DUP1 SWAP2 SUB SWAP1 REVERT JUMPDEST PUSH1 0x4 PUSH0 DUP4 DUP2 MSTORE PUSH1 0x20 ADD SWAP1 DUP2 MSTORE PUSH1 0x20 ADD PUSH0 KECCAK256 PUSH0 SWAP1 SLOAD SWAP1 PUSH2 0x100 EXP SWAP1 DIV PUSH20 0xFFFFFFFFFFFFFFFFFFFFFFFFFFFFFFFFFFFFFFFF AND SWAP1 POP SWAP2 SWAP1 POP JUMP JUMPDEST PUSH0 PUSH2 0x90B DUP3 PUSH2 0x122C JUMP JUMPDEST SWAP1 POP DUP1 PUSH20 0xFFFFFFFFFFFFFFFFFFFFFFFFFFFFFFFFFFFFFFFF AND DUP4 PUSH20 0xFFFFFFFFFFFFFFFFFFFFFFFFFFFFFFFFFFFFFFFF AND SUB PUSH2 0x97B JUMPI PUSH1 0x40 MLOAD PUSH32 0x8C379A000000000000000000000000000000000000000000000000000000000 DUP2 MSTORE PUSH1 0x4 ADD PUSH2 0x972 SWAP1 PUSH2 0x360A JUMP JUMPDEST PUSH1 0x40 MLOAD DUP1 SWAP2 SUB SWAP1 REVERT JUMPDEST DUP1 PUSH20 0xFFFFFFFFFFFFFFFFFFFFFFFFFFFFFFFFFFFFFFFF AND PUSH2 0x99A PUSH2 0x22FA JUMP JUMPDEST PUSH20 0xFFFFFFFFFFFFFFFFFFFFFFFFFFFFFFFFFFFFFFFF AND EQ DUP1 PUSH2 0x9C9 JUMPI POP PUSH2 0x9C8 DUP2 PUSH2 0x9C3 PUSH2 0x22FA JUMP JUMPDEST PUSH2 0x1C11 JUMP JUMPDEST JUMPDEST PUSH2 0xA08 JUMPI PUSH1 0x40 MLOAD PUSH32 0x8C379A000000000000000000000000000000000000000000000000000000000 DUP2 MSTORE PUSH1 0x4 ADD PUSH2 0x9FF SWAP1 PUSH2 0x3698 JUMP JUMPDEST PUSH1 0x40 MLOAD DUP1 SWAP2 SUB SWAP1 REVERT JUMPDEST PUSH2 0xA12 DUP4 DUP4 PUSH2 0x2301 JUMP JUMPDEST POP POP POP JUMP JUMPDEST PUSH2 0xA28 PUSH2 0xA22 PUSH2 0x22FA JUMP JUMPDEST DUP3 PUSH2 0x23B7 JUMP JUMPDEST PUSH2 0xA67 JUMPI PUSH1 0x40 MLOAD PUSH32 0x8C379A000000000000000000000000000000000000000000000000000000000 DUP2 MSTORE PUSH1 0x4 ADD PUSH2 0xA5E SWAP1 PUSH2 0x3726 JUMP JUMPDEST PUSH1 0x40 MLOAD DUP1 SWAP2 SUB SWAP1 REVERT JUMPDEST PUSH2 0xA72 DUP4 DUP4 DUP4 PUSH2 0x244B JUMP JUMPDEST POP POP POP JUMP JUMPDEST PUSH2 0xA81 CALLER DUP4 PUSH2 0x23B7 JUMP JUMPDEST PUSH2 0xAC0 JUMPI PUSH1 0x40 MLOAD PUSH32 0x8C379A000000000000000000000000000000000000000000000000000000000 DUP2 MSTORE PUSH1 0x4 ADD PUSH2 0xAB7 SWAP1 PUSH2 0x378E JUMP JUMPDEST PUSH1 0x40 MLOAD DUP1 SWAP2 SUB SWAP1 REVERT JUMPDEST PUSH2 0xACB CALLER DUP3 DUP5 PUSH2 0x244B JUMP JUMPDEST PUSH1 0x7 PUSH0 DUP4 DUP2 MSTORE PUSH1 0x20 ADD SWAP1 DUP2 MSTORE PUSH1 0x20 ADD PUSH0 KECCAK256 PUSH1 0x9 ADD PUSH0 CALLER PUSH20 0xFFFFFFFFFFFFFFFFFFFFFFFFFFFFFFFFFFFFFFFF AND PUSH20 0xFFFFFFFFFFFFFFFFFFFFFFFFFFFFFFFFFFFFFFFF AND DUP2 MSTORE PUSH1 0x20 ADD SWAP1 DUP2 MSTORE PUSH1 0x20 ADD PUSH0 KECCAK256 PUSH0 DUP2 SLOAD DUP1 SWAP3 SWAP2 SWAP1 PUSH2 0xB2A SWAP1 PUSH2 0x37D9 JUMP JUMPDEST SWAP2 SWAP1 POP SSTORE POP PUSH1 0x7 PUSH0 DUP4 DUP2 MSTORE PUSH1 0x20 ADD SWAP1 DUP2 MSTORE PUSH1 0x20 ADD PUSH0 KECCAK256 PUSH1 0x9 ADD PUSH0 DUP3 PUSH20 0xFFFFFFFFFFFFFFFFFFFFFFFFFFFFFFFFFFFFFFFF AND PUSH20 0xFFFFFFFFFFFFFFFFFFFFFFFFFFFFFFFFFFFFFFFF AND DUP2 MSTORE PUSH1 0x20 ADD SWAP1 DUP2 MSTORE PUSH1 0x20 ADD PUSH0 KECCAK256 PUSH0 DUP2 SLOAD DUP1 SWAP3 SWAP2 SWAP1 PUSH2 0xB8E SWAP1 PUSH2 0x3800 JUMP JUMPDEST SWAP2 SWAP1 POP SSTORE POP DUP1 PUSH20 0xFFFFFFFFFFFFFFFFFFFFFFFFFFFFFFFFFFFFFFFF AND CALLER PUSH20 0xFFFFFFFFFFFFFFFFFFFFFFFFFFFFFFFFFFFFFFFF AND DUP4 PUSH32 0xF400230F2E1EE2B2F1C36DF34259812AA6C9840577049F10F6427EF18496B66 PUSH1 0x40 MLOAD PUSH1 0x40 MLOAD DUP1 SWAP2 SUB SWAP1 LOG4 POP POP JUMP JUMPDEST PUSH2 0xBFA PUSH2 0x22FA JUMP JUMPDEST PUSH20 0xFFFFFFFFFFFFFFFFFFFFFFFFFFFFFFFFFFFFFFFF AND PUSH2 0xC18 PUSH2 0x184D JUMP JUMPDEST PUSH20 0xFFFFFFFFFFFFFFFFFFFFFFFFFFFFFFFFFFFFFFFF AND EQ PUSH2 0xC6E JUMPI PUSH1 0x40 MLOAD PUSH32 0x8C379A000000000000000000000000000000000000000000000000000000000 DUP2 MSTORE PUSH1 0x4 ADD PUSH2 0xC65 SWAP1 PUSH2 0x3891 JUMP JUMPDEST PUSH1 0x40 MLOAD DUP1 SWAP2 SUB SWAP1 REVERT JUMPDEST PUSH0 SELFBALANCE SWAP1 POP PUSH0 DUP2 GT PUSH2 0xCB4 JUMPI PUSH1 0x40 MLOAD PUSH32 0x8C379A000000000000000000000000000000000000000000000000000000000 DUP2 MSTORE PUSH1 0x4 ADD PUSH2 0xCAB SWAP1 PUSH2 0x38F9 JUMP JUMPDEST PUSH1 0x40 MLOAD DUP1 SWAP2 SUB SWAP1 REVERT JUMPDEST PUSH2 0xCBC PUSH2 0x184D JUMP JUMPDEST PUSH20 0xFFFFFFFFFFFFFFFFFFFFFFFFFFFFFFFFFFFFFFFF AND PUSH2 0x8FC DUP3 SWAP1 DUP2 ISZERO MUL SWAP1 PUSH1 0x40 MLOAD PUSH0 PUSH1 0x40 MLOAD DUP1 DUP4 SUB DUP2 DUP6 DUP9 DUP9 CALL SWAP4 POP POP POP POP ISZERO DUP1 ISZERO PUSH2 0xCFE JUMPI RETURNDATASIZE PUSH0 DUP1 RETURNDATACOPY RETURNDATASIZE PUSH0 REVERT JUMPDEST POP POP JUMP JUMPDEST PUSH0 PUSH1 0x7 PUSH0 DUP4 DUP2 MSTORE PUSH1 0x20 ADD SWAP1 DUP2 MSTORE PUSH1 0x20 ADD PUSH0 KECCAK256 PUSH1 0x8 ADD SLOAD SWAP1 POP SWAP2 SWAP1 POP JUMP JUMPDEST PUSH2 0xD39 DUP4 DUP4 DUP4 PUSH1 0x40 MLOAD DUP1 PUSH1 0x20 ADD PUSH1 0x40 MSTORE DUP1 PUSH0 DUP2 MSTORE POP PUSH2 0x1AC3 JUMP JUMPDEST POP POP POP JUMP JUMPDEST PUSH0 PUSH1 0x8 PUSH0 DUP4 DUP2 MSTORE PUSH1 0x20 ADD SWAP1 DUP2 MSTORE PUSH1 0x20 ADD PUSH0 KECCAK256 DUP1 SLOAD SWAP1 POP SWAP1 POP SWAP2 SWAP1 POP JUMP JUMPDEST PUSH2 0xD65 CALLER DUP3 PUSH2 0x23B7 JUMP JUMPDEST PUSH2 0xDA4 JUMPI PUSH1 0x40 MLOAD PUSH32 0x8C379A000000000000000000000000000000000000000000000000000000000 DUP2 MSTORE PUSH1 0x4 ADD PUSH2 0xD9B SWAP1 PUSH2 0x378E JUMP JUMPDEST PUSH1 0x40 MLOAD DUP1 SWAP2 SUB SWAP1 REVERT JUMPDEST PUSH0 PUSH1 0x7 PUSH0 DUP4 DUP2 MSTORE PUSH1 0x20 ADD SWAP1 DUP2 MSTORE PUSH1 0x20 ADD PUSH0 KECCAK256 PUSH1 0x9 ADD PUSH0 CALLER PUSH20 0xFFFFFFFFFFFFFFFFFFFFFFFFFFFFFFFFFFFFFFFF AND PUSH20 0xFFFFFFFFFFFFFFFFFFFFFFFFFFFFFFFFFFFFFFFF AND DUP2 MSTORE PUSH1 0x20 ADD SWAP1 DUP2 MSTORE PUSH1 0x20 ADD PUSH0 KECCAK256 SLOAD GT PUSH2 0xE35 JUMPI PUSH1 0x40 MLOAD PUSH32 0x8C379A000000000000000000000000000000000000000000000000000000000 DUP2 MSTORE PUSH1 0x4 ADD PUSH2 0xE2C SWAP1 PUSH2 0x3961 JUMP JUMPDEST PUSH1 0x40 MLOAD DUP1 SWAP2 SUB SWAP1 REVERT JUMPDEST PUSH0 PUSH1 0x7 PUSH0 DUP4 DUP2 MSTORE PUSH1 0x20 ADD SWAP1 DUP2 MSTORE PUSH1 0x20 ADD PUSH0 KECCAK256 PUSH1 0xA ADD PUSH0 CALLER PUSH20 0xFFFFFFFFFFFFFFFFFFFFFFFFFFFFFFFFFFFFFFFF AND PUSH20 0xFFFFFFFFFFFFFFFFFFFFFFFFFFFFFFFFFFFFFFFF AND DUP2 MSTORE PUSH1 0x20 ADD SWAP1 DUP2 MSTORE PUSH1 0x20 ADD PUSH0 KECCAK256 DUP2 SWAP1 SSTORE POP POP JUMP JUMPDEST PUSH0 PUSH1 0x7 PUSH0 DUP4 DUP2 MSTORE PUSH1 0x20 ADD SWAP1 DUP2 MSTORE PUSH1 0x20 ADD PUSH0 KECCAK256 SWAP1 POP PUSH0 DUP2 PUSH1 0x5 ADD SLOAD GT PUSH2 0xEE6 JUMPI PUSH1 0x40 MLOAD PUSH32 0x8C379A000000000000000000000000000000000000000000000000000000000 DUP2 MSTORE PUSH1 0x4 ADD PUSH2 0xEDD SWAP1 PUSH2 0x39C9 JUMP JUMPDEST PUSH1 0x40 MLOAD DUP1 SWAP2 SUB SWAP1 REVERT JUMPDEST DUP1 PUSH1 0x5 ADD SLOAD CALLVALUE LT ISZERO PUSH2 0xF2D JUMPI PUSH1 0x40 MLOAD PUSH32 0x8C379A000000000000000000000000000000000000000000000000000000000 DUP2 MSTORE PUSH1 0x4 ADD PUSH2 0xF24 SWAP1 PUSH2 0x3A57 JUMP JUMPDEST PUSH1 0x40 MLOAD DUP1 SWAP2 SUB SWAP1 REVERT JUMPDEST PUSH0 DUP2 PUSH1 0x4 ADD SLOAD GT PUSH2 0xF73 JUMPI PUSH1 0x40 MLOAD PUSH32 0x8C379A000000000000000000000000000000000000000000000000000000000 DUP2 MSTORE PUSH1 0x4 ADD PUSH2 0xF6A SWAP1 PUSH2 0x3ABF JUMP JUMPDEST PUSH1 0x40 MLOAD DUP1 SWAP2 SUB SWAP1 REVERT JUMPDEST PUSH0 DUP3 PUSH1 0x9 SLOAD PUSH2 0xF82 SWAP2 SWAP1 PUSH2 0x3ADD JUMP JUMPDEST SWAP1 POP PUSH1 0x9 PUSH0 DUP2 SLOAD DUP1 SWAP3 SWAP2 SWAP1 PUSH2 0xF96 SWAP1 PUSH2 0x3800 JUMP JUMPDEST SWAP2 SWAP1 POP SSTORE POP PUSH2 0xFA5 CALLER DUP3 PUSH2 0x269B JUMP JUMPDEST DUP2 PUSH1 0x9 ADD PUSH0 CALLER PUSH20 0xFFFFFFFFFFFFFFFFFFFFFFFFFFFFFFFFFFFFFFFF AND PUSH20 0xFFFFFFFFFFFFFFFFFFFFFFFFFFFFFFFFFFFFFFFF AND DUP2 MSTORE PUSH1 0x20 ADD SWAP1 DUP2 MSTORE PUSH1 0x20 ADD PUSH0 KECCAK256 PUSH0 DUP2 SLOAD DUP1 SWAP3 SWAP2 SWAP1 PUSH2 0xFF4 SWAP1 PUSH2 0x3800 JUMP JUMPDEST SWAP2 SWAP1 POP SSTORE POP DUP2 PUSH1 0x8 ADD PUSH0 DUP2 SLOAD DUP1 SWAP3 SWAP2 SWAP1 PUSH2 0x100D SWAP1 PUSH2 0x3800 JUMP JUMPDEST SWAP2 SWAP1 POP SSTORE POP DUP2 PUSH1 0x4 ADD PUSH0 DUP2 SLOAD DUP1 SWAP3 SWAP2 SWAP1 PUSH2 0x1026 SWAP1 PUSH2 0x37D9 JUMP JUMPDEST SWAP2 SWAP1 POP SSTORE POP PUSH0 PUSH1 0x64 DUP4 PUSH1 0x6 ADD SLOAD DUP5 PUSH1 0x5 ADD SLOAD PUSH2 0x1042 SWAP2 SWAP1 PUSH2 0x3B10 JUMP JUMPDEST PUSH2 0x104C SWAP2 SWAP1 PUSH2 0x3B7E JUMP JUMPDEST SWAP1 POP DUP3 PUSH1 0x3 ADD PUSH0 SWAP1 SLOAD SWAP1 PUSH2 0x100 EXP SWAP1 DIV PUSH20 0xFFFFFFFFFFFFFFFFFFFFFFFFFFFFFFFFFFFFFFFF AND PUSH20 0xFFFFFFFFFFFFFFFFFFFFFFFFFFFFFFFFFFFFFFFF AND PUSH2 0x8FC DUP3 SWAP1 DUP2 ISZERO MUL SWAP1 PUSH1 0x40 MLOAD PUSH0 PUSH1 0x40 MLOAD DUP1 DUP4 SUB DUP2 DUP6 DUP9 DUP9 CALL SWAP4 POP POP POP POP ISZERO DUP1 ISZERO PUSH2 0x10B4 JUMPI RETURNDATASIZE PUSH0 DUP1 RETURNDATACOPY RETURNDATASIZE PUSH0 REVERT JUMPDEST POP PUSH0 PUSH1 0x8 PUSH0 DUP7 DUP2 MSTORE PUSH1 0x20 ADD SWAP1 DUP2 MSTORE PUSH1 0x20 ADD PUSH0 KECCAK256 DUP1 SLOAD SWAP1 POP EQ DUP1 PUSH2 0x116D JUMPI POP CALLER PUSH20 0xFFFFFFFFFFFFFFFFFFFFFFFFFFFFFFFFFFFFFFFF AND PUSH1 0x8 PUSH0 DUP7 DUP2 MSTORE PUSH1 0x20 ADD SWAP1 DUP2 MSTORE PUSH1 0x20 ADD PUSH0 KECCAK256 PUSH1 0x1 PUSH1 0x8 PUSH0 DUP9 DUP2 MSTORE PUSH1 0x20 ADD SWAP1 DUP2 MSTORE PUSH1 0x20 ADD PUSH0 KECCAK256 DUP1 SLOAD SWAP1 POP PUSH2 0x111B SWAP2 SWAP1 PUSH2 0x3BAE JUMP JUMPDEST DUP2 SLOAD DUP2 LT PUSH2 0x112C JUMPI PUSH2 0x112B PUSH2 0x3BE1 JUMP JUMPDEST JUMPDEST SWAP1 PUSH0 MSTORE PUSH1 0x20 PUSH0 KECCAK256 ADD PUSH0 SWAP1 SLOAD SWAP1 PUSH2 0x100 EXP SWAP1 DIV PUSH20 0xFFFFFFFFFFFFFFFFFFFFFFFFFFFFFFFFFFFFFFFF AND PUSH20 0xFFFFFFFFFFFFFFFFFFFFFFFFFFFFFFFFFFFFFFFF AND EQ ISZERO JUMPDEST ISZERO PUSH2 0x11E2 JUMPI PUSH1 0x8 PUSH0 DUP6 DUP2 MSTORE PUSH1 0x20 ADD SWAP1 DUP2 MSTORE PUSH1 0x20 ADD PUSH0 KECCAK256 CALLER SWAP1 DUP1 PUSH1 0x1 DUP2 SLOAD ADD DUP1 DUP3 SSTORE DUP1 SWAP2 POP POP PUSH1 0x1 SWAP1 SUB SWAP1 PUSH0 MSTORE PUSH1 0x20 PUSH0 KECCAK256 ADD PUSH0 SWAP1 SWAP2 SWAP1 SWAP2 SWAP1 SWAP2 PUSH2 0x100 EXP DUP2 SLOAD DUP2 PUSH20 0xFFFFFFFFFFFFFFFFFFFFFFFFFFFFFFFFFFFFFFFF MUL NOT AND SWAP1 DUP4 PUSH20 0xFFFFFFFFFFFFFFFFFFFFFFFFFFFFFFFFFFFFFFFF AND MUL OR SWAP1 SSTORE POP JUMPDEST CALLER PUSH20 0xFFFFFFFFFFFFFFFFFFFFFFFFFFFFFFFFFFFFFFFF AND DUP5 PUSH32 0xEDD9780C911D132891B0D6C68F69E6D9086A0DDC83A683A5E62B5AED36E93EB6 PUSH1 0x40 MLOAD PUSH1 0x40 MLOAD DUP1 SWAP2 SUB SWAP1 LOG3 POP POP POP POP JUMP JUMPDEST PUSH0 DUP1 PUSH1 0x2 PUSH0 DUP5 DUP2 MSTORE PUSH1 0x20 ADD SWAP1 DUP2 MSTORE PUSH1 0x20 ADD PUSH0 KECCAK256 PUSH0 SWAP1 SLOAD SWAP1 PUSH2 0x100 EXP SWAP1 DIV PUSH20 0xFFFFFFFFFFFFFFFFFFFFFFFFFFFFFFFFFFFFFFFF AND SWAP1 POP PUSH0 PUSH20 0xFFFFFFFFFFFFFFFFFFFFFFFFFFFFFFFFFFFFFFFF AND DUP2 PUSH20 0xFFFFFFFFFFFFFFFFFFFFFFFFFFFFFFFFFFFFFFFF AND SUB PUSH2 0x12CF JUMPI PUSH1 0x40 MLOAD PUSH32 0x8C379A000000000000000000000000000000000000000000000000000000000 DUP2 MSTORE PUSH1 0x4 ADD PUSH2 0x12C6 SWAP1 PUSH2 0x3C7E JUMP JUMPDEST PUSH1 0x40 MLOAD DUP1 SWAP2 SUB SWAP1 REVERT JUMPDEST DUP1 SWAP2 POP POP SWAP2 SWAP1 POP JUMP JUMPDEST PUSH1 0x7 PUSH1 0x20 MSTORE DUP1 PUSH0 MSTORE PUSH1 0x40 PUSH0 KECCAK256 PUSH0 SWAP2 POP SWAP1 POP DUP1 PUSH0 ADD SLOAD SWAP1 DUP1 PUSH1 0x1 ADD DUP1 SLOAD PUSH2 0x12FD SWAP1 PUSH2 0x34DC JUMP JUMPDEST DUP1 PUSH1 0x1F ADD PUSH1 0x20 DUP1 SWAP2 DIV MUL PUSH1 0x20 ADD PUSH1 0x40 MLOAD SWAP1 DUP2 ADD PUSH1 0x40 MSTORE DUP1 SWAP3 SWAP2 SWAP1 DUP2 DUP2 MSTORE PUSH1 0x20 ADD DUP3 DUP1 SLOAD PUSH2 0x1329 SWAP1 PUSH2 0x34DC JUMP JUMPDEST DUP1 ISZERO PUSH2 0x1374 JUMPI DUP1 PUSH1 0x1F LT PUSH2 0x134B JUMPI PUSH2 0x100 DUP1 DUP4 SLOAD DIV MUL DUP4 MSTORE SWAP2 PUSH1 0x20 ADD SWAP2 PUSH2 0x1374 JUMP JUMPDEST DUP3 ADD SWAP2 SWAP1 PUSH0 MSTORE PUSH1 0x20 PUSH0 KECCAK256 SWAP1 JUMPDEST DUP2 SLOAD DUP2 MSTORE SWAP1 PUSH1 0x1 ADD SWAP1 PUSH1 0x20 ADD DUP1 DUP4 GT PUSH2 0x1357 JUMPI DUP3 SWAP1 SUB PUSH1 0x1F AND DUP3 ADD SWAP2 JUMPDEST POP POP POP POP POP SWAP1 DUP1 PUSH1 0x2 ADD DUP1 SLOAD PUSH2 0x1389 SWAP1 PUSH2 0x34DC JUMP JUMPDEST DUP1 PUSH1 0x1F ADD PUSH1 0x20 DUP1 SWAP2 DIV MUL PUSH1 0x20 ADD PUSH1 0x40 MLOAD SWAP1 DUP2 ADD PUSH1 0x40 MSTORE DUP1 SWAP3 SWAP2 SWAP1 DUP2 DUP2 MSTORE PUSH1 0x20 ADD DUP3 DUP1 SLOAD PUSH2 0x13B5 SWAP1 PUSH2 0x34DC JUMP JUMPDEST DUP1 ISZERO PUSH2 0x1400 JUMPI DUP1 PUSH1 0x1F LT PUSH2 0x13D7 JUMPI PUSH2 0x100 DUP1 DUP4 SLOAD DIV MUL DUP4 MSTORE SWAP2 PUSH1 0x20 ADD SWAP2 PUSH2 0x1400 JUMP JUMPDEST DUP3 ADD SWAP2 SWAP1 PUSH0 MSTORE PUSH1 0x20 PUSH0 KECCAK256 SWAP1 JUMPDEST DUP2 SLOAD DUP2 MSTORE SWAP1 PUSH1 0x1 ADD SWAP1 PUSH1 0x20 ADD DUP1 DUP4 GT PUSH2 0x13E3 JUMPI DUP3 SWAP1 SUB PUSH1 0x1F AND DUP3 ADD SWAP2 JUMPDEST POP POP POP POP POP SWAP1 DUP1 PUSH1 0x3 ADD PUSH0 SWAP1 SLOAD SWAP1 PUSH2 0x100 EXP SWAP1 DIV PUSH20 0xFFFFFFFFFFFFFFFFFFFFFFFFFFFFFFFFFFFFFFFF AND SWAP1 DUP1 PUSH1 0x4 ADD SLOAD SWAP1 DUP1 PUSH1 0x5 ADD SLOAD SWAP1 DUP1 PUSH1 0x6 ADD SLOAD SWAP1 DUP1 PUSH1 0x7 ADD SLOAD SWAP1 DUP1 PUSH1 0x8 ADD SLOAD SWAP1 POP DUP10 JUMP JUMPDEST PUSH0 DUP1 PUSH20 0xFFFFFFFFFFFFFFFFFFFFFFFFFFFFFFFFFFFFFFFF AND DUP3 PUSH20 0xFFFFFFFFFFFFFFFFFFFFFFFFFFFFFFFFFFFFFFFF AND SUB PUSH2 0x14BC JUMPI PUSH1 0x40 MLOAD PUSH32 0x8C379A000000000000000000000000000000000000000000000000000000000 DUP2 MSTORE PUSH1 0x4 ADD PUSH2 0x14B3 SWAP1 PUSH2 0x3D0C JUMP JUMPDEST PUSH1 0x40 MLOAD DUP1 SWAP2 SUB SWAP1 REVERT JUMPDEST PUSH1 0x3 PUSH0 DUP4 PUSH20 0xFFFFFFFFFFFFFFFFFFFFFFFFFFFFFFFFFFFFFFFF AND PUSH20 0xFFFFFFFFFFFFFFFFFFFFFFFFFFFFFFFFFFFFFFFF AND DUP2 MSTORE PUSH1 0x20 ADD SWAP1 DUP2 MSTORE PUSH1 0x20 ADD PUSH0 KECCAK256 SLOAD SWAP1 POP SWAP2 SWAP1 POP JUMP JUMPDEST PUSH2 0x1509 PUSH2 0x22FA JUMP JUMPDEST PUSH20 0xFFFFFFFFFFFFFFFFFFFFFFFFFFFFFFFFFFFFFFFF AND PUSH2 0x1527 PUSH2 0x184D JUMP JUMPDEST PUSH20 0xFFFFFFFFFFFFFFFFFFFFFFFFFFFFFFFFFFFFFFFF AND EQ PUSH2 0x157D JUMPI PUSH1 0x40 MLOAD PUSH32 0x8C379A000000000000000000000000000000000000000000000000000000000 DUP2 MSTORE PUSH1 0x4 ADD PUSH2 0x1574 SWAP1 PUSH2 0x3891 JUMP JUMPDEST PUSH1 0x40 MLOAD DUP1 SWAP2 SUB SWAP1 REVERT JUMPDEST PUSH2 0x1586 PUSH0 PUSH2 0x285F JUMP JUMPDEST JUMP JUMPDEST PUSH0 PUSH1 0x7 PUSH0 DUP5 DUP2 MSTORE PUSH1 0x20 ADD SWAP1 DUP2 MSTORE PUSH1 0x20 ADD PUSH0 KECCAK256 PUSH1 0xA ADD PUSH0 DUP4 PUSH20 0xFFFFFFFFFFFFFFFFFFFFFFFFFFFFFFFFFFFFFFFF AND PUSH20 0xFFFFFFFFFFFFFFFFFFFFFFFFFFFFFFFFFFFFFFFF AND DUP2 MSTORE PUSH1 0x20 ADD SWAP1 DUP2 MSTORE PUSH1 0x20 ADD PUSH0 KECCAK256 SLOAD SWAP1 POP SWAP3 SWAP2 POP POP JUMP JUMPDEST PUSH2 0x15E9 PUSH2 0x22FA JUMP JUMPDEST PUSH20 0xFFFFFFFFFFFFFFFFFFFFFFFFFFFFFFFFFFFFFFFF AND PUSH2 0x1607 PUSH2 0x184D JUMP JUMPDEST PUSH20 0xFFFFFFFFFFFFFFFFFFFFFFFFFFFFFFFFFFFFFFFF AND EQ PUSH2 0x165D JUMPI PUSH1 0x40 MLOAD PUSH32 0x8C379A000000000000000000000000000000000000000000000000000000000 DUP2 MSTORE PUSH1 0x4 ADD PUSH2 0x1654 SWAP1 PUSH2 0x3891 JUMP JUMPDEST PUSH1 0x40 MLOAD DUP1 SWAP2 SUB SWAP1 REVERT JUMPDEST PUSH0 PUSH1 0x7 PUSH0 DUP11 DUP2 MSTORE PUSH1 0x20 ADD SWAP1 DUP2 MSTORE PUSH1 0x20 ADD PUSH0 KECCAK256 PUSH0 ADD SLOAD EQ PUSH2 0x16B2 JUMPI PUSH1 0x40 MLOAD PUSH32 0x8C379A000000000000000000000000000000000000000000000000000000000 DUP2 MSTORE PUSH1 0x4 ADD PUSH2 0x16A9 SWAP1 PUSH2 0x3D74 JUMP JUMPDEST PUSH1 0x40 MLOAD DUP1 SWAP2 SUB SWAP1 REVERT JUMPDEST PUSH1 0x64 DUP3 GT ISZERO PUSH2 0x16F6 JUMPI PUSH1 0x40 MLOAD PUSH32 0x8C379A000000000000000000000000000000000000000000000000000000000 DUP2 MSTORE PUSH1 0x4 ADD PUSH2 0x16ED SWAP1 PUSH2 0x3E02 JUMP JUMPDEST PUSH1 0x40 MLOAD DUP1 SWAP2 SUB SWAP1 REVERT JUMPDEST PUSH1 0x64 DUP2 GT ISZERO PUSH2 0x173A JUMPI PUSH1 0x40 MLOAD PUSH32 0x8C379A000000000000000000000000000000000000000000000000000000000 DUP2 MSTORE PUSH1 0x4 ADD PUSH2 0x1731 SWAP1 PUSH2 0x3E90 JUMP JUMPDEST PUSH1 0x40 MLOAD DUP1 SWAP2 SUB SWAP1 REVERT JUMPDEST PUSH0 PUSH1 0x7 PUSH0 DUP11 DUP2 MSTORE PUSH1 0x20 ADD SWAP1 DUP2 MSTORE PUSH1 0x20 ADD PUSH0 KECCAK256 SWAP1 POP DUP9 DUP2 PUSH0 ADD DUP2 SWAP1 SSTORE POP DUP8 DUP2 PUSH1 0x1 ADD SWAP1 DUP2 PUSH2 0x1767 SWAP2 SWAP1 PUSH2 0x404B JUMP JUMPDEST POP DUP7 DUP2 PUSH1 0x2 ADD SWAP1 DUP2 PUSH2 0x1779 SWAP2 SWAP1 PUSH2 0x404B JUMP JUMPDEST POP DUP6 DUP2 PUSH1 0x3 ADD PUSH0 PUSH2 0x100 EXP DUP2 SLOAD DUP2 PUSH20 0xFFFFFFFFFFFFFFFFFFFFFFFFFFFFFFFFFFFFFFFF MUL NOT AND SWAP1 DUP4 PUSH20 0xFFFFFFFFFFFFFFFFFFFFFFFFFFFFFFFFFFFFFFFF AND MUL OR SWAP1 SSTORE POP DUP5 DUP2 PUSH1 0x4 ADD DUP2 SWAP1 SSTORE POP DUP4 DUP2 PUSH1 0x5 ADD DUP2 SWAP1 SSTORE POP DUP3 DUP2 PUSH1 0x6 ADD DUP2 SWAP1 SSTORE POP DUP2 DUP2 PUSH1 0x7 ADD DUP2 SWAP1 SSTORE POP PUSH0 DUP2 PUSH1 0x8 ADD DUP2 SWAP1 SSTORE POP DUP6 PUSH20 0xFFFFFFFFFFFFFFFFFFFFFFFFFFFFFFFFFFFFFFFF AND DUP10 PUSH32 0x1893284802F0A61FE7D064A2606ACBA9D2858B651D18A6DA71F5B94DD9558FBD DUP11 DUP11 DUP10 DUP10 DUP10 DUP10 PUSH1 0x40 MLOAD PUSH2 0x183A SWAP7 SWAP6 SWAP5 SWAP4 SWAP3 SWAP2 SWAP1 PUSH2 0x411A JUMP JUMPDEST PUSH1 0x40 MLOAD DUP1 SWAP2 SUB SWAP1 LOG3 POP POP POP POP POP POP POP POP POP JUMP JUMPDEST PUSH0 PUSH1 0x6 PUSH0 SWAP1 SLOAD SWAP1 PUSH2 0x100 EXP SWAP1 DIV PUSH20 0xFFFFFFFFFFFFFFFFFFFFFFFFFFFFFFFFFFFFFFFF AND SWAP1 POP SWAP1 JUMP JUMPDEST PUSH1 0x60 PUSH1 0x1 DUP1 SLOAD PUSH2 0x1884 SWAP1 PUSH2 0x34DC JUMP JUMPDEST DUP1 PUSH1 0x1F ADD PUSH1 0x20 DUP1 SWAP2 DIV MUL PUSH1 0x20 ADD PUSH1 0x40 MLOAD SWAP1 DUP2 ADD PUSH1 0x40 MSTORE DUP1 SWAP3 SWAP2 SWAP1 DUP2 DUP2 MSTORE PUSH1 0x20 ADD DUP3 DUP1 SLOAD PUSH2 0x18B0 SWAP1 PUSH2 0x34DC JUMP JUMPDEST DUP1 ISZERO PUSH2 0x18FB JUMPI DUP1 PUSH1 0x1F LT PUSH2 0x18D2 JUMPI PUSH2 0x100 DUP1 DUP4 SLOAD DIV MUL DUP4 MSTORE SWAP2 PUSH1 0x20 ADD SWAP2 PUSH2 0x18FB JUMP JUMPDEST DUP3 ADD SWAP2 SWAP1 PUSH0 MSTORE PUSH1 0x20 PUSH0 KECCAK256 SWAP1 JUMPDEST DUP2 SLOAD DUP2 MSTORE SWAP1 PUSH1 0x1 ADD SWAP1 PUSH1 0x20 ADD DUP1 DUP4 GT PUSH2 0x18DE JUMPI DUP3 SWAP1 SUB PUSH1 0x1F AND DUP3 ADD SWAP2 JUMPDEST POP POP POP POP POP SWAP1 POP SWAP1 JUMP JUMPDEST PUSH0 DUP1 PUSH0 PUSH1 0x7 PUSH0 DUP6 DUP2 MSTORE PUSH1 0x20 ADD SWAP1 DUP2 MSTORE PUSH1 0x20 ADD PUSH0 KECCAK256 SWAP1 POP PUSH0 DUP2 PUSH1 0x8 ADD SLOAD SWAP1 POP PUSH0 DUP3 PUSH1 0x8 ADD SLOAD DUP4 PUSH1 0x4 ADD SLOAD PUSH2 0x1938 SWAP2 SWAP1 PUSH2 0x3ADD JUMP JUMPDEST SWAP1 POP DUP2 DUP2 SWAP5 POP SWAP5 POP POP POP POP SWAP2 POP SWAP2 JUMP JUMPDEST PUSH2 0x1950 PUSH2 0x22FA JUMP JUMPDEST PUSH20 0xFFFFFFFFFFFFFFFFFFFFFFFFFFFFFFFFFFFFFFFF AND DUP3 PUSH20 0xFFFFFFFFFFFFFFFFFFFFFFFFFFFFFFFFFFFFFFFF AND SUB PUSH2 0x19BD JUMPI PUSH1 0x40 MLOAD PUSH32 0x8C379A000000000000000000000000000000000000000000000000000000000 DUP2 MSTORE PUSH1 0x4 ADD PUSH2 0x19B4 SWAP1 PUSH2 0x41D1 JUMP JUMPDEST PUSH1 0x40 MLOAD DUP1 SWAP2 SUB SWAP1 REVERT JUMPDEST DUP1 PUSH1 0x5 PUSH0 PUSH2 0x19C9 PUSH2 0x22FA JUMP JUMPDEST PUSH20 0xFFFFFFFFFFFFFFFFFFFFFFFFFFFFFFFFFFFFFFFF AND PUSH20 0xFFFFFFFFFFFFFFFFFFFFFFFFFFFFFFFFFFFFFFFF AND DUP2 MSTORE PUSH1 0x20 ADD SWAP1 DUP2 MSTORE PUSH1 0x20 ADD PUSH0 KECCAK256 PUSH0 DUP5 PUSH20 0xFFFFFFFFFFFFFFFFFFFFFFFFFFFFFFFFFFFFFFFF AND PUSH20 0xFFFFFFFFFFFFFFFFFFFFFFFFFFFFFFFFFFFFFFFF AND DUP2 MSTORE PUSH1 0x20 ADD SWAP1 DUP2 MSTORE PUSH1 0x20 ADD PUSH0 KECCAK256 PUSH0 PUSH2 0x100 EXP DUP2 SLOAD DUP2 PUSH1 0xFF MUL NOT AND SWAP1 DUP4 ISZERO ISZERO MUL OR SWAP1 SSTORE POP DUP2 PUSH20 0xFFFFFFFFFFFFFFFFFFFFFFFFFFFFFFFFFFFFFFFF AND PUSH2 0x1A72 PUSH2 0x22FA JUMP JUMPDEST PUSH20 0xFFFFFFFFFFFFFFFFFFFFFFFFFFFFFFFFFFFFFFFF AND PUSH32 0x17307EAB39AB6107E8899845AD3D59BD9653F200F220920489CA2B5937696C31 DUP4 PUSH1 0x40 MLOAD PUSH2 0x1AB7 SWAP2 SWAP1 PUSH2 0x2D30 JUMP JUMPDEST PUSH1 0x40 MLOAD DUP1 SWAP2 SUB SWAP1 LOG3 POP POP JUMP JUMPDEST PUSH2 0x1AD4 PUSH2 0x1ACE PUSH2 0x22FA JUMP JUMPDEST DUP4 PUSH2 0x23B7 JUMP JUMPDEST PUSH2 0x1B13 JUMPI PUSH1 0x40 MLOAD PUSH32 0x8C379A000000000000000000000000000000000000000000000000000000000 DUP2 MSTORE PUSH1 0x4 ADD PUSH2 0x1B0A SWAP1 PUSH2 0x3726 JUMP JUMPDEST PUSH1 0x40 MLOAD DUP1 SWAP2 SUB SWAP1 REVERT JUMPDEST PUSH2 0x1B1F DUP5 DUP5 DUP5 DUP5 PUSH2 0x2922 JUMP JUMPDEST POP POP POP POP JUMP JUMPDEST PUSH1 0x60 PUSH2 0x1B30 DUP3 PUSH2 0x2292 JUMP JUMPDEST PUSH2 0x1B6F JUMPI PUSH1 0x40 MLOAD PUSH32 0x8C379A000000000000000000000000000000000000000000000000000000000 DUP2 MSTORE PUSH1 0x4 ADD PUSH2 0x1B66 SWAP1 PUSH2 0x425F JUMP JUMPDEST PUSH1 0x40 MLOAD DUP1 SWAP2 SUB SWAP1 REVERT JUMPDEST PUSH0 PUSH2 0x1B78 PUSH2 0x297E JUMP JUMPDEST SWAP1 POP PUSH0 DUP2 MLOAD GT PUSH2 0x1B96 JUMPI PUSH1 0x40 MLOAD DUP1 PUSH1 0x20 ADD PUSH1 0x40 MSTORE DUP1 PUSH0 DUP2 MSTORE POP PUSH2 0x1BC1 JUMP JUMPDEST DUP1 PUSH2 0x1BA0 DUP5 PUSH2 0x2994 JUMP JUMPDEST PUSH1 0x40 MLOAD PUSH1 0x20 ADD PUSH2 0x1BB1 SWAP3 SWAP2 SWAP1 PUSH2 0x42B7 JUMP JUMPDEST PUSH1 0x40 MLOAD PUSH1 0x20 DUP2 DUP4 SUB SUB DUP2 MSTORE SWAP1 PUSH1 0x40 MSTORE JUMPDEST SWAP2 POP POP SWAP2 SWAP1 POP JUMP JUMPDEST PUSH1 0x8 PUSH1 0x20 MSTORE DUP2 PUSH0 MSTORE PUSH1 0x40 PUSH0 KECCAK256 DUP2 DUP2 SLOAD DUP2 LT PUSH2 0x1BE2 JUMPI PUSH0 DUP1 REVERT JUMPDEST SWAP1 PUSH0 MSTORE PUSH1 0x20 PUSH0 KECCAK256 ADD PUSH0 SWAP2 POP SWAP2 POP SWAP1 SLOAD SWAP1 PUSH2 0x100 EXP SWAP1 DIV PUSH20 0xFFFFFFFFFFFFFFFFFFFFFFFFFFFFFFFFFFFFFFFF AND DUP2 JUMP JUMPDEST PUSH0 PUSH1 0x5 PUSH0 DUP5 PUSH20 0xFFFFFFFFFFFFFFFFFFFFFFFFFFFFFFFFFFFFFFFF AND PUSH20 0xFFFFFFFFFFFFFFFFFFFFFFFFFFFFFFFFFFFFFFFF AND DUP2 MSTORE PUSH1 0x20 ADD SWAP1 DUP2 MSTORE PUSH1 0x20 ADD PUSH0 KECCAK256 PUSH0 DUP4 PUSH20 0xFFFFFFFFFFFFFFFFFFFFFFFFFFFFFFFFFFFFFFFF AND PUSH20 0xFFFFFFFFFFFFFFFFFFFFFFFFFFFFFFFFFFFFFFFF AND DUP2 MSTORE PUSH1 0x20 ADD SWAP1 DUP2 MSTORE PUSH1 0x20 ADD PUSH0 KECCAK256 PUSH0 SWAP1 SLOAD SWAP1 PUSH2 0x100 EXP SWAP1 DIV PUSH1 0xFF AND SWAP1 POP SWAP3 SWAP2 POP POP JUMP JUMPDEST PUSH2 0x1CA7 PUSH2 0x22FA JUMP JUMPDEST PUSH20 0xFFFFFFFFFFFFFFFFFFFFFFFFFFFFFFFFFFFFFFFF AND PUSH2 0x1CC5 PUSH2 0x184D JUMP JUMPDEST PUSH20 0xFFFFFFFFFFFFFFFFFFFFFFFFFFFFFFFFFFFFFFFF AND EQ PUSH2 0x1D1B JUMPI PUSH1 0x40 MLOAD PUSH32 0x8C379A000000000000000000000000000000000000000000000000000000000 DUP2 MSTORE PUSH1 0x4 ADD PUSH2 0x1D12 SWAP1 PUSH2 0x3891 JUMP JUMPDEST PUSH1 0x40 MLOAD DUP1 SWAP2 SUB SWAP1 REVERT JUMPDEST PUSH0 PUSH20 0xFFFFFFFFFFFFFFFFFFFFFFFFFFFFFFFFFFFFFFFF AND DUP2 PUSH20 0xFFFFFFFFFFFFFFFFFFFFFFFFFFFFFFFFFFFFFFFF AND SUB PUSH2 0x1D89 JUMPI PUSH1 0x40 MLOAD PUSH32 0x8C379A000000000000000000000000000000000000000000000000000000000 DUP2 MSTORE PUSH1 0x4 ADD PUSH2 0x1D80 SWAP1 PUSH2 0x434A JUMP JUMPDEST PUSH1 0x40 MLOAD DUP1 SWAP2 SUB SWAP1 REVERT JUMPDEST PUSH2 0x1D92 DUP2 PUSH2 0x285F JUMP JUMPDEST POP JUMP JUMPDEST PUSH2 0x1D9F CALLER DUP4 PUSH2 0x23B7 JUMP JUMPDEST PUSH2 0x1DDE JUMPI PUSH1 0x40 MLOAD PUSH32 0x8C379A000000000000000000000000000000000000000000000000000000000 DUP2 MSTORE PUSH1 0x4 ADD PUSH2 0x1DD5 SWAP1 PUSH2 0x378E JUMP JUMPDEST PUSH1 0x40 MLOAD DUP1 SWAP2 SUB SWAP1 REVERT JUMPDEST PUSH0 PUSH1 0x7 PUSH0 DUP5 DUP2 MSTORE PUSH1 0x20 ADD SWAP1 DUP2 MSTORE PUSH1 0x20 ADD PUSH0 KECCAK256 PUSH1 0x9 ADD PUSH0 CALLER PUSH20 0xFFFFFFFFFFFFFFFFFFFFFFFFFFFFFFFFFFFFFFFF AND PUSH20 0xFFFFFFFFFFFFFFFFFFFFFFFFFFFFFFFFFFFFFFFF AND DUP2 MSTORE PUSH1 0x20 ADD SWAP1 DUP2 MSTORE PUSH1 0x20 ADD PUSH0 KECCAK256 SLOAD GT PUSH2 0x1E6F JUMPI PUSH1 0x40 MLOAD PUSH32 0x8C379A000000000000000000000000000000000000000000000000000000000 DUP2 MSTORE PUSH1 0x4 ADD PUSH2 0x1E66 SWAP1 PUSH2 0x3961 JUMP JUMPDEST PUSH1 0x40 MLOAD DUP1 SWAP2 SUB SWAP1 REVERT JUMPDEST DUP1 PUSH1 0x7 PUSH0 DUP5 DUP2 MSTORE PUSH1 0x20 ADD SWAP1 DUP2 MSTORE PUSH1 0x20 ADD PUSH0 KECCAK256 PUSH1 0xA ADD PUSH0 CALLER PUSH20 0xFFFFFFFFFFFFFFFFFFFFFFFFFFFFFFFFFFFFFFFF AND PUSH20 0xFFFFFFFFFFFFFFFFFFFFFFFFFFFFFFFFFFFFFFFF AND DUP2 MSTORE PUSH1 0x20 ADD SWAP1 DUP2 MSTORE PUSH1 0x20 ADD PUSH0 KECCAK256 DUP2 SWAP1 SSTORE POP CALLER PUSH20 0xFFFFFFFFFFFFFFFFFFFFFFFFFFFFFFFFFFFFFFFF AND DUP3 PUSH32 0xAE66D491143D256B997CD8AC2FE7E7FC34F1759AE05540D15956A07C5A4C793C DUP4 PUSH1 0x40 MLOAD PUSH2 0x1F0A SWAP2 SWAP1 PUSH2 0x2F94 JUMP JUMPDEST PUSH1 0x40 MLOAD DUP1 SWAP2 SUB SWAP1 LOG3 POP POP JUMP JUMPDEST PUSH0 PUSH1 0x7 PUSH0 DUP5 DUP2 MSTORE PUSH1 0x20 ADD SWAP1 DUP2 MSTORE PUSH1 0x20 ADD PUSH0 KECCAK256 PUSH1 0xA ADD PUSH0 DUP4 PUSH20 0xFFFFFFFFFFFFFFFFFFFFFFFFFFFFFFFFFFFFFFFF AND PUSH20 0xFFFFFFFFFFFFFFFFFFFFFFFFFFFFFFFFFFFFFFFF AND DUP2 MSTORE PUSH1 0x20 ADD SWAP1 DUP2 MSTORE PUSH1 0x20 ADD PUSH0 KECCAK256 SLOAD SWAP1 POP PUSH0 DUP2 GT PUSH2 0x1FAB JUMPI PUSH1 0x40 MLOAD PUSH32 0x8C379A000000000000000000000000000000000000000000000000000000000 DUP2 MSTORE PUSH1 0x4 ADD PUSH2 0x1FA2 SWAP1 PUSH2 0x43B2 JUMP JUMPDEST PUSH1 0x40 MLOAD DUP1 SWAP2 SUB SWAP1 REVERT JUMPDEST DUP1 CALLVALUE LT ISZERO PUSH2 0x1FEE JUMPI PUSH1 0x40 MLOAD PUSH32 0x8C379A000000000000000000000000000000000000000000000000000000000 DUP2 MSTORE PUSH1 0x4 ADD PUSH2 0x1FE5 SWAP1 PUSH2 0x4440 JUMP JUMPDEST PUSH1 0x40 MLOAD DUP1 SWAP2 SUB SWAP1 REVERT JUMPDEST PUSH2 0x1FF9 DUP3 CALLER DUP6 PUSH2 0x244B JUMP JUMPDEST PUSH1 0x7 PUSH0 DUP5 DUP2 MSTORE PUSH1 0x20 ADD SWAP1 DUP2 MSTORE PUSH1 0x20 ADD PUSH0 KECCAK256 PUSH1 0x9 ADD PUSH0 DUP4 PUSH20 0xFFFFFFFFFFFFFFFFFFFFFFFFFFFFFFFFFFFFFFFF AND PUSH20 0xFFFFFFFFFFFFFFFFFFFFFFFFFFFFFFFFFFFFFFFF AND DUP2 MSTORE PUSH1 0x20 ADD SWAP1 DUP2 MSTORE PUSH1 0x20 ADD PUSH0 KECCAK256 PUSH0 DUP2 SLOAD DUP1 SWAP3 SWAP2 SWAP1 PUSH2 0x2058 SWAP1 PUSH2 0x37D9 JUMP JUMPDEST SWAP2 SWAP1 POP SSTORE POP PUSH1 0x7 PUSH0 DUP5 DUP2 MSTORE PUSH1 0x20 ADD SWAP1 DUP2 MSTORE PUSH1 0x20 ADD PUSH0 KECCAK256 PUSH1 0x9 ADD PUSH0 CALLER PUSH20 0xFFFFFFFFFFFFFFFFFFFFFFFFFFFFFFFFFFFFFFFF AND PUSH20 0xFFFFFFFFFFFFFFFFFFFFFFFFFFFFFFFFFFFFFFFF AND DUP2 MSTORE PUSH1 0x20 ADD SWAP1 DUP2 MSTORE PUSH1 0x20 ADD PUSH0 KECCAK256 PUSH0 DUP2 SLOAD DUP1 SWAP3 SWAP2 SWAP1 PUSH2 0x20BC SWAP1 PUSH2 0x3800 JUMP JUMPDEST SWAP2 SWAP1 POP SSTORE POP PUSH0 PUSH1 0x64 PUSH1 0x7 PUSH0 DUP7 DUP2 MSTORE PUSH1 0x20 ADD SWAP1 DUP2 MSTORE PUSH1 0x20 ADD PUSH0 KECCAK256 PUSH1 0x7 ADD SLOAD DUP4 PUSH2 0x20E4 SWAP2 SWAP1 PUSH2 0x3B10 JUMP JUMPDEST PUSH2 0x20EE SWAP2 SWAP1 PUSH2 0x3B7E JUMP JUMPDEST SWAP1 POP PUSH1 0x7 PUSH0 DUP6 DUP2 MSTORE PUSH1 0x20 ADD SWAP1 DUP2 MSTORE PUSH1 0x20 ADD PUSH0 KECCAK256 PUSH1 0x3 ADD PUSH0 SWAP1 SLOAD SWAP1 PUSH2 0x100 EXP SWAP1 DIV PUSH20 0xFFFFFFFFFFFFFFFFFFFFFFFFFFFFFFFFFFFFFFFF AND PUSH20 0xFFFFFFFFFFFFFFFFFFFFFFFFFFFFFFFFFFFFFFFF AND PUSH2 0x8FC DUP3 SWAP1 DUP2 ISZERO MUL SWAP1 PUSH1 0x40 MLOAD PUSH0 PUSH1 0x40 MLOAD DUP1 DUP4 SUB DUP2 DUP6 DUP9 DUP9 CALL SWAP4 POP POP POP POP ISZERO DUP1 ISZERO PUSH2 0x2166 JUMPI RETURNDATASIZE PUSH0 DUP1 RETURNDATACOPY RETURNDATASIZE PUSH0 REVERT JUMPDEST POP DUP3 PUSH20 0xFFFFFFFFFFFFFFFFFFFFFFFFFFFFFFFFFFFFFFFF AND PUSH2 0x8FC DUP3 CALLVALUE PUSH2 0x218D SWAP2 SWAP1 PUSH2 0x3BAE JUMP JUMPDEST SWAP1 DUP2 ISZERO MUL SWAP1 PUSH1 0x40 MLOAD PUSH0 PUSH1 0x40 MLOAD DUP1 DUP4 SUB DUP2 DUP6 DUP9 DUP9 CALL SWAP4 POP POP POP POP ISZERO DUP1 ISZERO PUSH2 0x21B5 JUMPI RETURNDATASIZE PUSH0 DUP1 RETURNDATACOPY RETURNDATASIZE PUSH0 REVERT JUMPDEST POP PUSH1 0x7 PUSH0 DUP6 DUP2 MSTORE PUSH1 0x20 ADD SWAP1 DUP2 MSTORE PUSH1 0x20 ADD PUSH0 KECCAK256 PUSH1 0x8 ADD PUSH0 DUP2 SLOAD DUP1 SWAP3 SWAP2 SWAP1 PUSH2 0x21DA SWAP1 PUSH2 0x3800 JUMP JUMPDEST SWAP2 SWAP1 POP SSTORE POP CALLER PUSH20 0xFFFFFFFFFFFFFFFFFFFFFFFFFFFFFFFFFFFFFFFF AND DUP5 PUSH32 0xEDD9780C911D132891B0D6C68F69E6D9086A0DDC83A683A5E62B5AED36E93EB6 PUSH1 0x40 MLOAD PUSH1 0x40 MLOAD DUP1 SWAP2 SUB SWAP1 LOG3 POP POP POP POP JUMP JUMPDEST PUSH0 PUSH32 0x1FFC9A700000000000000000000000000000000000000000000000000000000 PUSH28 0xFFFFFFFFFFFFFFFFFFFFFFFFFFFFFFFFFFFFFFFFFFFFFFFFFFFFFFFF NOT AND DUP3 PUSH28 0xFFFFFFFFFFFFFFFFFFFFFFFFFFFFFFFFFFFFFFFFFFFFFFFFFFFFFFFF NOT AND EQ SWAP1 POP SWAP2 SWAP1 POP JUMP JUMPDEST PUSH0 DUP1 PUSH20 0xFFFFFFFFFFFFFFFFFFFFFFFFFFFFFFFFFFFFFFFF AND PUSH1 0x2 PUSH0 DUP5 DUP2 MSTORE PUSH1 0x20 ADD SWAP1 DUP2 MSTORE PUSH1 0x20 ADD PUSH0 KECCAK256 PUSH0 SWAP1 SLOAD SWAP1 PUSH2 0x100 EXP SWAP1 DIV PUSH20 0xFFFFFFFFFFFFFFFFFFFFFFFFFFFFFFFFFFFFFFFF AND PUSH20 0xFFFFFFFFFFFFFFFFFFFFFFFFFFFFFFFFFFFFFFFF AND EQ ISZERO SWAP1 POP SWAP2 SWAP1 POP JUMP JUMPDEST PUSH0 CALLER SWAP1 POP SWAP1 JUMP JUMPDEST DUP2 PUSH1 0x4 PUSH0 DUP4 DUP2 MSTORE PUSH1 0x20 ADD SWAP1 DUP2 MSTORE PUSH1 0x20 ADD PUSH0 KECCAK256 PUSH0 PUSH2 0x100 EXP DUP2 SLOAD DUP2 PUSH20 0xFFFFFFFFFFFFFFFFFFFFFFFFFFFFFFFFFFFFFFFF MUL NOT AND SWAP1 DUP4 PUSH20 0xFFFFFFFFFFFFFFFFFFFFFFFFFFFFFFFFFFFFFFFF AND MUL OR SWAP1 SSTORE POP DUP1 DUP3 PUSH20 0xFFFFFFFFFFFFFFFFFFFFFFFFFFFFFFFFFFFFFFFF AND PUSH2 0x2371 DUP4 PUSH2 0x122C JUMP JUMPDEST PUSH20 0xFFFFFFFFFFFFFFFFFFFFFFFFFFFFFFFFFFFFFFFF AND PUSH32 0x8C5BE1E5EBEC7D5BD14F71427D1E84F3DD0314C0F7B2291E5B200AC8C7C3B925 PUSH1 0x40 MLOAD PUSH1 0x40 MLOAD DUP1 SWAP2 SUB SWAP1 LOG4 POP POP JUMP JUMPDEST PUSH0 DUP1 PUSH2 0x23C2 DUP4 PUSH2 0x122C JUMP JUMPDEST SWAP1 POP DUP1 PUSH20 0xFFFFFFFFFFFFFFFFFFFFFFFFFFFFFFFFFFFFFFFF AND DUP5 PUSH20 0xFFFFFFFFFFFFFFFFFFFFFFFFFFFFFFFFFFFFFFFF AND EQ DUP1 PUSH2 0x2404 JUMPI POP PUSH2 0x2403 DUP2 DUP6 PUSH2 0x1C11 JUMP JUMPDEST JUMPDEST DUP1 PUSH2 0x2442 JUMPI POP DUP4 PUSH20 0xFFFFFFFFFFFFFFFFFFFFFFFFFFFFFFFFFFFFFFFF AND PUSH2 0x242A DUP5 PUSH2 0x880 JUMP JUMPDEST PUSH20 0xFFFFFFFFFFFFFFFFFFFFFFFFFFFFFFFFFFFFFFFF AND EQ JUMPDEST SWAP2 POP POP SWAP3 SWAP2 POP POP JUMP JUMPDEST DUP3 PUSH20 0xFFFFFFFFFFFFFFFFFFFFFFFFFFFFFFFFFFFFFFFF AND PUSH2 0x246B DUP3 PUSH2 0x122C JUMP JUMPDEST PUSH20 0xFFFFFFFFFFFFFFFFFFFFFFFFFFFFFFFFFFFFFFFF AND EQ PUSH2 0x24C1 JUMPI PUSH1 0x40 MLOAD PUSH32 0x8C379A000000000000000000000000000000000000000000000000000000000 DUP2 MSTORE PUSH1 0x4 ADD PUSH2 0x24B8 SWAP1 PUSH2 0x44CE JUMP JUMPDEST PUSH1 0x40 MLOAD DUP1 SWAP2 SUB SWAP1 REVERT JUMPDEST PUSH0 PUSH20 0xFFFFFFFFFFFFFFFFFFFFFFFFFFFFFFFFFFFFFFFF AND DUP3 PUSH20 0xFFFFFFFFFFFFFFFFFFFFFFFFFFFFFFFFFFFFFFFF AND SUB PUSH2 0x252F JUMPI PUSH1 0x40 MLOAD PUSH32 0x8C379A000000000000000000000000000000000000000000000000000000000 DUP2 MSTORE PUSH1 0x4 ADD PUSH2 0x2526 SWAP1 PUSH2 0x455C JUMP JUMPDEST PUSH1 0x40 MLOAD DUP1 SWAP2 SUB SWAP1 REVERT JUMPDEST PUSH2 0x253A DUP4 DUP4 DUP4 PUSH2 0x2AED JUMP JUMPDEST PUSH2 0x2544 PUSH0 DUP3 PUSH2 0x2301 JUMP JUMPDEST PUSH1 0x1 PUSH1 0x3 PUSH0 DUP6 PUSH20 0xFFFFFFFFFFFFFFFFFFFFFFFFFFFFFFFFFFFFFFFF AND PUSH20 0xFFFFFFFFFFFFFFFFFFFFFFFFFFFFFFFFFFFFFFFF AND DUP2 MSTORE PUSH1 0x20 ADD SWAP1 DUP2 MSTORE PUSH1 0x20 ADD PUSH0 KECCAK256 PUSH0 DUP3 DUP3 SLOAD PUSH2 0x2591 SWAP2 SWAP1 PUSH2 0x3BAE JUMP JUMPDEST SWAP3 POP POP DUP2 SWAP1 SSTORE POP PUSH1 0x1 PUSH1 0x3 PUSH0 DUP5 PUSH20 0xFFFFFFFFFFFFFFFFFFFFFFFFFFFFFFFFFFFFFFFF AND PUSH20 0xFFFFFFFFFFFFFFFFFFFFFFFFFFFFFFFFFFFFFFFF AND DUP2 MSTORE PUSH1 0x20 ADD SWAP1 DUP2 MSTORE PUSH1 0x20 ADD PUSH0 KECCAK256 PUSH0 DUP3 DUP3 SLOAD PUSH2 0x25E5 SWAP2 SWAP1 PUSH2 0x3ADD JUMP JUMPDEST SWAP3 POP POP DUP2 SWAP1 SSTORE POP DUP2 PUSH1 0x2 PUSH0 DUP4 DUP2 MSTORE PUSH1 0x20 ADD SWAP1 DUP2 MSTORE PUSH1 0x20 ADD PUSH0 KECCAK256 PUSH0 PUSH2 0x100 EXP DUP2 SLOAD DUP2 PUSH20 0xFFFFFFFFFFFFFFFFFFFFFFFFFFFFFFFFFFFFFFFF MUL NOT AND SWAP1 DUP4 PUSH20 0xFFFFFFFFFFFFFFFFFFFFFFFFFFFFFFFFFFFFFFFF AND MUL OR SWAP1 SSTORE POP DUP1 DUP3 PUSH20 0xFFFFFFFFFFFFFFFFFFFFFFFFFFFFFFFFFFFFFFFF AND DUP5 PUSH20 0xFFFFFFFFFFFFFFFFFFFFFFFFFFFFFFFFFFFFFFFF AND PUSH32 0xDDF252AD1BE2C89B69C2B068FC378DAA952BA7F163C4A11628F55A4DF523B3EF PUSH1 0x40 MLOAD PUSH1 0x40 MLOAD DUP1 SWAP2 SUB SWAP1 LOG4 POP POP POP JUMP JUMPDEST PUSH0 PUSH20 0xFFFFFFFFFFFFFFFFFFFFFFFFFFFFFFFFFFFFFFFF AND DUP3 PUSH20 0xFFFFFFFFFFFFFFFFFFFFFFFFFFFFFFFFFFFFFFFF AND SUB PUSH2 0x2709 JUMPI PUSH1 0x40 MLOAD PUSH32 0x8C379A000000000000000000000000000000000000000000000000000000000 DUP2 MSTORE PUSH1 0x4 ADD PUSH2 0x2700 SWAP1 PUSH2 0x45C4 JUMP JUMPDEST PUSH1 0x40 MLOAD DUP1 SWAP2 SUB SWAP1 REVERT JUMPDEST PUSH2 0x2712 DUP2 PUSH2 0x2292 JUMP JUMPDEST ISZERO PUSH2 0x2752 JUMPI PUSH1 0x40 MLOAD PUSH32 0x8C379A000000000000000000000000000000000000000000000000000000000 DUP2 MSTORE PUSH1 0x4 ADD PUSH2 0x2749 SWAP1 PUSH2 0x462C JUMP JUMPDEST PUSH1 0x40 MLOAD DUP1 SWAP2 SUB SWAP1 REVERT JUMPDEST PUSH2 0x275D PUSH0 DUP4 DUP4 PUSH2 0x2AED JUMP JUMPDEST PUSH1 0x1 PUSH1 0x3 PUSH0 DUP5 PUSH20 0xFFFFFFFFFFFFFFFFFFFFFFFFFFFFFFFFFFFFFFFF AND PUSH20 0xFFFFFFFFFFFFFFFFFFFFFFFFFFFFFFFFFFFFFFFF AND DUP2 MSTORE PUSH1 0x20 ADD SWAP1 DUP2 MSTORE PUSH1 0x20 ADD PUSH0 KECCAK256 PUSH0 DUP3 DUP3 SLOAD PUSH2 0x27AA SWAP2 SWAP1 PUSH2 0x3ADD JUMP JUMPDEST SWAP3 POP POP DUP2 SWAP1 SSTORE POP DUP2 PUSH1 0x2 PUSH0 DUP4 DUP2 MSTORE PUSH1 0x20 ADD SWAP1 DUP2 MSTORE PUSH1 0x20 ADD PUSH0 KECCAK256 PUSH0 PUSH2 0x100 EXP DUP2 SLOAD DUP2 PUSH20 0xFFFFFFFFFFFFFFFFFFFFFFFFFFFFFFFFFFFFFFFF MUL NOT AND SWAP1 DUP4 PUSH20 0xFFFFFFFFFFFFFFFFFFFFFFFFFFFFFFFFFFFFFFFF AND MUL OR SWAP1 SSTORE POP DUP1 DUP3 PUSH20 0xFFFFFFFFFFFFFFFFFFFFFFFFFFFFFFFFFFFFFFFF AND PUSH0 PUSH20 0xFFFFFFFFFFFFFFFFFFFFFFFFFFFFFFFFFFFFFFFF AND PUSH32 0xDDF252AD1BE2C89B69C2B068FC378DAA952BA7F163C4A11628F55A4DF523B3EF PUSH1 0x40 MLOAD PUSH1 0x40 MLOAD DUP1 SWAP2 SUB SWAP1 LOG4 POP POP JUMP JUMPDEST PUSH0 PUSH1 0x6 PUSH0 SWAP1 SLOAD SWAP1 PUSH2 0x100 EXP SWAP1 DIV PUSH20 0xFFFFFFFFFFFFFFFFFFFFFFFFFFFFFFFFFFFFFFFF AND SWAP1 POP DUP2 PUSH1 0x6 PUSH0 PUSH2 0x100 EXP DUP2 SLOAD DUP2 PUSH20 0xFFFFFFFFFFFFFFFFFFFFFFFFFFFFFFFFFFFFFFFF MUL NOT AND SWAP1 DUP4 PUSH20 0xFFFFFFFFFFFFFFFFFFFFFFFFFFFFFFFFFFFFFFFF AND MUL OR SWAP1 SSTORE POP DUP2 PUSH20 0xFFFFFFFFFFFFFFFFFFFFFFFFFFFFFFFFFFFFFFFF AND DUP2 PUSH20 0xFFFFFFFFFFFFFFFFFFFFFFFFFFFFFFFFFFFFFFFF AND PUSH32 0x8BE0079C531659141344CD1FD0A4F28419497F9722A3DAAFE3B4186F6B6457E0 PUSH1 0x40 MLOAD PUSH1 0x40 MLOAD DUP1 SWAP2 SUB SWAP1 LOG3 POP POP JUMP JUMPDEST PUSH2 0x292D DUP5 DUP5 DUP5 PUSH2 0x244B JUMP JUMPDEST PUSH2 0x2939 DUP5 DUP5 DUP5 DUP5 PUSH2 0x2AF2 JUMP JUMPDEST PUSH2 0x2978 JUMPI PUSH1 0x40 MLOAD PUSH32 0x8C379A000000000000000000000000000000000000000000000000000000000 DUP2 MSTORE PUSH1 0x4 ADD PUSH2 0x296F SWAP1 PUSH2 0x46BA JUMP JUMPDEST PUSH1 0x40 MLOAD DUP1 SWAP2 SUB SWAP1 REVERT JUMPDEST POP POP POP POP JUMP JUMPDEST PUSH1 0x60 PUSH1 0x40 MLOAD DUP1 PUSH1 0x20 ADD PUSH1 0x40 MSTORE DUP1 PUSH0 DUP2 MSTORE POP SWAP1 POP SWAP1 JUMP JUMPDEST PUSH1 0x60 PUSH0 DUP3 SUB PUSH2 0x29DA JUMPI PUSH1 0x40 MLOAD DUP1 PUSH1 0x40 ADD PUSH1 0x40 MSTORE DUP1 PUSH1 0x1 DUP2 MSTORE PUSH1 0x20 ADD PUSH32 0x3000000000000000000000000000000000000000000000000000000000000000 DUP2 MSTORE POP SWAP1 POP PUSH2 0x2AE8 JUMP JUMPDEST PUSH0 DUP3 SWAP1 POP PUSH0 JUMPDEST PUSH0 DUP3 EQ PUSH2 0x2A09 JUMPI DUP1 DUP1 PUSH2 0x29F2 SWAP1 PUSH2 0x3800 JUMP JUMPDEST SWAP2 POP POP PUSH1 0xA DUP3 PUSH2 0x2A02 SWAP2 SWAP1 PUSH2 0x3B7E JUMP JUMPDEST SWAP2 POP PUSH2 0x29E0 JUMP JUMPDEST PUSH0 DUP2 PUSH8 0xFFFFFFFFFFFFFFFF DUP2 GT ISZERO PUSH2 0x2A24 JUMPI PUSH2 0x2A23 PUSH2 0x3079 JUMP JUMPDEST JUMPDEST PUSH1 0x40 MLOAD SWAP1 DUP1 DUP3 MSTORE DUP1 PUSH1 0x1F ADD PUSH1 0x1F NOT AND PUSH1 0x20 ADD DUP3 ADD PUSH1 0x40 MSTORE DUP1 ISZERO PUSH2 0x2A56 JUMPI DUP2 PUSH1 0x20 ADD PUSH1 0x1 DUP3 MUL DUP1 CALLDATASIZE DUP4 CALLDATACOPY DUP1 DUP3 ADD SWAP2 POP POP SWAP1 POP JUMPDEST POP SWAP1 POP JUMPDEST PUSH0 DUP6 EQ PUSH2 0x2AE1 JUMPI PUSH1 0x1 DUP3 PUSH2 0x2A6E SWAP2 SWAP1 PUSH2 0x3BAE JUMP JUMPDEST SWAP2 POP PUSH1 0xA DUP6 PUSH2 0x2A7D SWAP2 SWAP1 PUSH2 0x46D8 JUMP JUMPDEST PUSH1 0x30 PUSH2 0x2A89 SWAP2 SWAP1 PUSH2 0x3ADD JUMP JUMPDEST PUSH1 0xF8 SHL DUP2 DUP4 DUP2 MLOAD DUP2 LT PUSH2 0x2A9F JUMPI PUSH2 0x2A9E PUSH2 0x3BE1 JUMP JUMPDEST JUMPDEST PUSH1 0x20 ADD ADD SWAP1 PUSH31 0xFFFFFFFFFFFFFFFFFFFFFFFFFFFFFFFFFFFFFFFFFFFFFFFFFFFFFFFFFFFFFF NOT AND SWAP1 DUP2 PUSH0 BYTE SWAP1 MSTORE8 POP PUSH1 0xA DUP6 PUSH2 0x2ADA SWAP2 SWAP1 PUSH2 0x3B7E JUMP JUMPDEST SWAP5 POP PUSH2 0x2A5A JUMP JUMPDEST DUP1 SWAP4 POP POP POP POP JUMPDEST SWAP2 SWAP1 POP JUMP JUMPDEST POP POP POP JUMP JUMPDEST PUSH0 PUSH2 0x2B12 DUP5 PUSH20 0xFFFFFFFFFFFFFFFFFFFFFFFFFFFFFFFFFFFFFFFF AND PUSH2 0x2C74 JUMP JUMPDEST ISZERO PUSH2 0x2C67 JUMPI DUP4 PUSH20 0xFFFFFFFFFFFFFFFFFFFFFFFFFFFFFFFFFFFFFFFF AND PUSH4 0x150B7A02 PUSH2 0x2B3B PUSH2 0x22FA JUMP JUMPDEST DUP8 DUP7 DUP7 PUSH1 0x40 MLOAD DUP6 PUSH4 0xFFFFFFFF AND PUSH1 0xE0 SHL DUP2 MSTORE PUSH1 0x4 ADD PUSH2 0x2B5D SWAP5 SWAP4 SWAP3 SWAP2 SWAP1 PUSH2 0x475A JUMP JUMPDEST PUSH1 0x20 PUSH1 0x40 MLOAD DUP1 DUP4 SUB DUP2 PUSH0 DUP8 GAS CALL SWAP3 POP POP POP DUP1 ISZERO PUSH2 0x2B98 JUMPI POP PUSH1 0x40 MLOAD RETURNDATASIZE PUSH1 0x1F NOT PUSH1 0x1F DUP3 ADD AND DUP3 ADD DUP1 PUSH1 0x40 MSTORE POP DUP2 ADD SWAP1 PUSH2 0x2B95 SWAP2 SWAP1 PUSH2 0x47B8 JUMP JUMPDEST PUSH1 0x1 JUMPDEST PUSH2 0x2C17 JUMPI RETURNDATASIZE DUP1 PUSH0 DUP2 EQ PUSH2 0x2BC6 JUMPI PUSH1 0x40 MLOAD SWAP2 POP PUSH1 0x1F NOT PUSH1 0x3F RETURNDATASIZE ADD AND DUP3 ADD PUSH1 0x40 MSTORE RETURNDATASIZE DUP3 MSTORE RETURNDATASIZE PUSH0 PUSH1 0x20 DUP5 ADD RETURNDATACOPY PUSH2 0x2BCB JUMP JUMPDEST PUSH1 0x60 SWAP2 POP JUMPDEST POP PUSH0 DUP2 MLOAD SUB PUSH2 0x2C0F JUMPI PUSH1 0x40 MLOAD PUSH32 0x8C379A000000000000000000000000000000000000000000000000000000000 DUP2 MSTORE PUSH1 0x4 ADD PUSH2 0x2C06 SWAP1 PUSH2 0x46BA JUMP JUMPDEST PUSH1 0x40 MLOAD DUP1 SWAP2 SUB SWAP1 REVERT JUMPDEST DUP1 MLOAD DUP2 PUSH1 0x20 ADD REVERT JUMPDEST PUSH4 0x150B7A02 PUSH1 0xE0 SHL PUSH28 0xFFFFFFFFFFFFFFFFFFFFFFFFFFFFFFFFFFFFFFFFFFFFFFFFFFFFFFFF NOT AND DUP2 PUSH28 0xFFFFFFFFFFFFFFFFFFFFFFFFFFFFFFFFFFFFFFFFFFFFFFFFFFFFFFFF NOT AND EQ SWAP2 POP POP PUSH2 0x2C6C JUMP JUMPDEST PUSH1 0x1 SWAP1 POP JUMPDEST SWAP5 SWAP4 POP POP POP POP JUMP JUMPDEST PUSH0 DUP1 DUP3 EXTCODESIZE SWAP1 POP PUSH0 DUP2 GT SWAP2 POP POP SWAP2 SWAP1 POP JUMP JUMPDEST PUSH0 PUSH1 0x40 MLOAD SWAP1 POP SWAP1 JUMP JUMPDEST PUSH0 DUP1 REVERT JUMPDEST PUSH0 DUP1 REVERT JUMPDEST PUSH0 PUSH32 0xFFFFFFFF00000000000000000000000000000000000000000000000000000000 DUP3 AND SWAP1 POP SWAP2 SWAP1 POP JUMP JUMPDEST PUSH2 0x2CCA DUP2 PUSH2 0x2C96 JUMP JUMPDEST DUP2 EQ PUSH2 0x2CD4 JUMPI PUSH0 DUP1 REVERT JUMPDEST POP JUMP JUMPDEST PUSH0 DUP2 CALLDATALOAD SWAP1 POP PUSH2 0x2CE5 DUP2 PUSH2 0x2CC1 JUMP JUMPDEST SWAP3 SWAP2 POP POP JUMP JUMPDEST PUSH0 PUSH1 0x20 DUP3 DUP5 SUB SLT ISZERO PUSH2 0x2D00 JUMPI PUSH2 0x2CFF PUSH2 0x2C8E JUMP JUMPDEST JUMPDEST PUSH0 PUSH2 0x2D0D DUP5 DUP3 DUP6 ADD PUSH2 0x2CD7 JUMP JUMPDEST SWAP2 POP POP SWAP3 SWAP2 POP POP JUMP JUMPDEST PUSH0 DUP2 ISZERO ISZERO SWAP1 POP SWAP2 SWAP1 POP JUMP JUMPDEST PUSH2 0x2D2A DUP2 PUSH2 0x2D16 JUMP JUMPDEST DUP3 MSTORE POP POP JUMP JUMPDEST PUSH0 PUSH1 0x20 DUP3 ADD SWAP1 POP PUSH2 0x2D43 PUSH0 DUP4 ADD DUP5 PUSH2 0x2D21 JUMP JUMPDEST SWAP3 SWAP2 POP POP JUMP JUMPDEST PUSH0 DUP2 MLOAD SWAP1 POP SWAP2 SWAP1 POP JUMP JUMPDEST PUSH0 DUP3 DUP3 MSTORE PUSH1 0x20 DUP3 ADD SWAP1 POP SWAP3 SWAP2 POP POP JUMP JUMPDEST DUP3 DUP2 DUP4 MCOPY PUSH0 DUP4 DUP4 ADD MSTORE POP POP POP JUMP JUMPDEST PUSH0 PUSH1 0x1F NOT PUSH1 0x1F DUP4 ADD AND SWAP1 POP SWAP2 SWAP1 POP JUMP JUMPDEST PUSH0 PUSH2 0x2D8B DUP3 PUSH2 0x2D49 JUMP JUMPDEST PUSH2 0x2D95 DUP2 DUP6 PUSH2 0x2D53 JUMP JUMPDEST SWAP4 POP PUSH2 0x2DA5 DUP2 DUP6 PUSH1 0x20 DUP7 ADD PUSH2 0x2D63 JUMP JUMPDEST PUSH2 0x2DAE DUP2 PUSH2 0x2D71 JUMP JUMPDEST DUP5 ADD SWAP2 POP POP SWAP3 SWAP2 POP POP JUMP JUMPDEST PUSH0 PUSH1 0x20 DUP3 ADD SWAP1 POP DUP2 DUP2 SUB PUSH0 DUP4 ADD MSTORE PUSH2 0x2DD1 DUP2 DUP5 PUSH2 0x2D81 JUMP JUMPDEST SWAP1 POP SWAP3 SWAP2 POP POP JUMP JUMPDEST PUSH0 DUP2 SWAP1 POP SWAP2 SWAP1 POP JUMP JUMPDEST PUSH2 0x2DEB DUP2 PUSH2 0x2DD9 JUMP JUMPDEST DUP2 EQ PUSH2 0x2DF5 JUMPI PUSH0 DUP1 REVERT JUMPDEST POP JUMP JUMPDEST PUSH0 DUP2 CALLDATALOAD SWAP1 POP PUSH2 0x2E06 DUP2 PUSH2 0x2DE2 JUMP JUMPDEST SWAP3 SWAP2 POP POP JUMP JUMPDEST PUSH0 PUSH1 0x20 DUP3 DUP5 SUB SLT ISZERO PUSH2 0x2E21 JUMPI PUSH2 0x2E20 PUSH2 0x2C8E JUMP JUMPDEST JUMPDEST PUSH0 PUSH2 0x2E2E DUP5 DUP3 DUP6 ADD PUSH2 0x2DF8 JUMP JUMPDEST SWAP2 POP POP SWAP3 SWAP2 POP POP JUMP JUMPDEST PUSH0 PUSH20 0xFFFFFFFFFFFFFFFFFFFFFFFFFFFFFFFFFFFFFFFF DUP3 AND SWAP1 POP SWAP2 SWAP1 POP JUMP JUMPDEST PUSH0 PUSH2 0x2E60 DUP3 PUSH2 0x2E37 JUMP JUMPDEST SWAP1 POP SWAP2 SWAP1 POP JUMP JUMPDEST PUSH2 0x2E70 DUP2 PUSH2 0x2E56 JUMP JUMPDEST DUP3 MSTORE POP POP JUMP JUMPDEST PUSH0 PUSH1 0x20 DUP3 ADD SWAP1 POP PUSH2 0x2E89 PUSH0 DUP4 ADD DUP5 PUSH2 0x2E67 JUMP JUMPDEST SWAP3 SWAP2 POP POP JUMP JUMPDEST PUSH2 0x2E98 DUP2 PUSH2 0x2E56 JUMP JUMPDEST DUP2 EQ PUSH2 0x2EA2 JUMPI PUSH0 DUP1 REVERT JUMPDEST POP JUMP JUMPDEST PUSH0 DUP2 CALLDATALOAD SWAP1 POP PUSH2 0x2EB3 DUP2 PUSH2 0x2E8F JUMP JUMPDEST SWAP3 SWAP2 POP POP JUMP JUMPDEST PUSH0 DUP1 PUSH1 0x40 DUP4 DUP6 SUB SLT ISZERO PUSH2 0x2ECF JUMPI PUSH2 0x2ECE PUSH2 0x2C8E JUMP JUMPDEST JUMPDEST PUSH0 PUSH2 0x2EDC DUP6 DUP3 DUP7 ADD PUSH2 0x2EA5 JUMP JUMPDEST SWAP3 POP POP PUSH1 0x20 PUSH2 0x2EED DUP6 DUP3 DUP7 ADD PUSH2 0x2DF8 JUMP JUMPDEST SWAP2 POP POP SWAP3 POP SWAP3 SWAP1 POP JUMP JUMPDEST PUSH0 DUP1 PUSH0 PUSH1 0x60 DUP5 DUP7 SUB SLT ISZERO PUSH2 0x2F0E JUMPI PUSH2 0x2F0D PUSH2 0x2C8E JUMP JUMPDEST JUMPDEST PUSH0 PUSH2 0x2F1B DUP7 DUP3 DUP8 ADD PUSH2 0x2EA5 JUMP JUMPDEST SWAP4 POP POP PUSH1 0x20 PUSH2 0x2F2C DUP7 DUP3 DUP8 ADD PUSH2 0x2EA5 JUMP JUMPDEST SWAP3 POP POP PUSH1 0x40 PUSH2 0x2F3D DUP7 DUP3 DUP8 ADD PUSH2 0x2DF8 JUMP JUMPDEST SWAP2 POP POP SWAP3 POP SWAP3 POP SWAP3 JUMP JUMPDEST PUSH0 DUP1 PUSH1 0x40 DUP4 DUP6 SUB SLT ISZERO PUSH2 0x2F5D JUMPI PUSH2 0x2F5C PUSH2 0x2C8E JUMP JUMPDEST JUMPDEST PUSH0 PUSH2 0x2F6A DUP6 DUP3 DUP7 ADD PUSH2 0x2DF8 JUMP JUMPDEST SWAP3 POP POP PUSH1 0x20 PUSH2 0x2F7B DUP6 DUP3 DUP7 ADD PUSH2 0x2EA5 JUMP JUMPDEST SWAP2 POP POP SWAP3 POP SWAP3 SWAP1 POP JUMP JUMPDEST PUSH2 0x2F8E DUP2 PUSH2 0x2DD9 JUMP JUMPDEST DUP3 MSTORE POP POP JUMP JUMPDEST PUSH0 PUSH1 0x20 DUP3 ADD SWAP1 POP PUSH2 0x2FA7 PUSH0 DUP4 ADD DUP5 PUSH2 0x2F85 JUMP JUMPDEST SWAP3 SWAP2 POP POP JUMP JUMPDEST PUSH0 PUSH2 0x120 DUP3 ADD SWAP1 POP PUSH2 0x2FC1 PUSH0 DUP4 ADD DUP13 PUSH2 0x2F85 JUMP JUMPDEST DUP2 DUP2 SUB PUSH1 0x20 DUP4 ADD MSTORE PUSH2 0x2FD3 DUP2 DUP12 PUSH2 0x2D81 JUMP JUMPDEST SWAP1 POP DUP2 DUP2 SUB PUSH1 0x40 DUP4 ADD MSTORE PUSH2 0x2FE7 DUP2 DUP11 PUSH2 0x2D81 JUMP JUMPDEST SWAP1 POP PUSH2 0x2FF6 PUSH1 0x60 DUP4 ADD DUP10 PUSH2 0x2E67 JUMP JUMPDEST PUSH2 0x3003 PUSH1 0x80 DUP4 ADD DUP9 PUSH2 0x2F85 JUMP JUMPDEST PUSH2 0x3010 PUSH1 0xA0 DUP4 ADD DUP8 PUSH2 0x2F85 JUMP JUMPDEST PUSH2 0x301D PUSH1 0xC0 DUP4 ADD DUP7 PUSH2 0x2F85 JUMP JUMPDEST PUSH2 0x302A PUSH1 0xE0 DUP4 ADD DUP6 PUSH2 0x2F85 JUMP JUMPDEST PUSH2 0x3038 PUSH2 0x100 DUP4 ADD DUP5 PUSH2 0x2F85 JUMP JUMPDEST SWAP11 SWAP10 POP POP POP POP POP POP POP POP POP POP JUMP JUMPDEST PUSH0 PUSH1 0x20 DUP3 DUP5 SUB SLT ISZERO PUSH2 0x305B JUMPI PUSH2 0x305A PUSH2 0x2C8E JUMP JUMPDEST JUMPDEST PUSH0 PUSH2 0x3068 DUP5 DUP3 DUP6 ADD PUSH2 0x2EA5 JUMP JUMPDEST SWAP2 POP POP SWAP3 SWAP2 POP POP JUMP JUMPDEST PUSH0 DUP1 REVERT JUMPDEST PUSH0 DUP1 REVERT JUMPDEST PUSH32 0x4E487B7100000000000000000000000000000000000000000000000000000000 PUSH0 MSTORE PUSH1 0x41 PUSH1 0x4 MSTORE PUSH1 0x24 PUSH0 REVERT JUMPDEST PUSH2 0x30AF DUP3 PUSH2 0x2D71 JUMP JUMPDEST DUP2 ADD DUP2 DUP2 LT PUSH8 0xFFFFFFFFFFFFFFFF DUP3 GT OR ISZERO PUSH2 0x30CE JUMPI PUSH2 0x30CD PUSH2 0x3079 JUMP JUMPDEST JUMPDEST DUP1 PUSH1 0x40 MSTORE POP POP POP JUMP JUMPDEST PUSH0 PUSH2 0x30E0 PUSH2 0x2C85 JUMP JUMPDEST SWAP1 POP PUSH2 0x30EC DUP3 DUP3 PUSH2 0x30A6 JUMP JUMPDEST SWAP2 SWAP1 POP JUMP JUMPDEST PUSH0 PUSH8 0xFFFFFFFFFFFFFFFF DUP3 GT ISZERO PUSH2 0x310B JUMPI PUSH2 0x310A PUSH2 0x3079 JUMP JUMPDEST JUMPDEST PUSH2 0x3114 DUP3 PUSH2 0x2D71 JUMP JUMPDEST SWAP1 POP PUSH1 0x20 DUP2 ADD SWAP1 POP SWAP2 SWAP1 POP JUMP JUMPDEST DUP3 DUP2 DUP4 CALLDATACOPY PUSH0 DUP4 DUP4 ADD MSTORE POP POP POP JUMP JUMPDEST PUSH0 PUSH2 0x3141 PUSH2 0x313C DUP5 PUSH2 0x30F1 JUMP JUMPDEST PUSH2 0x30D7 JUMP JUMPDEST SWAP1 POP DUP3 DUP2 MSTORE PUSH1 0x20 DUP2 ADD DUP5 DUP5 DUP5 ADD GT ISZERO PUSH2 0x315D JUMPI PUSH2 0x315C PUSH2 0x3075 JUMP JUMPDEST JUMPDEST PUSH2 0x3168 DUP5 DUP3 DUP6 PUSH2 0x3121 JUMP JUMPDEST POP SWAP4 SWAP3 POP POP POP JUMP JUMPDEST PUSH0 DUP3 PUSH1 0x1F DUP4 ADD SLT PUSH2 0x3184 JUMPI PUSH2 0x3183 PUSH2 0x3071 JUMP JUMPDEST JUMPDEST DUP2 CALLDATALOAD PUSH2 0x3194 DUP5 DUP3 PUSH1 0x20 DUP7 ADD PUSH2 0x312F JUMP JUMPDEST SWAP2 POP POP SWAP3 SWAP2 POP POP JUMP JUMPDEST PUSH0 DUP1 PUSH0 DUP1 PUSH0 DUP1 PUSH0 DUP1 PUSH2 0x100 DUP10 DUP12 SUB SLT ISZERO PUSH2 0x31BA JUMPI PUSH2 0x31B9 PUSH2 0x2C8E JUMP JUMPDEST JUMPDEST PUSH0 PUSH2 0x31C7 DUP12 DUP3 DUP13 ADD PUSH2 0x2DF8 JUMP JUMPDEST SWAP9 POP POP PUSH1 0x20 DUP10 ADD CALLDATALOAD PUSH8 0xFFFFFFFFFFFFFFFF DUP2 GT ISZERO PUSH2 0x31E8 JUMPI PUSH2 0x31E7 PUSH2 0x2C92 JUMP JUMPDEST JUMPDEST PUSH2 0x31F4 DUP12 DUP3 DUP13 ADD PUSH2 0x3170 JUMP JUMPDEST SWAP8 POP POP PUSH1 0x40 DUP10 ADD CALLDATALOAD PUSH8 0xFFFFFFFFFFFFFFFF DUP2 GT ISZERO PUSH2 0x3215 JUMPI PUSH2 0x3214 PUSH2 0x2C92 JUMP JUMPDEST JUMPDEST PUSH2 0x3221 DUP12 DUP3 DUP13 ADD PUSH2 0x3170 JUMP JUMPDEST SWAP7 POP POP PUSH1 0x60 PUSH2 0x3232 DUP12 DUP3 DUP13 ADD PUSH2 0x2EA5 JUMP JUMPDEST SWAP6 POP POP PUSH1 0x80 PUSH2 0x3243 DUP12 DUP3 DUP13 ADD PUSH2 0x2DF8 JUMP JUMPDEST SWAP5 POP POP PUSH1 0xA0 PUSH2 0x3254 DUP12 DUP3 DUP13 ADD PUSH2 0x2DF8 JUMP JUMPDEST SWAP4 POP POP PUSH1 0xC0 PUSH2 0x3265 DUP12 DUP3 DUP13 ADD PUSH2 0x2DF8 JUMP JUMPDEST SWAP3 POP POP PUSH1 0xE0 PUSH2 0x3276 DUP12 DUP3 DUP13 ADD PUSH2 0x2DF8 JUMP JUMPDEST SWAP2 POP POP SWAP3 SWAP6 SWAP9 POP SWAP3 SWAP6 SWAP9 SWAP1 SWAP4 SWAP7 POP JUMP JUMPDEST PUSH0 PUSH1 0x40 DUP3 ADD SWAP1 POP PUSH2 0x3299 PUSH0 DUP4 ADD DUP6 PUSH2 0x2F85 JUMP JUMPDEST PUSH2 0x32A6 PUSH1 0x20 DUP4 ADD DUP5 PUSH2 0x2F85 JUMP JUMPDEST SWAP4 SWAP3 POP POP POP JUMP JUMPDEST PUSH2 0x32B6 DUP2 PUSH2 0x2D16 JUMP JUMPDEST DUP2 EQ PUSH2 0x32C0 JUMPI PUSH0 DUP1 REVERT JUMPDEST POP JUMP JUMPDEST PUSH0 DUP2 CALLDATALOAD SWAP1 POP PUSH2 0x32D1 DUP2 PUSH2 0x32AD JUMP JUMPDEST SWAP3 SWAP2 POP POP JUMP JUMPDEST PUSH0 DUP1 PUSH1 0x40 DUP4 DUP6 SUB SLT ISZERO PUSH2 0x32ED JUMPI PUSH2 0x32EC PUSH2 0x2C8E JUMP JUMPDEST JUMPDEST PUSH0 PUSH2 0x32FA DUP6 DUP3 DUP7 ADD PUSH2 0x2EA5 JUMP JUMPDEST SWAP3 POP POP PUSH1 0x20 PUSH2 0x330B DUP6 DUP3 DUP7 ADD PUSH2 0x32C3 JUMP JUMPDEST SWAP2 POP POP SWAP3 POP SWAP3 SWAP1 POP JUMP JUMPDEST PUSH0 PUSH8 0xFFFFFFFFFFFFFFFF DUP3 GT ISZERO PUSH2 0x332F JUMPI PUSH2 0x332E PUSH2 0x3079 JUMP JUMPDEST JUMPDEST PUSH2 0x3338 DUP3 PUSH2 0x2D71 JUMP JUMPDEST SWAP1 POP PUSH1 0x20 DUP2 ADD SWAP1 POP SWAP2 SWAP1 POP JUMP JUMPDEST PUSH0 PUSH2 0x3357 PUSH2 0x3352 DUP5 PUSH2 0x3315 JUMP JUMPDEST PUSH2 0x30D7 JUMP JUMPDEST SWAP1 POP DUP3 DUP2 MSTORE PUSH1 0x20 DUP2 ADD DUP5 DUP5 DUP5 ADD GT ISZERO PUSH2 0x3373 JUMPI PUSH2 0x3372 PUSH2 0x3075 JUMP JUMPDEST JUMPDEST PUSH2 0x337E DUP5 DUP3 DUP6 PUSH2 0x3121 JUMP JUMPDEST POP SWAP4 SWAP3 POP POP POP JUMP JUMPDEST PUSH0 DUP3 PUSH1 0x1F DUP4 ADD SLT PUSH2 0x339A JUMPI PUSH2 0x3399 PUSH2 0x3071 JUMP JUMPDEST JUMPDEST DUP2 CALLDATALOAD PUSH2 0x33AA DUP5 DUP3 PUSH1 0x20 DUP7 ADD PUSH2 0x3345 JUMP JUMPDEST SWAP2 POP POP SWAP3 SWAP2 POP POP JUMP JUMPDEST PUSH0 DUP1 PUSH0 DUP1 PUSH1 0x80 DUP6 DUP8 SUB SLT ISZERO PUSH2 0x33CB JUMPI PUSH2 0x33CA PUSH2 0x2C8E JUMP JUMPDEST JUMPDEST PUSH0 PUSH2 0x33D8 DUP8 DUP3 DUP9 ADD PUSH2 0x2EA5 JUMP JUMPDEST SWAP5 POP POP PUSH1 0x20 PUSH2 0x33E9 DUP8 DUP3 DUP9 ADD PUSH2 0x2EA5 JUMP JUMPDEST SWAP4 POP POP PUSH1 0x40 PUSH2 0x33FA DUP8 DUP3 DUP9 ADD PUSH2 0x2DF8 JUMP JUMPDEST SWAP3 POP POP PUSH1 0x60 DUP6 ADD CALLDATALOAD PUSH8 0xFFFFFFFFFFFFFFFF DUP2 GT ISZERO PUSH2 0x341B JUMPI PUSH2 0x341A PUSH2 0x2C92 JUMP JUMPDEST JUMPDEST PUSH2 0x3427 DUP8 DUP3 DUP9 ADD PUSH2 0x3386 JUMP JUMPDEST SWAP2 POP POP SWAP3 SWAP6 SWAP2 SWAP5 POP SWAP3 POP JUMP JUMPDEST PUSH0 DUP1 PUSH1 0x40 DUP4 DUP6 SUB SLT ISZERO PUSH2 0x3449 JUMPI PUSH2 0x3448 PUSH2 0x2C8E JUMP JUMPDEST JUMPDEST PUSH0 PUSH2 0x3456 DUP6 DUP3 DUP7 ADD PUSH2 0x2DF8 JUMP JUMPDEST SWAP3 POP POP PUSH1 0x20 PUSH2 0x3467 DUP6 DUP3 DUP7 ADD PUSH2 0x2DF8 JUMP JUMPDEST SWAP2 POP POP SWAP3 POP SWAP3 SWAP1 POP JUMP JUMPDEST PUSH0 DUP1 PUSH1 0x40 DUP4 DUP6 SUB SLT ISZERO PUSH2 0x3487 JUMPI PUSH2 0x3486 PUSH2 0x2C8E JUMP JUMPDEST JUMPDEST PUSH0 PUSH2 0x3494 DUP6 DUP3 DUP7 ADD PUSH2 0x2EA5 JUMP JUMPDEST SWAP3 POP POP PUSH1 0x20 PUSH2 0x34A5 DUP6 DUP3 DUP7 ADD PUSH2 0x2EA5 JUMP JUMPDEST SWAP2 POP POP SWAP3 POP SWAP3 SWAP1 POP JUMP JUMPDEST PUSH32 0x4E487B7100000000000000000000000000000000000000000000000000000000 PUSH0 MSTORE PUSH1 0x22 PUSH1 0x4 MSTORE PUSH1 0x24 PUSH0 REVERT JUMPDEST PUSH0 PUSH1 0x2 DUP3 DIV SWAP1 POP PUSH1 0x1 DUP3 AND DUP1 PUSH2 0x34F3 JUMPI PUSH1 0x7F DUP3 AND SWAP2 POP JUMPDEST PUSH1 0x20 DUP3 LT DUP2 SUB PUSH2 0x3506 JUMPI PUSH2 0x3505 PUSH2 0x34AF JUMP JUMPDEST JUMPDEST POP SWAP2 SWAP1 POP JUMP JUMPDEST PUSH32 0x4552433732313A20617070726F76656420717565727920666F72206E6F6E6578 PUSH0 DUP3 ADD MSTORE PUSH32 0x697374656E7420746F6B656E0000000000000000000000000000000000000000 PUSH1 0x20 DUP3 ADD MSTORE POP JUMP JUMPDEST PUSH0 PUSH2 0x3566 PUSH1 0x2C DUP4 PUSH2 0x2D53 JUMP JUMPDEST SWAP2 POP PUSH2 0x3571 DUP3 PUSH2 0x350C JUMP JUMPDEST PUSH1 0x40 DUP3 ADD SWAP1 POP SWAP2 SWAP1 POP JUMP JUMPDEST PUSH0 PUSH1 0x20 DUP3 ADD SWAP1 POP DUP2 DUP2 SUB PUSH0 DUP4 ADD MSTORE PUSH2 0x3593 DUP2 PUSH2 0x355A JUMP JUMPDEST SWAP1 POP SWAP2 SWAP1 POP JUMP JUMPDEST PUSH32 0x4552433732313A20617070726F76616C20746F2063757272656E74206F776E65 PUSH0 DUP3 ADD MSTORE PUSH32 0x7200000000000000000000000000000000000000000000000000000000000000 PUSH1 0x20 DUP3 ADD MSTORE POP JUMP JUMPDEST PUSH0 PUSH2 0x35F4 PUSH1 0x21 DUP4 PUSH2 0x2D53 JUMP JUMPDEST SWAP2 POP PUSH2 0x35FF DUP3 PUSH2 0x359A JUMP JUMPDEST PUSH1 0x40 DUP3 ADD SWAP1 POP SWAP2 SWAP1 POP JUMP JUMPDEST PUSH0 PUSH1 0x20 DUP3 ADD SWAP1 POP DUP2 DUP2 SUB PUSH0 DUP4 ADD MSTORE PUSH2 0x3621 DUP2 PUSH2 0x35E8 JUMP JUMPDEST SWAP1 POP SWAP2 SWAP1 POP JUMP JUMPDEST PUSH32 0x4552433732313A20617070726F76652063616C6C6572206973206E6F74206F77 PUSH0 DUP3 ADD MSTORE PUSH32 0x6E6572206E6F7220617070726F76656420666F7220616C6C0000000000000000 PUSH1 0x20 DUP3 ADD MSTORE POP JUMP JUMPDEST PUSH0 PUSH2 0x3682 PUSH1 0x38 DUP4 PUSH2 0x2D53 JUMP JUMPDEST SWAP2 POP PUSH2 0x368D DUP3 PUSH2 0x3628 JUMP JUMPDEST PUSH1 0x40 DUP3 ADD SWAP1 POP SWAP2 SWAP1 POP JUMP JUMPDEST PUSH0 PUSH1 0x20 DUP3 ADD SWAP1 POP DUP2 DUP2 SUB PUSH0 DUP4 ADD MSTORE PUSH2 0x36AF DUP2 PUSH2 0x3676 JUMP JUMPDEST SWAP1 POP SWAP2 SWAP1 POP JUMP JUMPDEST PUSH32 0x4552433732313A207472616E736665722063616C6C6572206973206E6F74206F PUSH0 DUP3 ADD MSTORE PUSH32 0x776E6572206E6F7220617070726F766564000000000000000000000000000000 PUSH1 0x20 DUP3 ADD MSTORE POP JUMP JUMPDEST PUSH0 PUSH2 0x3710 PUSH1 0x31 DUP4 PUSH2 0x2D53 JUMP JUMPDEST SWAP2 POP PUSH2 0x371B DUP3 PUSH2 0x36B6 JUMP JUMPDEST PUSH1 0x40 DUP3 ADD SWAP1 POP SWAP2 SWAP1 POP JUMP JUMPDEST PUSH0 PUSH1 0x20 DUP3 ADD SWAP1 POP DUP2 DUP2 SUB PUSH0 DUP4 ADD MSTORE PUSH2 0x373D DUP2 PUSH2 0x3704 JUMP JUMPDEST SWAP1 POP SWAP2 SWAP1 POP JUMP JUMPDEST PUSH32 0x4E6F7420746865206F776E6572206F7220617070726F76656400000000000000 PUSH0 DUP3 ADD MSTORE POP JUMP JUMPDEST PUSH0 PUSH2 0x3778 PUSH1 0x19 DUP4 PUSH2 0x2D53 JUMP JUMPDEST SWAP2 POP PUSH2 0x3783 DUP3 PUSH2 0x3744 JUMP JUMPDEST PUSH1 0x20 DUP3 ADD SWAP1 POP SWAP2 SWAP1 POP JUMP JUMPDEST PUSH0 PUSH1 0x20 DUP3 ADD SWAP1 POP DUP2 DUP2 SUB PUSH0 DUP4 ADD MSTORE PUSH2 0x37A5 DUP2 PUSH2 0x376C JUMP JUMPDEST SWAP1 POP SWAP2 SWAP1 POP JUMP JUMPDEST PUSH32 0x4E487B7100000000000000000000000000000000000000000000000000000000 PUSH0 MSTORE PUSH1 0x11 PUSH1 0x4 MSTORE PUSH1 0x24 PUSH0 REVERT JUMPDEST PUSH0 PUSH2 0x37E3 DUP3 PUSH2 0x2DD9 JUMP JUMPDEST SWAP2 POP PUSH0 DUP3 SUB PUSH2 0x37F5 JUMPI PUSH2 0x37F4 PUSH2 0x37AC JUMP JUMPDEST JUMPDEST PUSH1 0x1 DUP3 SUB SWAP1 POP SWAP2 SWAP1 POP JUMP JUMPDEST PUSH0 PUSH2 0x380A DUP3 PUSH2 0x2DD9 JUMP JUMPDEST SWAP2 POP PUSH32 0xFFFFFFFFFFFFFFFFFFFFFFFFFFFFFFFFFFFFFFFFFFFFFFFFFFFFFFFFFFFFFFFF DUP3 SUB PUSH2 0x383C JUMPI PUSH2 0x383B PUSH2 0x37AC JUMP JUMPDEST JUMPDEST PUSH1 0x1 DUP3 ADD SWAP1 POP SWAP2 SWAP1 POP JUMP JUMPDEST PUSH32 0x4F776E61626C653A2063616C6C6572206973206E6F7420746865206F776E6572 PUSH0 DUP3 ADD MSTORE POP JUMP JUMPDEST PUSH0 PUSH2 0x387B PUSH1 0x20 DUP4 PUSH2 0x2D53 JUMP JUMPDEST SWAP2 POP PUSH2 0x3886 DUP3 PUSH2 0x3847 JUMP JUMPDEST PUSH1 0x20 DUP3 ADD SWAP1 POP SWAP2 SWAP1 POP JUMP JUMPDEST PUSH0 PUSH1 0x20 DUP3 ADD SWAP1 POP DUP2 DUP2 SUB PUSH0 DUP4 ADD MSTORE PUSH2 0x38A8 DUP2 PUSH2 0x386F JUMP JUMPDEST SWAP1 POP SWAP2 SWAP1 POP JUMP JUMPDEST PUSH32 0x4E6F2066756E647320746F207769746864726177000000000000000000000000 PUSH0 DUP3 ADD MSTORE POP JUMP JUMPDEST PUSH0 PUSH2 0x38E3 PUSH1 0x14 DUP4 PUSH2 0x2D53 JUMP JUMPDEST SWAP2 POP PUSH2 0x38EE DUP3 PUSH2 0x38AF JUMP JUMPDEST PUSH1 0x20 DUP3 ADD SWAP1 POP SWAP2 SWAP1 POP JUMP JUMPDEST PUSH0 PUSH1 0x20 DUP3 ADD SWAP1 POP DUP2 DUP2 SUB PUSH0 DUP4 ADD MSTORE PUSH2 0x3910 DUP2 PUSH2 0x38D7 JUMP JUMPDEST SWAP1 POP SWAP2 SWAP1 POP JUMP JUMPDEST PUSH32 0x596F7520646F6E2774206F776E2074686973204E465400000000000000000000 PUSH0 DUP3 ADD MSTORE POP JUMP JUMPDEST PUSH0 PUSH2 0x394B PUSH1 0x16 DUP4 PUSH2 0x2D53 JUMP JUMPDEST SWAP2 POP PUSH2 0x3956 DUP3 PUSH2 0x3917 JUMP JUMPDEST PUSH1 0x20 DUP3 ADD SWAP1 POP SWAP2 SWAP1 POP JUMP JUMPDEST PUSH0 PUSH1 0x20 DUP3 ADD SWAP1 POP DUP2 DUP2 SUB PUSH0 DUP4 ADD MSTORE PUSH2 0x3978 DUP2 PUSH2 0x393F JUMP JUMPDEST SWAP1 POP SWAP2 SWAP1 POP JUMP JUMPDEST PUSH32 0x5072696365206E6F742073657420666F722074686973204E4654000000000000 PUSH0 DUP3 ADD MSTORE POP JUMP JUMPDEST PUSH0 PUSH2 0x39B3 PUSH1 0x1A DUP4 PUSH2 0x2D53 JUMP JUMPDEST SWAP2 POP PUSH2 0x39BE DUP3 PUSH2 0x397F JUMP JUMPDEST PUSH1 0x20 DUP3 ADD SWAP1 POP SWAP2 SWAP1 POP JUMP JUMPDEST PUSH0 PUSH1 0x20 DUP3 ADD SWAP1 POP DUP2 DUP2 SUB PUSH0 DUP4 ADD MSTORE PUSH2 0x39E0 DUP2 PUSH2 0x39A7 JUMP JUMPDEST SWAP1 POP SWAP2 SWAP1 POP JUMP JUMPDEST PUSH32 0x496E73756666696369656E742066756E647320746F2062757920746865204E46 PUSH0 DUP3 ADD MSTORE PUSH32 0x5400000000000000000000000000000000000000000000000000000000000000 PUSH1 0x20 DUP3 ADD MSTORE POP JUMP JUMPDEST PUSH0 PUSH2 0x3A41 PUSH1 0x21 DUP4 PUSH2 0x2D53 JUMP JUMPDEST SWAP2 POP PUSH2 0x3A4C DUP3 PUSH2 0x39E7 JUMP JUMPDEST PUSH1 0x40 DUP3 ADD SWAP1 POP SWAP2 SWAP1 POP JUMP JUMPDEST PUSH0 PUSH1 0x20 DUP3 ADD SWAP1 POP DUP2 DUP2 SUB PUSH0 DUP4 ADD MSTORE PUSH2 0x3A6E DUP2 PUSH2 0x3A35 JUMP JUMPDEST SWAP1 POP SWAP2 SWAP1 POP JUMP JUMPDEST PUSH32 0x4E6F20737570706C7920617661696C61626C6500000000000000000000000000 PUSH0 DUP3 ADD MSTORE POP JUMP JUMPDEST PUSH0 PUSH2 0x3AA9 PUSH1 0x13 DUP4 PUSH2 0x2D53 JUMP JUMPDEST SWAP2 POP PUSH2 0x3AB4 DUP3 PUSH2 0x3A75 JUMP JUMPDEST PUSH1 0x20 DUP3 ADD SWAP1 POP SWAP2 SWAP1 POP JUMP JUMPDEST PUSH0 PUSH1 0x20 DUP3 ADD SWAP1 POP DUP2 DUP2 SUB PUSH0 DUP4 ADD MSTORE PUSH2 0x3AD6 DUP2 PUSH2 0x3A9D JUMP JUMPDEST SWAP1 POP SWAP2 SWAP1 POP JUMP JUMPDEST PUSH0 PUSH2 0x3AE7 DUP3 PUSH2 0x2DD9 JUMP JUMPDEST SWAP2 POP PUSH2 0x3AF2 DUP4 PUSH2 0x2DD9 JUMP JUMPDEST SWAP3 POP DUP3 DUP3 ADD SWAP1 POP DUP1 DUP3 GT ISZERO PUSH2 0x3B0A JUMPI PUSH2 0x3B09 PUSH2 0x37AC JUMP JUMPDEST JUMPDEST SWAP3 SWAP2 POP POP JUMP JUMPDEST PUSH0 PUSH2 0x3B1A DUP3 PUSH2 0x2DD9 JUMP JUMPDEST SWAP2 POP PUSH2 0x3B25 DUP4 PUSH2 0x2DD9 JUMP JUMPDEST SWAP3 POP DUP3 DUP3 MUL PUSH2 0x3B33 DUP2 PUSH2 0x2DD9 JUMP JUMPDEST SWAP2 POP DUP3 DUP3 DIV DUP5 EQ DUP4 ISZERO OR PUSH2 0x3B4A JUMPI PUSH2 0x3B49 PUSH2 0x37AC JUMP JUMPDEST JUMPDEST POP SWAP3 SWAP2 POP POP JUMP JUMPDEST PUSH32 0x4E487B7100000000000000000000000000000000000000000000000000000000 PUSH0 MSTORE PUSH1 0x12 PUSH1 0x4 MSTORE PUSH1 0x24 PUSH0 REVERT JUMPDEST PUSH0 PUSH2 0x3B88 DUP3 PUSH2 0x2DD9 JUMP JUMPDEST SWAP2 POP PUSH2 0x3B93 DUP4 PUSH2 0x2DD9 JUMP JUMPDEST SWAP3 POP DUP3 PUSH2 0x3BA3 JUMPI PUSH2 0x3BA2 PUSH2 0x3B51 JUMP JUMPDEST JUMPDEST DUP3 DUP3 DIV SWAP1 POP SWAP3 SWAP2 POP POP JUMP JUMPDEST PUSH0 PUSH2 0x3BB8 DUP3 PUSH2 0x2DD9 JUMP JUMPDEST SWAP2 POP PUSH2 0x3BC3 DUP4 PUSH2 0x2DD9 JUMP JUMPDEST SWAP3 POP DUP3 DUP3 SUB SWAP1 POP DUP2 DUP2 GT ISZERO PUSH2 0x3BDB JUMPI PUSH2 0x3BDA PUSH2 0x37AC JUMP JUMPDEST JUMPDEST SWAP3 SWAP2 POP POP JUMP JUMPDEST PUSH32 0x4E487B7100000000000000000000000000000000000000000000000000000000 PUSH0 MSTORE PUSH1 0x32 PUSH1 0x4 MSTORE PUSH1 0x24 PUSH0 REVERT JUMPDEST PUSH32 0x4552433732313A206F776E657220717565727920666F72206E6F6E6578697374 PUSH0 DUP3 ADD MSTORE PUSH32 0x656E7420746F6B656E0000000000000000000000000000000000000000000000 PUSH1 0x20 DUP3 ADD MSTORE POP JUMP JUMPDEST PUSH0 PUSH2 0x3C68 PUSH1 0x29 DUP4 PUSH2 0x2D53 JUMP JUMPDEST SWAP2 POP PUSH2 0x3C73 DUP3 PUSH2 0x3C0E JUMP JUMPDEST PUSH1 0x40 DUP3 ADD SWAP1 POP SWAP2 SWAP1 POP JUMP JUMPDEST PUSH0 PUSH1 0x20 DUP3 ADD SWAP1 POP DUP2 DUP2 SUB PUSH0 DUP4 ADD MSTORE PUSH2 0x3C95 DUP2 PUSH2 0x3C5C JUMP JUMPDEST SWAP1 POP SWAP2 SWAP1 POP JUMP JUMPDEST PUSH32 0x4552433732313A2062616C616E636520717565727920666F7220746865207A65 PUSH0 DUP3 ADD MSTORE PUSH32 0x726F206164647265737300000000000000000000000000000000000000000000 PUSH1 0x20 DUP3 ADD MSTORE POP JUMP JUMPDEST PUSH0 PUSH2 0x3CF6 PUSH1 0x2A DUP4 PUSH2 0x2D53 JUMP JUMPDEST SWAP2 POP PUSH2 0x3D01 DUP3 PUSH2 0x3C9C JUMP JUMPDEST PUSH1 0x40 DUP3 ADD SWAP1 POP SWAP2 SWAP1 POP JUMP JUMPDEST PUSH0 PUSH1 0x20 DUP3 ADD SWAP1 POP DUP2 DUP2 SUB PUSH0 DUP4 ADD MSTORE PUSH2 0x3D23 DUP2 PUSH2 0x3CEA JUMP JUMPDEST SWAP1 POP SWAP2 SWAP1 POP JUMP JUMPDEST PUSH32 0x426F6F6B20494420616C72656164792065786973747300000000000000000000 PUSH0 DUP3 ADD MSTORE POP JUMP JUMPDEST PUSH0 PUSH2 0x3D5E PUSH1 0x16 DUP4 PUSH2 0x2D53 JUMP JUMPDEST SWAP2 POP PUSH2 0x3D69 DUP3 PUSH2 0x3D2A JUMP JUMPDEST PUSH1 0x20 DUP3 ADD SWAP1 POP SWAP2 SWAP1 POP JUMP JUMPDEST PUSH0 PUSH1 0x20 DUP3 ADD SWAP1 POP DUP2 DUP2 SUB PUSH0 DUP4 ADD MSTORE PUSH2 0x3D8B DUP2 PUSH2 0x3D52 JUMP JUMPDEST SWAP1 POP SWAP2 SWAP1 POP JUMP JUMPDEST PUSH32 0x496E697469616C20726F79616C7479206D757374206265206265747765656E20 PUSH0 DUP3 ADD MSTORE PUSH32 0x3020616E64203130300000000000000000000000000000000000000000000000 PUSH1 0x20 DUP3 ADD MSTORE POP JUMP JUMPDEST PUSH0 PUSH2 0x3DEC PUSH1 0x29 DUP4 PUSH2 0x2D53 JUMP JUMPDEST SWAP2 POP PUSH2 0x3DF7 DUP3 PUSH2 0x3D92 JUMP JUMPDEST PUSH1 0x40 DUP3 ADD SWAP1 POP SWAP2 SWAP1 POP JUMP JUMPDEST PUSH0 PUSH1 0x20 DUP3 ADD SWAP1 POP DUP2 DUP2 SUB PUSH0 DUP4 ADD MSTORE PUSH2 0x3E19 DUP2 PUSH2 0x3DE0 JUMP JUMPDEST SWAP1 POP SWAP2 SWAP1 POP JUMP JUMPDEST PUSH32 0x526573616C6520726F79616C7479206D757374206265206265747765656E2030 PUSH0 DUP3 ADD MSTORE PUSH32 0x20616E6420313030000000000000000000000000000000000000000000000000 PUSH1 0x20 DUP3 ADD MSTORE POP JUMP JUMPDEST PUSH0 PUSH2 0x3E7A PUSH1 0x28 DUP4 PUSH2 0x2D53 JUMP JUMPDEST SWAP2 POP PUSH2 0x3E85 DUP3 PUSH2 0x3E20 JUMP JUMPDEST PUSH1 0x40 DUP3 ADD SWAP1 POP SWAP2 SWAP1 POP JUMP JUMPDEST PUSH0 PUSH1 0x20 DUP3 ADD SWAP1 POP DUP2 DUP2 SUB PUSH0 DUP4 ADD MSTORE PUSH2 0x3EA7 DUP2 PUSH2 0x3E6E JUMP JUMPDEST SWAP1 POP SWAP2 SWAP1 POP JUMP JUMPDEST PUSH0 DUP2 SWAP1 POP DUP2 PUSH0 MSTORE PUSH1 0x20 PUSH0 KECCAK256 SWAP1 POP SWAP2 SWAP1 POP JUMP JUMPDEST PUSH0 PUSH1 0x20 PUSH1 0x1F DUP4 ADD DIV SWAP1 POP SWAP2 SWAP1 POP JUMP JUMPDEST PUSH0 DUP3 DUP3 SHL SWAP1 POP SWAP3 SWAP2 POP POP JUMP JUMPDEST PUSH0 PUSH1 0x8 DUP4 MUL PUSH2 0x3F0A PUSH32 0xFFFFFFFFFFFFFFFFFFFFFFFFFFFFFFFFFFFFFFFFFFFFFFFFFFFFFFFFFFFFFFFF DUP3 PUSH2 0x3ECF JUMP JUMPDEST PUSH2 0x3F14 DUP7 DUP4 PUSH2 0x3ECF JUMP JUMPDEST SWAP6 POP DUP1 NOT DUP5 AND SWAP4 POP DUP1 DUP7 AND DUP5 OR SWAP3 POP POP POP SWAP4 SWAP3 POP POP POP JUMP JUMPDEST PUSH0 DUP2 SWAP1 POP SWAP2 SWAP1 POP JUMP JUMPDEST PUSH0 PUSH2 0x3F4F PUSH2 0x3F4A PUSH2 0x3F45 DUP5 PUSH2 0x2DD9 JUMP JUMPDEST PUSH2 0x3F2C JUMP JUMPDEST PUSH2 0x2DD9 JUMP JUMPDEST SWAP1 POP SWAP2 SWAP1 POP JUMP JUMPDEST PUSH0 DUP2 SWAP1 POP SWAP2 SWAP1 POP JUMP JUMPDEST PUSH2 0x3F68 DUP4 PUSH2 0x3F35 JUMP JUMPDEST PUSH2 0x3F7C PUSH2 0x3F74 DUP3 PUSH2 0x3F56 JUMP JUMPDEST DUP5 DUP5 SLOAD PUSH2 0x3EDB JUMP JUMPDEST DUP3 SSTORE POP POP POP POP JUMP JUMPDEST PUSH0 SWAP1 JUMP JUMPDEST PUSH2 0x3F90 PUSH2 0x3F84 JUMP JUMPDEST PUSH2 0x3F9B DUP2 DUP5 DUP5 PUSH2 0x3F5F JUMP JUMPDEST POP POP POP JUMP JUMPDEST JUMPDEST DUP2 DUP2 LT ISZERO PUSH2 0x3FBE JUMPI PUSH2 0x3FB3 PUSH0 DUP3 PUSH2 0x3F88 JUMP JUMPDEST PUSH1 0x1 DUP2 ADD SWAP1 POP PUSH2 0x3FA1 JUMP JUMPDEST POP POP JUMP JUMPDEST PUSH1 0x1F DUP3 GT ISZERO PUSH2 0x4003 JUMPI PUSH2 0x3FD4 DUP2 PUSH2 0x3EAE JUMP JUMPDEST PUSH2 0x3FDD DUP5 PUSH2 0x3EC0 JUMP JUMPDEST DUP2 ADD PUSH1 0x20 DUP6 LT ISZERO PUSH2 0x3FEC JUMPI DUP2 SWAP1 POP JUMPDEST PUSH2 0x4000 PUSH2 0x3FF8 DUP6 PUSH2 0x3EC0 JUMP JUMPDEST DUP4 ADD DUP3 PUSH2 0x3FA0 JUMP JUMPDEST POP POP JUMPDEST POP POP POP JUMP JUMPDEST PUSH0 DUP3 DUP3 SHR SWAP1 POP SWAP3 SWAP2 POP POP JUMP JUMPDEST PUSH0 PUSH2 0x4023 PUSH0 NOT DUP5 PUSH1 0x8 MUL PUSH2 0x4008 JUMP JUMPDEST NOT DUP1 DUP4 AND SWAP2 POP POP SWAP3 SWAP2 POP POP JUMP JUMPDEST PUSH0 PUSH2 0x403B DUP4 DUP4 PUSH2 0x4014 JUMP JUMPDEST SWAP2 POP DUP3 PUSH1 0x2 MUL DUP3 OR SWAP1 POP SWAP3 SWAP2 POP POP JUMP JUMPDEST PUSH2 0x4054 DUP3 PUSH2 0x2D49 JUMP JUMPDEST PUSH8 0xFFFFFFFFFFFFFFFF DUP2 GT ISZERO PUSH2 0x406D JUMPI PUSH2 0x406C PUSH2 0x3079 JUMP JUMPDEST JUMPDEST PUSH2 0x4077 DUP3 SLOAD PUSH2 0x34DC JUMP JUMPDEST PUSH2 0x4082 DUP3 DUP3 DUP6 PUSH2 0x3FC2 JUMP JUMPDEST PUSH0 PUSH1 0x20 SWAP1 POP PUSH1 0x1F DUP4 GT PUSH1 0x1 DUP2 EQ PUSH2 0x40B3 JUMPI PUSH0 DUP5 ISZERO PUSH2 0x40A1 JUMPI DUP3 DUP8 ADD MLOAD SWAP1 POP JUMPDEST PUSH2 0x40AB DUP6 DUP3 PUSH2 0x4030 JUMP JUMPDEST DUP7 SSTORE POP PUSH2 0x4112 JUMP JUMPDEST PUSH1 0x1F NOT DUP5 AND PUSH2 0x40C1 DUP7 PUSH2 0x3EAE JUMP JUMPDEST PUSH0 JUMPDEST DUP3 DUP2 LT ISZERO PUSH2 0x40E8 JUMPI DUP5 DUP10 ADD MLOAD DUP3 SSTORE PUSH1 0x1 DUP3 ADD SWAP2 POP PUSH1 0x20 DUP6 ADD SWAP5 POP PUSH1 0x20 DUP2 ADD SWAP1 POP PUSH2 0x40C3 JUMP JUMPDEST DUP7 DUP4 LT ISZERO PUSH2 0x4105 JUMPI DUP5 DUP10 ADD MLOAD PUSH2 0x4101 PUSH1 0x1F DUP10 AND DUP3 PUSH2 0x4014 JUMP JUMPDEST DUP4 SSTORE POP JUMPDEST PUSH1 0x1 PUSH1 0x2 DUP9 MUL ADD DUP9 SSTORE POP POP POP JUMPDEST POP POP POP POP POP POP JUMP JUMPDEST PUSH0 PUSH1 0xC0 DUP3 ADD SWAP1 POP DUP2 DUP2 SUB PUSH0 DUP4 ADD MSTORE PUSH2 0x4132 DUP2 DUP10 PUSH2 0x2D81 JUMP JUMPDEST SWAP1 POP DUP2 DUP2 SUB PUSH1 0x20 DUP4 ADD MSTORE PUSH2 0x4146 DUP2 DUP9 PUSH2 0x2D81 JUMP JUMPDEST SWAP1 POP PUSH2 0x4155 PUSH1 0x40 DUP4 ADD DUP8 PUSH2 0x2F85 JUMP JUMPDEST PUSH2 0x4162 PUSH1 0x60 DUP4 ADD DUP7 PUSH2 0x2F85 JUMP JUMPDEST PUSH2 0x416F PUSH1 0x80 DUP4 ADD DUP6 PUSH2 0x2F85 JUMP JUMPDEST PUSH2 0x417C PUSH1 0xA0 DUP4 ADD DUP5 PUSH2 0x2F85 JUMP JUMPDEST SWAP8 SWAP7 POP POP POP POP POP POP POP JUMP JUMPDEST PUSH32 0x4552433732313A20617070726F766520746F2063616C6C657200000000000000 PUSH0 DUP3 ADD MSTORE POP JUMP JUMPDEST PUSH0 PUSH2 0x41BB PUSH1 0x19 DUP4 PUSH2 0x2D53 JUMP JUMPDEST SWAP2 POP PUSH2 0x41C6 DUP3 PUSH2 0x4187 JUMP JUMPDEST PUSH1 0x20 DUP3 ADD SWAP1 POP SWAP2 SWAP1 POP JUMP JUMPDEST PUSH0 PUSH1 0x20 DUP3 ADD SWAP1 POP DUP2 DUP2 SUB PUSH0 DUP4 ADD MSTORE PUSH2 0x41E8 DUP2 PUSH2 0x41AF JUMP JUMPDEST SWAP1 POP SWAP2 SWAP1 POP JUMP JUMPDEST PUSH32 0x4552433732314D657461646174613A2055524920717565727920666F72206E6F PUSH0 DUP3 ADD MSTORE PUSH32 0x6E6578697374656E7420746F6B656E0000000000000000000000000000000000 PUSH1 0x20 DUP3 ADD MSTORE POP JUMP JUMPDEST PUSH0 PUSH2 0x4249 PUSH1 0x2F DUP4 PUSH2 0x2D53 JUMP JUMPDEST SWAP2 POP PUSH2 0x4254 DUP3 PUSH2 0x41EF JUMP JUMPDEST PUSH1 0x40 DUP3 ADD SWAP1 POP SWAP2 SWAP1 POP JUMP JUMPDEST PUSH0 PUSH1 0x20 DUP3 ADD SWAP1 POP DUP2 DUP2 SUB PUSH0 DUP4 ADD MSTORE PUSH2 0x4276 DUP2 PUSH2 0x423D JUMP JUMPDEST SWAP1 POP SWAP2 SWAP1 POP JUMP JUMPDEST PUSH0 DUP2 SWAP1 POP SWAP3 SWAP2 POP POP JUMP JUMPDEST PUSH0 PUSH2 0x4291 DUP3 PUSH2 0x2D49 JUMP JUMPDEST PUSH2 0x429B DUP2 DUP6 PUSH2 0x427D JUMP JUMPDEST SWAP4 POP PUSH2 0x42AB DUP2 DUP6 PUSH1 0x20 DUP7 ADD PUSH2 0x2D63 JUMP JUMPDEST DUP1 DUP5 ADD SWAP2 POP POP SWAP3 SWAP2 POP POP JUMP JUMPDEST PUSH0 PUSH2 0x42C2 DUP3 DUP6 PUSH2 0x4287 JUMP JUMPDEST SWAP2 POP PUSH2 0x42CE DUP3 DUP5 PUSH2 0x4287 JUMP JUMPDEST SWAP2 POP DUP2 SWAP1 POP SWAP4 SWAP3 POP POP POP JUMP JUMPDEST PUSH32 0x4F776E61626C653A206E6577206F776E657220697320746865207A65726F2061 PUSH0 DUP3 ADD MSTORE PUSH32 0x6464726573730000000000000000000000000000000000000000000000000000 PUSH1 0x20 DUP3 ADD MSTORE POP JUMP JUMPDEST PUSH0 PUSH2 0x4334 PUSH1 0x26 DUP4 PUSH2 0x2D53 JUMP JUMPDEST SWAP2 POP PUSH2 0x433F DUP3 PUSH2 0x42DA JUMP JUMPDEST PUSH1 0x40 DUP3 ADD SWAP1 POP SWAP2 SWAP1 POP JUMP JUMPDEST PUSH0 PUSH1 0x20 DUP3 ADD SWAP1 POP DUP2 DUP2 SUB PUSH0 DUP4 ADD MSTORE PUSH2 0x4361 DUP2 PUSH2 0x4328 JUMP JUMPDEST SWAP1 POP SWAP2 SWAP1 POP JUMP JUMPDEST PUSH32 0x54686973204E4654206973206E6F7420666F722073616C650000000000000000 PUSH0 DUP3 ADD MSTORE POP JUMP JUMPDEST PUSH0 PUSH2 0x439C PUSH1 0x18 DUP4 PUSH2 0x2D53 JUMP JUMPDEST SWAP2 POP PUSH2 0x43A7 DUP3 PUSH2 0x4368 JUMP JUMPDEST PUSH1 0x20 DUP3 ADD SWAP1 POP SWAP2 SWAP1 POP JUMP JUMPDEST PUSH0 PUSH1 0x20 DUP3 ADD SWAP1 POP DUP2 DUP2 SUB PUSH0 DUP4 ADD MSTORE PUSH2 0x43C9 DUP2 PUSH2 0x4390 JUMP JUMPDEST SWAP1 POP SWAP2 SWAP1 POP JUMP JUMPDEST PUSH32 0x496E73756666696369656E742066756E647320746F2062757920746865207265 PUSH0 DUP3 ADD MSTORE PUSH32 0x73616C65204E4654000000000000000000000000000000000000000000000000 PUSH1 0x20 DUP3 ADD MSTORE POP JUMP JUMPDEST PUSH0 PUSH2 0x442A PUSH1 0x28 DUP4 PUSH2 0x2D53 JUMP JUMPDEST SWAP2 POP PUSH2 0x4435 DUP3 PUSH2 0x43D0 JUMP JUMPDEST PUSH1 0x40 DUP3 ADD SWAP1 POP SWAP2 SWAP1 POP JUMP JUMPDEST PUSH0 PUSH1 0x20 DUP3 ADD SWAP1 POP DUP2 DUP2 SUB PUSH0 DUP4 ADD MSTORE PUSH2 0x4457 DUP2 PUSH2 0x441E JUMP JUMPDEST SWAP1 POP SWAP2 SWAP1 POP JUMP JUMPDEST PUSH32 0x4552433732313A207472616E73666572206F6620746F6B656E20746861742069 PUSH0 DUP3 ADD MSTORE PUSH32 0x73206E6F74206F776E0000000000000000000000000000000000000000000000 PUSH1 0x20 DUP3 ADD MSTORE POP JUMP JUMPDEST PUSH0 PUSH2 0x44B8 PUSH1 0x29 DUP4 PUSH2 0x2D53 JUMP JUMPDEST SWAP2 POP PUSH2 0x44C3 DUP3 PUSH2 0x445E JUMP JUMPDEST PUSH1 0x40 DUP3 ADD SWAP1 POP SWAP2 SWAP1 POP JUMP JUMPDEST PUSH0 PUSH1 0x20 DUP3 ADD SWAP1 POP DUP2 DUP2 SUB PUSH0 DUP4 ADD MSTORE PUSH2 0x44E5 DUP2 PUSH2 0x44AC JUMP JUMPDEST SWAP1 POP SWAP2 SWAP1 POP JUMP JUMPDEST PUSH32 0x4552433732313A207472616E7366657220746F20746865207A65726F20616464 PUSH0 DUP3 ADD MSTORE PUSH32 0x7265737300000000000000000000000000000000000000000000000000000000 PUSH1 0x20 DUP3 ADD MSTORE POP JUMP JUMPDEST PUSH0 PUSH2 0x4546 PUSH1 0x24 DUP4 PUSH2 0x2D53 JUMP JUMPDEST SWAP2 POP PUSH2 0x4551 DUP3 PUSH2 0x44EC JUMP JUMPDEST PUSH1 0x40 DUP3 ADD SWAP1 POP SWAP2 SWAP1 POP JUMP JUMPDEST PUSH0 PUSH1 0x20 DUP3 ADD SWAP1 POP DUP2 DUP2 SUB PUSH0 DUP4 ADD MSTORE PUSH2 0x4573 DUP2 PUSH2 0x453A JUMP JUMPDEST SWAP1 POP SWAP2 SWAP1 POP JUMP JUMPDEST PUSH32 0x4552433732313A206D696E7420746F20746865207A65726F2061646472657373 PUSH0 DUP3 ADD MSTORE POP JUMP JUMPDEST PUSH0 PUSH2 0x45AE PUSH1 0x20 DUP4 PUSH2 0x2D53 JUMP JUMPDEST SWAP2 POP PUSH2 0x45B9 DUP3 PUSH2 0x457A JUMP JUMPDEST PUSH1 0x20 DUP3 ADD SWAP1 POP SWAP2 SWAP1 POP JUMP JUMPDEST PUSH0 PUSH1 0x20 DUP3 ADD SWAP1 POP DUP2 DUP2 SUB PUSH0 DUP4 ADD MSTORE PUSH2 0x45DB DUP2 PUSH2 0x45A2 JUMP JUMPDEST SWAP1 POP SWAP2 SWAP1 POP JUMP JUMPDEST PUSH32 0x4552433732313A20746F6B656E20616C7265616479206D696E74656400000000 PUSH0 DUP3 ADD MSTORE POP JUMP JUMPDEST PUSH0 PUSH2 0x4616 PUSH1 0x1C DUP4 PUSH2 0x2D53 JUMP JUMPDEST SWAP2 POP PUSH2 0x4621 DUP3 PUSH2 0x45E2 JUMP JUMPDEST PUSH1 0x20 DUP3 ADD SWAP1 POP SWAP2 SWAP1 POP JUMP JUMPDEST PUSH0 PUSH1 0x20 DUP3 ADD SWAP1 POP DUP2 DUP2 SUB PUSH0 DUP4 ADD MSTORE PUSH2 0x4643 DUP2 PUSH2 0x460A JUMP JUMPDEST SWAP1 POP SWAP2 SWAP1 POP JUMP JUMPDEST PUSH32 0x4552433732313A207472616E7366657220746F206E6F6E204552433732315265 PUSH0 DUP3 ADD MSTORE PUSH32 0x63656976657220696D706C656D656E7465720000000000000000000000000000 PUSH1 0x20 DUP3 ADD MSTORE POP JUMP JUMPDEST PUSH0 PUSH2 0x46A4 PUSH1 0x32 DUP4 PUSH2 0x2D53 JUMP JUMPDEST SWAP2 POP PUSH2 0x46AF DUP3 PUSH2 0x464A JUMP JUMPDEST PUSH1 0x40 DUP3 ADD SWAP1 POP SWAP2 SWAP1 POP JUMP JUMPDEST PUSH0 PUSH1 0x20 DUP3 ADD SWAP1 POP DUP2 DUP2 SUB PUSH0 DUP4 ADD MSTORE PUSH2 0x46D1 DUP2 PUSH2 0x4698 JUMP JUMPDEST SWAP1 POP SWAP2 SWAP1 POP JUMP JUMPDEST PUSH0 PUSH2 0x46E2 DUP3 PUSH2 0x2DD9 JUMP JUMPDEST SWAP2 POP PUSH2 0x46ED DUP4 PUSH2 0x2DD9 JUMP JUMPDEST SWAP3 POP DUP3 PUSH2 0x46FD JUMPI PUSH2 0x46FC PUSH2 0x3B51 JUMP JUMPDEST JUMPDEST DUP3 DUP3 MOD SWAP1 POP SWAP3 SWAP2 POP POP JUMP JUMPDEST PUSH0 DUP2 MLOAD SWAP1 POP SWAP2 SWAP1 POP JUMP JUMPDEST PUSH0 DUP3 DUP3 MSTORE PUSH1 0x20 DUP3 ADD SWAP1 POP SWAP3 SWAP2 POP POP JUMP JUMPDEST PUSH0 PUSH2 0x472C DUP3 PUSH2 0x4708 JUMP JUMPDEST PUSH2 0x4736 DUP2 DUP6 PUSH2 0x4712 JUMP JUMPDEST SWAP4 POP PUSH2 0x4746 DUP2 DUP6 PUSH1 0x20 DUP7 ADD PUSH2 0x2D63 JUMP JUMPDEST PUSH2 0x474F DUP2 PUSH2 0x2D71 JUMP JUMPDEST DUP5 ADD SWAP2 POP POP SWAP3 SWAP2 POP POP JUMP JUMPDEST PUSH0 PUSH1 0x80 DUP3 ADD SWAP1 POP PUSH2 0x476D PUSH0 DUP4 ADD DUP8 PUSH2 0x2E67 JUMP JUMPDEST PUSH2 0x477A PUSH1 0x20 DUP4 ADD DUP7 PUSH2 0x2E67 JUMP JUMPDEST PUSH2 0x4787 PUSH1 0x40 DUP4 ADD DUP6 PUSH2 0x2F85 JUMP JUMPDEST DUP2 DUP2 SUB PUSH1 0x60 DUP4 ADD MSTORE PUSH2 0x4799 DUP2 DUP5 PUSH2 0x4722 JUMP JUMPDEST SWAP1 POP SWAP6 SWAP5 POP POP POP POP POP JUMP JUMPDEST PUSH0 DUP2 MLOAD SWAP1 POP PUSH2 0x47B2 DUP2 PUSH2 0x2CC1 JUMP JUMPDEST SWAP3 SWAP2 POP POP JUMP JUMPDEST PUSH0 PUSH1 0x20 DUP3 DUP5 SUB SLT ISZERO PUSH2 0x47CD JUMPI PUSH2 0x47CC PUSH2 0x2C8E JUMP JUMPDEST JUMPDEST PUSH0 PUSH2 0x47DA DUP5 DUP3 DUP6 ADD PUSH2 0x47A4 JUMP JUMPDEST SWAP2 POP POP SWAP3 SWAP2 POP POP JUMP INVALID LOG2 PUSH5 0x6970667358 0x22 SLT KECCAK256 DELEGATECALL STATICCALL 0xCC 0x2C 0xBF SWAP5 PUSH29 0x14C6A2566A402ED9D9414035A4AD7829992433F9A2CA510E9764736F6C PUSH4 0x4300081A STOP CALLER "
		},
		"gasEstimates": {
			"creation": {
				"codeDepositCost": "3691400",
				"executionCost": "infinite",
				"totalCost": "infinite"
			},
			"external": {
				"approve(address,uint256)": "infinite",
				"balanceOf(address)": "2910",
				"bookOwners(uint256,uint256)": "infinite",
				"books(uint256)": "infinite",
				"buyNFT(uint256)": "infinite",
				"buyResaleNFT(uint256,address)": "infinite",
				"cancelResalePrice(uint256)": "17277",
				"createBook(uint256,string,string,address,uint256,uint256,uint256,uint256)": "infinite",
				"donateNFT(uint256,address)": "infinite",
				"getApproved(uint256)": "5234",
				"getNFTPurchaseInfo(uint256)": "infinite",
				"getResalePrice(uint256,address)": "infinite",
				"getTransactionCount(uint256)": "infinite",
				"getUniqueOwners(uint256)": "infinite",
				"isApprovedForAll(address,address)": "infinite",
				"name()": "infinite",
				"owner()": "2582",
				"ownerOf(uint256)": "3048",
				"renounceOwnership()": "30434",
				"safeTransferFrom(address,address,uint256)": "infinite",
				"safeTransferFrom(address,address,uint256,bytes)": "infinite",
				"setApprovalForAll(address,bool)": "infinite",
				"setResalePrice(uint256,uint256)": "infinite",
				"supportsInterface(bytes4)": "810",
				"symbol()": "infinite",
				"tokenURI(uint256)": "infinite",
				"transferFrom(address,address,uint256)": "infinite",
				"transferOwnership(address)": "30773",
				"withdraw()": "infinite"
			},
			"internal": {
				"_isApprovedOrOwner(address,uint256)": "infinite"
			}
		},
		"methodIdentifiers": {
			"approve(address,uint256)": "095ea7b3",
			"balanceOf(address)": "70a08231",
			"bookOwners(uint256,uint256)": "d7fdf87b",
			"books(uint256)": "68744046",
			"buyNFT(uint256)": "51ed8288",
			"buyResaleNFT(uint256,address)": "f8ea289d",
			"cancelResalePrice(uint256)": "4e10a910",
			"createBook(uint256,string,string,address,uint256,uint256,uint256,uint256)": "87a07c58",
			"donateNFT(uint256,address)": "31da524f",
			"getApproved(uint256)": "081812fc",
			"getNFTPurchaseInfo(uint256)": "a15d6dff",
			"getResalePrice(uint256,address)": "76d3f0b0",
			"getTransactionCount(uint256)": "3de5d0de",
			"getUniqueOwners(uint256)": "45f7b48f",
			"isApprovedForAll(address,address)": "e985e9c5",
			"name()": "06fdde03",
			"owner()": "8da5cb5b",
			"ownerOf(uint256)": "6352211e",
			"renounceOwnership()": "715018a6",
			"safeTransferFrom(address,address,uint256)": "42842e0e",
			"safeTransferFrom(address,address,uint256,bytes)": "b88d4fde",
			"setApprovalForAll(address,bool)": "a22cb465",
			"setResalePrice(uint256,uint256)": "f7e2aaab",
			"supportsInterface(bytes4)": "01ffc9a7",
			"symbol()": "95d89b41",
			"tokenURI(uint256)": "c87b56dd",
			"transferFrom(address,address,uint256)": "23b872dd",
			"transferOwnership(address)": "f2fde38b",
			"withdraw()": "3ccfd60b"
		}
	},
	"abi": [
		{
			"inputs": [],
			"stateMutability": "nonpayable",
			"type": "constructor"
		},
		{
			"anonymous": false,
			"inputs": [
				{
					"indexed": true,
					"internalType": "address",
					"name": "owner",
					"type": "address"
				},
				{
					"indexed": true,
					"internalType": "address",
					"name": "approved",
					"type": "address"
				},
				{
					"indexed": true,
					"internalType": "uint256",
					"name": "tokenId",
					"type": "uint256"
				}
			],
			"name": "Approval",
			"type": "event"
		},
		{
			"anonymous": false,
			"inputs": [
				{
					"indexed": true,
					"internalType": "address",
					"name": "owner",
					"type": "address"
				},
				{
					"indexed": true,
					"internalType": "address",
					"name": "operator",
					"type": "address"
				},
				{
					"indexed": false,
					"internalType": "bool",
					"name": "approved",
					"type": "bool"
				}
			],
			"name": "ApprovalForAll",
			"type": "event"
		},
		{
			"anonymous": false,
			"inputs": [
				{
					"indexed": true,
					"internalType": "uint256",
					"name": "id",
					"type": "uint256"
				},
				{
					"indexed": false,
					"internalType": "string",
					"name": "name",
					"type": "string"
				},
				{
					"indexed": false,
					"internalType": "string",
					"name": "author",
					"type": "string"
				},
				{
					"indexed": true,
					"internalType": "address",
					"name": "authorAddress",
					"type": "address"
				},
				{
					"indexed": false,
					"internalType": "uint256",
					"name": "totalSupply",
					"type": "uint256"
				},
				{
					"indexed": false,
					"internalType": "uint256",
					"name": "price",
					"type": "uint256"
				},
				{
					"indexed": false,
					"internalType": "uint256",
					"name": "initialRoyalty",
					"type": "uint256"
				},
				{
					"indexed": false,
					"internalType": "uint256",
					"name": "resaleRoyalty",
					"type": "uint256"
				}
			],
			"name": "BookCreated",
			"type": "event"
		},
		{
			"anonymous": false,
			"inputs": [
				{
					"indexed": true,
					"internalType": "uint256",
					"name": "id",
					"type": "uint256"
				},
				{
					"indexed": true,
					"internalType": "address",
					"name": "buyer",
					"type": "address"
				}
			],
			"name": "NFTBought",
			"type": "event"
		},
		{
			"anonymous": false,
			"inputs": [
				{
					"indexed": true,
					"internalType": "uint256",
					"name": "id",
					"type": "uint256"
				},
				{
					"indexed": true,
					"internalType": "address",
					"name": "from",
					"type": "address"
				},
				{
					"indexed": true,
					"internalType": "address",
					"name": "to",
					"type": "address"
				}
			],
			"name": "NFTDonated",
			"type": "event"
		},
		{
			"anonymous": false,
			"inputs": [
				{
					"indexed": true,
					"internalType": "address",
					"name": "previousOwner",
					"type": "address"
				},
				{
					"indexed": true,
					"internalType": "address",
					"name": "newOwner",
					"type": "address"
				}
			],
			"name": "OwnershipTransferred",
			"type": "event"
		},
		{
			"anonymous": false,
			"inputs": [
				{
					"indexed": true,
					"internalType": "uint256",
					"name": "bookId",
					"type": "uint256"
				},
				{
					"indexed": true,
					"internalType": "address",
					"name": "owner",
					"type": "address"
				},
				{
					"indexed": false,
					"internalType": "uint256",
					"name": "price",
					"type": "uint256"
				}
			],
			"name": "ResalePriceSet",
			"type": "event"
		},
		{
			"anonymous": false,
			"inputs": [
				{
					"indexed": true,
					"internalType": "address",
					"name": "from",
					"type": "address"
				},
				{
					"indexed": true,
					"internalType": "address",
					"name": "to",
					"type": "address"
				},
				{
					"indexed": true,
					"internalType": "uint256",
					"name": "tokenId",
					"type": "uint256"
				}
			],
			"name": "Transfer",
			"type": "event"
		},
		{
			"inputs": [
				{
					"internalType": "address",
					"name": "to",
					"type": "address"
				},
				{
					"internalType": "uint256",
					"name": "tokenId",
					"type": "uint256"
				}
			],
			"name": "approve",
			"outputs": [],
			"stateMutability": "nonpayable",
			"type": "function"
		},
		{
			"inputs": [
				{
					"internalType": "address",
					"name": "owner",
					"type": "address"
				}
			],
			"name": "balanceOf",
			"outputs": [
				{
					"internalType": "uint256",
					"name": "",
					"type": "uint256"
				}
			],
			"stateMutability": "view",
			"type": "function"
		},
		{
			"inputs": [
				{
					"internalType": "uint256",
					"name": "",
					"type": "uint256"
				},
				{
					"internalType": "uint256",
					"name": "",
					"type": "uint256"
				}
			],
			"name": "bookOwners",
			"outputs": [
				{
					"internalType": "address",
					"name": "",
					"type": "address"
				}
			],
			"stateMutability": "view",
			"type": "function"
		},
		{
			"inputs": [
				{
					"internalType": "uint256",
					"name": "",
					"type": "uint256"
				}
			],
			"name": "books",
			"outputs": [
				{
					"internalType": "uint256",
					"name": "id",
					"type": "uint256"
				},
				{
					"internalType": "string",
					"name": "name",
					"type": "string"
				},
				{
					"internalType": "string",
					"name": "author",
					"type": "string"
				},
				{
					"internalType": "address",
					"name": "authorAddress",
					"type": "address"
				},
				{
					"internalType": "uint256",
					"name": "totalSupply",
					"type": "uint256"
				},
				{
					"internalType": "uint256",
					"name": "price",
					"type": "uint256"
				},
				{
					"internalType": "uint256",
					"name": "initialRoyalty",
					"type": "uint256"
				},
				{
					"internalType": "uint256",
					"name": "resaleRoyalty",
					"type": "uint256"
				},
				{
					"internalType": "uint256",
					"name": "transactionCount",
					"type": "uint256"
				}
			],
			"stateMutability": "view",
			"type": "function"
		},
		{
			"inputs": [
				{
					"internalType": "uint256",
					"name": "bookId",
					"type": "uint256"
				}
			],
			"name": "buyNFT",
			"outputs": [],
			"stateMutability": "payable",
			"type": "function"
		},
		{
			"inputs": [
				{
					"internalType": "uint256",
					"name": "bookId",
					"type": "uint256"
				},
				{
					"internalType": "address",
					"name": "owner",
					"type": "address"
				}
			],
			"name": "buyResaleNFT",
			"outputs": [],
			"stateMutability": "payable",
			"type": "function"
		},
		{
			"inputs": [
				{
					"internalType": "uint256",
					"name": "bookId",
					"type": "uint256"
				}
			],
			"name": "cancelResalePrice",
			"outputs": [],
			"stateMutability": "nonpayable",
			"type": "function"
		},
		{
			"inputs": [
				{
					"internalType": "uint256",
					"name": "bookId",
					"type": "uint256"
				},
				{
					"internalType": "string",
					"name": "name",
					"type": "string"
				},
				{
					"internalType": "string",
					"name": "author",
					"type": "string"
				},
				{
					"internalType": "address",
					"name": "authorAddress",
					"type": "address"
				},
				{
					"internalType": "uint256",
					"name": "totalSupply",
					"type": "uint256"
				},
				{
					"internalType": "uint256",
					"name": "price",
					"type": "uint256"
				},
				{
					"internalType": "uint256",
					"name": "initialRoyalty",
					"type": "uint256"
				},
				{
					"internalType": "uint256",
					"name": "resaleRoyalty",
					"type": "uint256"
				}
			],
			"name": "createBook",
			"outputs": [],
			"stateMutability": "nonpayable",
			"type": "function"
		},
		{
			"inputs": [
				{
					"internalType": "uint256",
					"name": "bookId",
					"type": "uint256"
				},
				{
					"internalType": "address",
					"name": "to",
					"type": "address"
				}
			],
			"name": "donateNFT",
			"outputs": [],
			"stateMutability": "nonpayable",
			"type": "function"
		},
		{
			"inputs": [
				{
					"internalType": "uint256",
					"name": "tokenId",
					"type": "uint256"
				}
			],
			"name": "getApproved",
			"outputs": [
				{
					"internalType": "address",
					"name": "",
					"type": "address"
				}
			],
			"stateMutability": "view",
			"type": "function"
		},
		{
			"inputs": [
				{
					"internalType": "uint256",
					"name": "bookId",
					"type": "uint256"
				}
			],
			"name": "getNFTPurchaseInfo",
			"outputs": [
				{
					"internalType": "uint256",
					"name": "purchased",
					"type": "uint256"
				},
				{
					"internalType": "uint256",
					"name": "totalSupply",
					"type": "uint256"
				}
			],
			"stateMutability": "view",
			"type": "function"
		},
		{
			"inputs": [
				{
					"internalType": "uint256",
					"name": "bookId",
					"type": "uint256"
				},
				{
					"internalType": "address",
					"name": "owner",
					"type": "address"
				}
			],
			"name": "getResalePrice",
			"outputs": [
				{
					"internalType": "uint256",
					"name": "",
					"type": "uint256"
				}
			],
			"stateMutability": "view",
			"type": "function"
		},
		{
			"inputs": [
				{
					"internalType": "uint256",
					"name": "bookId",
					"type": "uint256"
				}
			],
			"name": "getTransactionCount",
			"outputs": [
				{
					"internalType": "uint256",
					"name": "",
					"type": "uint256"
				}
			],
			"stateMutability": "view",
			"type": "function"
		},
		{
			"inputs": [
				{
					"internalType": "uint256",
					"name": "bookId",
					"type": "uint256"
				}
			],
			"name": "getUniqueOwners",
			"outputs": [
				{
					"internalType": "uint256",
					"name": "",
					"type": "uint256"
				}
			],
			"stateMutability": "view",
			"type": "function"
		},
		{
			"inputs": [
				{
					"internalType": "address",
					"name": "owner",
					"type": "address"
				},
				{
					"internalType": "address",
					"name": "operator",
					"type": "address"
				}
			],
			"name": "isApprovedForAll",
			"outputs": [
				{
					"internalType": "bool",
					"name": "",
					"type": "bool"
				}
			],
			"stateMutability": "view",
			"type": "function"
		},
		{
			"inputs": [],
			"name": "name",
			"outputs": [
				{
					"internalType": "string",
					"name": "",
					"type": "string"
				}
			],
			"stateMutability": "view",
			"type": "function"
		},
		{
			"inputs": [],
			"name": "owner",
			"outputs": [
				{
					"internalType": "address",
					"name": "",
					"type": "address"
				}
			],
			"stateMutability": "view",
			"type": "function"
		},
		{
			"inputs": [
				{
					"internalType": "uint256",
					"name": "tokenId",
					"type": "uint256"
				}
			],
			"name": "ownerOf",
			"outputs": [
				{
					"internalType": "address",
					"name": "",
					"type": "address"
				}
			],
			"stateMutability": "view",
			"type": "function"
		},
		{
			"inputs": [],
			"name": "renounceOwnership",
			"outputs": [],
			"stateMutability": "nonpayable",
			"type": "function"
		},
		{
			"inputs": [
				{
					"internalType": "address",
					"name": "from",
					"type": "address"
				},
				{
					"internalType": "address",
					"name": "to",
					"type": "address"
				},
				{
					"internalType": "uint256",
					"name": "tokenId",
					"type": "uint256"
				}
			],
			"name": "safeTransferFrom",
			"outputs": [],
			"stateMutability": "nonpayable",
			"type": "function"
		},
		{
			"inputs": [
				{
					"internalType": "address",
					"name": "from",
					"type": "address"
				},
				{
					"internalType": "address",
					"name": "to",
					"type": "address"
				},
				{
					"internalType": "uint256",
					"name": "tokenId",
					"type": "uint256"
				},
				{
					"internalType": "bytes",
					"name": "_data",
					"type": "bytes"
				}
			],
			"name": "safeTransferFrom",
			"outputs": [],
			"stateMutability": "nonpayable",
			"type": "function"
		},
		{
			"inputs": [
				{
					"internalType": "address",
					"name": "operator",
					"type": "address"
				},
				{
					"internalType": "bool",
					"name": "approved",
					"type": "bool"
				}
			],
			"name": "setApprovalForAll",
			"outputs": [],
			"stateMutability": "nonpayable",
			"type": "function"
		},
		{
			"inputs": [
				{
					"internalType": "uint256",
					"name": "bookId",
					"type": "uint256"
				},
				{
					"internalType": "uint256",
					"name": "price",
					"type": "uint256"
				}
			],
			"name": "setResalePrice",
			"outputs": [],
			"stateMutability": "nonpayable",
			"type": "function"
		},
		{
			"inputs": [
				{
					"internalType": "bytes4",
					"name": "interfaceId",
					"type": "bytes4"
				}
			],
			"name": "supportsInterface",
			"outputs": [
				{
					"internalType": "bool",
					"name": "",
					"type": "bool"
				}
			],
			"stateMutability": "view",
			"type": "function"
		},
		{
			"inputs": [],
			"name": "symbol",
			"outputs": [
				{
					"internalType": "string",
					"name": "",
					"type": "string"
				}
			],
			"stateMutability": "view",
			"type": "function"
		},
		{
			"inputs": [
				{
					"internalType": "uint256",
					"name": "tokenId",
					"type": "uint256"
				}
			],
			"name": "tokenURI",
			"outputs": [
				{
					"internalType": "string",
					"name": "",
					"type": "string"
				}
			],
			"stateMutability": "view",
			"type": "function"
		},
		{
			"inputs": [
				{
					"internalType": "address",
					"name": "from",
					"type": "address"
				},
				{
					"internalType": "address",
					"name": "to",
					"type": "address"
				},
				{
					"internalType": "uint256",
					"name": "tokenId",
					"type": "uint256"
				}
			],
			"name": "transferFrom",
			"outputs": [],
			"stateMutability": "nonpayable",
			"type": "function"
		},
		{
			"inputs": [
				{
					"internalType": "address",
					"name": "newOwner",
					"type": "address"
				}
			],
			"name": "transferOwnership",
			"outputs": [],
			"stateMutability": "nonpayable",
			"type": "function"
		},
		{
			"inputs": [],
			"name": "withdraw",
			"outputs": [],
			"stateMutability": "nonpayable",
			"type": "function"
		}
	]
}